:020000040800F2
:1000000018160020B9020008112D0008132D000851
:10001000172D00081B2D00081F2D000800000000F0
:10002000000000000000000000000000232D000878
:10003000252D000800000000272D0008292D0008AC
:10004000D3020008D3020008D30200082B2D0008B9
:10005000D3020008D3020008D3020008D30200082C
:10006000D3020008D302000875320008D30200084A
:10007000D3020008D3020008D3020008D30200080C
:10008000D3020008D3020008D3020008D3020008FC
:10009000D3020008D3020008D3020008D3020008EC
:1000A000D3020008D3020008D3020008D3020008DC
:1000B000713D0008513B00082F3C0008D3020008A6
:1000C000D3020008D3020008D3020008D3020008BC
:1000D000D3020008852C0008D3020008C5380008A8
:1000E000D3020008D3020008D3020008D30200089C
:1000F000D3020008D3020008D3020008D30200088C
:10010000D3020008D3020008D3020008D30200087B
:10011000D3020008D3020008D3020008D30200086B
:10012000D3020008D3020008D3020008D30200085B
:1001300000F002F800F0B0F80AA090E8000C824449
:100140008344AAF10107DA4501D100F0A5F8AFF226
:10015000090EBAE80F0013F0010F18BFFB1A43F0A5
:1001600001031847887C0000A87C00000A444FF077
:10017000000C10F8013B13F0070408BF10F8014B06
:100180001D1108BF10F8015B641E05D010F8016B4B
:10019000641E01F8016BF9D113F0080F1EBF10F8AF
:1001A000014BAD1C0C1B09D16D1E58BF01F801CBD2
:1001B000FAD505E014F8016B01F8016B6D1EF9D555
:1001C0009142D6D37047000000230024002500266A
:1001D000103A28BF78C1FBD8520728BF30C148BFAA
:1001E0000B6070476E2904F07083702904F08381DE
:1001F000662905F0CF85652905F0CC85672905F0CE
:10020000C985612905F0C88503681B0A28BF41F02C
:100210008001692904F0F480642904F0F1807529D3
:1002200004F0EE806F2904F06984782904F04F818E
:10023000E92904F00384E42904F00084F52904F09A
:10024000FD83EF2904F06684F82904F04E810368E9
:10025000DB0928BF41F08001632904F07283732910
:1002600004F07783E32905F03980F32905F03E8017
:10027000002070471FB505F08FF804000020002112
:1002800005F072FD401C60600020002105F056FD65
:10029000E0601FBD10B510BD05F050F81146FFF726
:1002A000E9FF02F060FE05F029F903B4FFF7F2FF61
:1002B00003BC02F08DFC0000094880470948004754
:1002C000FEE7FEE7FEE7FEE7FEE7FEE7FEE7FEE706
:1002D000FEE7FEE704480549054A064B7047000063
:1002E0002B2E0008310100081810002018160020DD
:1002F0001812002018120020F0B514460B46CF1734
:1003000001EB5777C7F3C702CF1701EB5777FF1001
:10031000A1EBC707FEB20123B340DDB24CB1FE4BE7
:1003200003EBC0039B5C2B43FB4F07EBC007BB54A5
:100330001AE0F94B03EBC0039B5CDB43F64F07EB82
:10034000C007BB54F44B03EBC0039B5C2B43F24F41
:1003500007EBC007BB54F04B03EBC0039B5CDB43D4
:10036000ED4F07EBC007BB54F0BD2DE9FE4F07462C
:10037000884692461C460197CDF80080082C02D191
:100380004FF006091FE02046E31704EB5373DB1020
:1003900021464FEAE47C04EB5C7C4FEAEC0CA4EBD6
:1003A000CC0CBCF1000F02D04FF0010C01E04FF07B
:1003B000000C6344224604EBD27C4FEA6C0C03FB36
:1003C0000CF303F0FF09AAF12000C6B200255EE09D
:1003D000082C07D106EB4600D04901EB400010F88D
:1003E00005B01DE00C2C07D106EB4600CC4901EB13
:1003F000800010F805B013E0102C05D1C94800EBBF
:10040000061010F805B00BE0182C07D106EBC6005B
:10041000C54901EB800010F805B001E0BDE8FE8F92
:10042000002002901CE00BF0010028B14146384644
:100430000C9AFFF761FF09E00C9808B9012000E071
:100440000020024641463846FFF756FF4FEA6B0B45
:1004500008F1010000F0FF080298401CC0B20290B1
:1004600002980828DFDB781CC7B2082C0BD004EBFD
:10047000D4714A100199791A8A4204D1019F0098D7
:100480000830C0B20090DDF80080681CC5B24D4550
:100490009EDB00BFC2E72DE9F84106460F46144631
:1004A0001D46DDF81C8013E0CDF8008022782B4635
:1004B00039463046FFF759FF082D02D1B01DC6B2AC
:1004C00005E0284605EBD07106EB6101CEB2641C55
:1004D0002078202802DB20787E28E5DDBDE8F88141
:1004E0002DE9FC4F0746884616461C46BB46CDF80C
:1004F00004802046E21704EB5272D2102146E31723
:1005000004EB5373DB10A4EBC3030BB1012300E036
:1005100000231A44624392B20092002553E0102C4B
:1005200005D1824800EB461010F805A019E0182C00
:1005300005D17E4800EB461010F805A011E0202CF4
:1005400005D17A4800EB461010F805A009E0402CD0
:1005500005D1764800EB461010F805A001E0BDE893
:10056000FC8F4FF000091CE00AF0010028B1414661
:1005700038460B9AFFF7C0FE09E00B9808B9012036
:1005800000E00020024641463846FFF7B5FE4FEA3C
:100590006A0A08F1010000F0FF0809F1010000F00B
:1005A000FF09B9F1080FDFDB781CC7B2A7EB0B001E
:1005B000A04204D15F4601980830C0B20190DDF836
:1005C0000480681C85B200988542A8DB00BFC6E79E
:1005D000F8B505460E4614461F460120102300229A
:1005E000202100901046FFF77BFF012010230246D8
:1005F000202100901846FFF773FF012010232246A8
:10060000202100900846FFF746FFF8BD00200CE0CF
:10061000302106E00022404B03EBC1031A544A1C70
:10062000D1B28029F6DB421CD0B20228F0DB704741
:10063000032000BF0100A0F10102D0B2FAD170473F
:1006400010B54FF400713A4800F0CBFD4FF48071C3
:10065000374800F0C4FDFFF7EBFF4FF4007134485A
:1006600000F0BDFD10BD10B54FF40071304800F032
:10067000B6FDFFF7DDFF4FF480712D4800F0AFFDB0
:10068000FFF7D6FF4FF48071294800F0AAFDFFF76D
:10069000CFFF10BD70B5044600251FE004F08000B8
:1006A00028B14FF40071224800F099FD04E04FF4A6
:1006B00000711F4800F095FDFFF7BAFF4FF48071FD
:1006C0001B4800F08CFDFFF7B3FF4FF48071184812
:1006D00000F087FD6006040E681CC5B2082DDDDB46
:1006E00070BD10B54FF40071114800F078FD4FF463
:1006F00080710F4800F073FDFFF79AFF4FF400710F
:100700000B4800F06EFDFFF793FF4FF4807108482F
:1007100000F067FD0EE00000400300209C5D000833
:10072000C45F000838640008286A00080000002040
:10073000000C0140FFF77CFF10BD70B505460C466C
:10074000FFF7CFFF7820FFF7A5FFFFF78CFF1CB165
:100750004020FFF79FFF02E00020FFF79BFFFFF71D
:1007600082FF2846FFF796FFFFF77DFFFFF768FF40
:1007700070BD70B500242BE004F1B001C8B20021B7
:10078000FFF7DBFF00210846FFF7D7FF002110200D
:10079000FFF7D3FFFFF7A5FF7820FFF77BFFFFF7F9
:1007A00062FF4020FFF776FFFFF75DFF002509E0BD
:1007B000F74901EBC501085DFFF76CFFFFF753FF39
:1007C000681CC5B2802DF3DBFFF73AFF601CC4B292
:1007D000082CD1DB70BD38B5044601201023224619
:1007E000002100900846FFF756FEFFF7C2FFFFF713
:1007F0000DFF38BD10B504461CB90021A620FFF737
:100800009CFF012C03D10021A720FFF796FF10BD0C
:1008100010B504463CB90021C820FFF78EFF002127
:10082000A120FFF78AFF012C07D10021C020FFF78C
:1008300084FF0021A020FFF780FF10BD10B500212C
:100840008D20FFF77AFF00211420FFF776FF0021AB
:10085000AF20FFF772FF10BD10B500218D20FFF70C
:100860006CFF00211020FFF768FF0021AE20FFF78A
:1008700064FF10BD2DE9FF4F84B081468A460020F9
:10088000029083460698A0EB09040798A0EB0A069D
:10089000CDF80490CDF800A0002C01DD012705E083
:1008A0000CB9002702E04FF0FF376442002E02DD52
:1008B0004FF0010806E016B94FF0000802E04FF0D3
:1008C000FF386642B44201DD254600E0354600208F
:1008D00003901EE0009AD1B2019AD0B2119AFFF7AC
:1008E0000BFD029820440290B3440298A84205DD13
:1008F0000298401B0290019838440190AB4504DDFA
:10090000ABEB050B0098404400900398401C80B26C
:100910000390691C03988842DCDB08B0BDE8F08FC7
:100920002DE9F04306460F4690460025444643E035
:100930003A1BD1B27219D0B20122FFF7DDFC3A1B8B
:10094000D1B2721BD0B20122FFF7D6FC3A19D1B254
:10095000721BD0B20122FFF7CFFC3A19D1B2721943
:10096000D0B20122FFF7C8FC7A19D1B23219D0B245
:100970000122FFF7C1FC7A1BD1B23219D0B2012299
:10098000FFF7BAFC7A1BD1B2321BD0B20122FFF7BB
:10099000B3FC7A19D1B2321BD0B20122FFF7ACFC02
:1009A0006D1C05FB05F004FB040008FB1809B9F1F8
:1009B000000F01DD641E6D1E6000604308FB08F13E
:1009C0008842B5DABDE8F08310B50246012000E0A8
:1009D00050430B00A1F10104E1B2F9D110BD2DE9A2
:1009E000FF4F82B0064691461F46DDE90F4A4FF0A1
:1009F000000B082C01D14FF0020B002530E0781BD2
:100A0000401EC1B20A20FFF7DFFFB9FBF0F00A2158
:100A1000B0FBF1F201FB1208B8F1000F0ED104EBAC
:100A2000D4710BEB610101FB0561C8B22346302292
:100A3000CDE900A40399FFF798FC0FE004EBD47113
:100A40000BEB610101FB0561C8B208F13001CAB2CC
:100A50002346CDE900A40399FFF787FC681CC5B2C3
:100A6000BD42CCDB06B0BDE8F08F08B580468946B4
:100A70009246002600274BE04FB91023324618213A
:100A80008020CDF800A0FFF72BFD701CC6B24645B4
:100A900022D14FF0000B1AE0012410E000250AE0FB
:100AA0003B4800EBC400415D601E394A02EBC000C8
:100AB0004155681CC5B2082DF2DB601CC4B2902CF5
:100AC000ECDBFFF756FE0BF1010000F0FF0B4FEAE5
:100AD00009105845E0DC0026781CC7B2102F00D161
:100AE0000027012410E000250AE0294800EBC4009B
:100AF000415D601E264A02EBC0004155681CC5B22C
:100B0000082DF2DB601CC4B2902CECDBFFF731FE49
:100B1000B2E72DE9FF4F05460E4617461C46DDF8A5
:100B200038904FF0000A0095B3462046E21704EBD8
:100B30005272D2102146E31704EB5373DB10A4EB7F
:100B4000C3030BB1012300E000231A44D4B24FF0D9
:100B5000000848E0002003903EE00D9810F80A00DD
:100B600002900AF101001FFA80FA0020019020E0B3
:100B7000029800F0010028B14A4631462846FFF7A6
:100B8000BBFB0DE0B9F1000F04D1012003E0000030
:100B9000400300200020024631462846FFF7ACFB08
:100BA000029840100290701CC6B20198401CC0B25E
:100BB000019001980828DBDB681CC5B20098281A50
:100BC000B84204D1009D0BF1080000F0FF0B5E4617
:100BD0000398401CC0B203900398B842BDDB08F1F3
:100BE000010000F0FF08A045B4DBBDE8FF8F08B5A9
:100BF0000121082000F068FD4FF44070ADF80000BE
:100C000014208DF8030003208DF8020069463D484A
:100C100000F038FA4FF440713A4800F0E0FA002151
:100C2000AE20FFF78AFD00210846FFF786FD002170
:100C30001020FFF782FD00214020FFF77EFD0021FC
:100C40008120FFF77AFD0021CF20FFF776FD0021FC
:100C5000A120FFF772FD0021C820FFF76EFD0021E3
:100C6000A620FFF76AFD0021A820FFF766FD0021FE
:100C70003F20FFF762FD0021D320FFF75EFD00213A
:100C80000846FFF75AFD0021D520FFF756FD002149
:100C90008020FFF752FD0021D920FFF74EFD0021F3
:100CA000F120FFF74AFD0021DA20FFF746FD002181
:100CB0001220FFF742FD0021DB20FFF73EFD00215F
:100CC0003020FFF73AFD00212020FFF736FD0021FC
:100CD0000220FFF732FD00218D20FFF72EFD0021BD
:100CE0001420FFF72AFDFFF791FC0021AF20FFF74A
:100CF00024FDFFF78BFC0020FFF77CFD0020FFF7B1
:100D000087FD08BD000C014031490143314A1160A3
:100D1000704770B5002100230F22C47804B32D4C16
:100D2000246804F4E064C4F5E064210AC1F104031A
:100D3000CA40447804FA03F184781440214309013D
:100D4000254C0678A155047804F01F050124AC4019
:100D500005786D11AD0005F1E025C5F8004109E009
:100D6000047804F01F050124AC401C4D0678761170
:100D700045F8264070BD1A4A0A400243154B1B1F16
:100D80001A60704739B1134A121D12680243114BA1
:100D90001B1D1A6006E00F4A121D126882430D4B9C
:100DA0001B1D1A607047042808D14FF0E021096923
:100DB00041F004014FF0E022116107E04FF0E02123
:100DC000096921F004014FF0E02211617047000031
:100DD0000000FA050CED00E000E400E080E100E036
:100DE00080FFFF1F10B5012000F0A2FC002000F0E2
:100DF0009FFC10BD2A49086070472949091F0860F7
:100E00007047274984310860704701460020254A11
:100E100010884FF67F4210400843224A10807047E6
:100E2000014600201F4A10884FF680721040084388
:100E30001C4A1080704708B500220092194A2C3ACB
:100E40000092009A02440092009A116008BD08B511
:100E500001460020009013482C3800900098084468
:100E600000900098008808BD0D489C300068C0B212
:100E700070470C480830008840F0010009490831EB
:100E8000088070470648A0300068C0B27047054827
:100E90000830008840F0020002490831088070479D
:100EA00004860D422C6C0040002044490860091D56
:100EB0000860091D0860091D086041483F49143158
:100EC0000860704700213D498279002A3AD00A46DD
:100ED000126803689A430B461A600A1D1268036879
:100EE0009A430B1D1A60027911440A6803681A4379
:100EF0000A60324A0832126803689A432F4B08335B
:100F00001A601A1D126803689A432C4B0C331A603E
:100F10004279102A0ED11A1F126803681A43274B10
:100F200008331A601A1D126803681A43234B0C33E6
:100F30001A600DE02149427911440A6803681A4396
:100F40000A6005E0027911440A6803689A430A605E
:100F500070470021016001710C21417100218171F4
:100F600070471649103109680143144A1032116064
:100F7000704701460020114A143212680A400AB133
:100F8000012000E0002070470C49143108607047D0
:100F9000014600200022094B1B6803EA0102074BAF
:100FA00014331B680B4013B10AB1012000E000208C
:100FB0007047024914310860704700000004014086
:100FC000FFFF0F0010B50446CC48844208D1012130
:100FD000042000F093FB0021042000F08FFB46E08A
:100FE000C748844208D10121082000F087FB002176
:100FF000082000F083FB3AE0C248844208D1012176
:10100000102000F07BFB0021102000F077FB2EE089
:10101000BD48844208D10121202000F06FFB00214F
:10102000202000F06BFB22E0B848844208D1012167
:10103000402000F063FB0021402000F05FFB16E041
:10104000B348844208D10121802000F057FB0021E1
:10105000802000F053FB0AE0AE48844207D1012112
:10106000801500F04BFB0021A01500F047FB10BDE0
:1010700010B50121084600F041FB0021012000F0DD
:101080003DFB10BD2DE9F041024600250026002061
:1010900000230024002791F803C00CF00F0591F8FD
:1010A00003C00CF0100CBCF1000F03D091F802C08B
:1010B0004CEA050591F800C0BCF1000F31D014686E
:1010C00000202BE04FF0010C0CFA00F3B1F800C047
:1010D0000CEA03069E4220D183004FF00F0C0CFA5D
:1010E00003F7BC4305FA03FC4CEA040491F803C07F
:1010F000BCF1280F06D14FF0010C0CFA00FCC2F82D
:1011000014C00AE091F803C0BCF1480F05D14FF0BC
:10111000010C0CFA00FCC2F810C0401C0828D1D306
:101120001460B1F800C0BCF1FF0F34DD546800203A
:101130002EE000F1080C4FF0010808FA0CF3B1F8AA
:1011400000C00CEA03069E4221D183004FF00F0C31
:101150000CFA03F7BC4305FA03FC4CEA040491F8CB
:1011600003C0BCF1280F05D100F1080C08FA0CF8F7
:10117000C2F8148091F803C0BCF1480F07D100F108
:10118000080C4FF0010808FA0CF8C2F81080401C57
:101190000828CED35460BDE8F0814FF6FF7101807E
:1011A000022181700421C1707047024600209368BB
:1011B0000B400BB1012000E0002070470146886819
:1011C00080B2704702460020D3680B400BB101206B
:1011D00000E0002070470146C86880B27047016196
:1011E0007047416170470AB1016100E04161704799
:1011F000C16070474FF480320A438261816182612D
:1012000082698269704702460020434B18684FF696
:101210008073184040EA021008433F4B1860704743
:101220003E49C8617047F0B50A46002300240021FA
:10123000002500F00046B6F1004F02D1364EF169AC
:1012400001E0354E7168C0F3034583B200F44016E7
:10125000B6F5401F08D121F070612F4E766826F058
:1012600070662D4F7E6012E000F48016B6F5801F88
:1012700006D1032606FA05F4A14341F0706106E0A9
:10128000460D360103FA06F6B14341F0706122B112
:10129000460D360103FA06F6314300F00046B6F17A
:1012A000004F02D11C4EF16101E01B4E7160F0BD98
:1012B00030B500228B071C0F0F2303FA04F2164BE4
:1012C00008338C1053F824309343134C08348D109A
:1012D00044F8253023468C1053F824308C07240F13
:1012E00000FA04F423430C4C08348D1044F82530E4
:1012F00030BD0A49DC310860704700000008014039
:10130000000C014000100140001401400018014091
:10131000001C01400020014000000140000020426C
:1013200010B50121080700F0F6F900214FF08050B8
:1013300000F0F1F910BD2A49086270472849086198
:10134000704701460020274A106820F0E00008435B
:10135000106070472249A0310860704710B50246FE
:101360000020204B186820F00300104318601E4B2B
:101370001B6843F004031C4C2360012901D130BFDA
:1013800000E020BF184B1B6823F00403164C2360B9
:1013900010BD1448006840F0040012490860084677
:1013A000006840F0020008600F48006840F0040048
:1013B0000D49086000BF00BF30BF704701460020E4
:1013C000084A52680A400AB1012000E00020704734
:1013D0000449096841EA8001024A1160704700002F
:1013E00000000E420070004010ED00E0DF48006891
:1013F00040F00100DD49086008464068DC490840CB
:10140000DA49486008460068DA490840D749086068
:101410000846006820F4802008600846406820F4F0
:10142000FE0048604FF41F0088607047CF4909688C
:1014300021F48031CD4A11601146096821F48021E0
:101440001160B0F5803F03D0B0F5802F0ED106E0DB
:10145000C649096841F48031C44A116007E0C349B4
:10146000096841F4A021C14A116000E000BF00BF3B
:10147000704710B501460022002300204A11012ABE
:1014800002D1BA4C236806E0022A02D1B74C236A83
:1014900001E0B64C636A01F01F02012494401C4035
:1014A0000CB1012000E0002010BD38B500200090F4
:1014B0000024002500BF3120FFF7DBFF0546009820
:1014C000401C00900098B0F5A06F01D0002DF2D024
:1014D0003120FFF7CEFF08B1012400E000242046B0
:1014E00038BD01460020A14A106820F0F80040EA0B
:1014F000C10010607047A049086070470246002094
:101500009A4B586820F47C1042EA01031843974B29
:101510005860704798490866704701460020934A12
:10152000506820F003000843506070478F484068BF
:1015300000F00C007047014600208C4A506820F0F3
:10154000F00008435060704701460020874A506809
:1015500020F4E06008435060704701460020834A51
:10156000506820F4605040EAC1005060704729B1D3
:101570007E4A527A02437D4B5A7204E07B4A527A89
:1015800082437A4B5A7270477B49D8310860704762
:1015900001460020754A506820F4404008435060DE
:1015A00070470021714A20321170704A82F8201071
:1015B000012802D004280AD104E001216B4A20321C
:1015C000117005E00521694A2032117000E000BF6A
:1015D00000BF70476949086070476449096A014360
:1015E000624A11627047654944390860704730B5F6
:1015F00000210022002400235C4D6D6805F00C01E1
:1016000021B1042905D0082923D105E05C4D0560EE
:1016100022E05B4D05601FE0544D6D6805F47012CB
:10162000524D6D6805F48034022505EB92421CB9D9
:10163000544D554305600BE04C4D6D6805F4003585
:101640001DB1504D5543056002E04D4D55430560B9
:1016500002E04B4D056000BF00BF444D6D6805F0D2
:10166000F0010909484D6B5C0568DD4045603F4D60
:101670006D6805F4E061090A434D6B5C4568DD4027
:1016800085603A4D6D6805F46051C90A3E4D6B5C4A
:101690004568DD40C560354D6D6805F44041890BF6
:1016A0003A4D6B5CC568B5FBF3F5056130BD29B1FA
:1016B0002E4A526902432D4B5A6104E02B4A52696B
:1016C00082432A4B5A61704729B1284A92690243E2
:1016D000264B9A6104E0254A92698243234B9A6122
:1016E000704729B1214AD2690243204BDA6104E0F4
:1016F0001E4AD26982431D4BDA61704729B11B4AE9
:10170000D2680243194BDA6004E0184AD268824377
:10171000164BDA60704729B1144A12690243134B21
:101720001A6104E0114A12698243104B1A61704732
:1017300012494039086070470F49C86470470B4927
:10174000C87170470948406A40F080700749486294
:10175000704701460020054A92680A400AB10120FC
:1017600000E0002070470149887270470010024075
:101770000000FFF8FFFFF6FE0000424280044242F4
:1017800000127A0000093D00A0010020B0010020F5
:1017900029B1504A128802434E4B1A8004E04D4A48
:1017A000128882434B4B1A8070474A48001D0088BC
:1017B00040F010004749091D088070474548001D4A
:1017C00000884FF6EF7108404249091D08807047B4
:1017D000002140481C300188001F008841EA004079
:1017E000704700B50246FFF7E0FF100C3949183189
:1017F0000880091D0A80FFF7E1FF00BD00B5024621
:10180000FFF7D3FFC2F30340324908310880091DB6
:101810000A80FFF7D3FF00BD00B50246FFF7C5FF02
:10182000100C2C4920310880091D0A80FFF7C6FFE3
:1018300000BD00202749103109880907080B2549F8
:10184000143109880843704700BF2248001D0088F2
:1018500000F020000028F8D070471E48001D0088C6
:101860004FF6F77108401B49091D088000BF194851
:10187000001D008800F008000028F8D070470146DD
:101880000020144A121D12880A400AB1012000E00B
:10189000002070470F49091D098881430D4A121D18
:1018A00011807047014600200A4A121D12880A4022
:1018B000D0B2084A12880A4012B108B1012000E0F3
:1018C000002070470349091D09888143014A121D00
:1018D000118070470028004010B50446FE4884423D
:1018E00008D10121C014FFF709FF0021E014FFF720
:1018F00005FFC4E0B4F1804F08D101210846FFF78D
:101900000AFF00210120FFF706FFB8E0F3488442F8
:1019100008D101210220FFF7FEFE00210220FFF77F
:10192000FAFEACE0EE48844208D101210420FFF722
:10193000F2FE00210420FFF7EEFEA0E0E948844219
:1019400008D101210820FFF7E6FE00210820FFF75B
:10195000E2FE94E0E448844208D101211020FFF720
:10196000DAFE00211020FFF7D6FE88E0DF4884422F
:1019700008D101212020FFF7CEFE00212020FFF713
:10198000CAFE7CE0DA48844208D101214014FFF706
:10199000B5FE00216014FFF7B1FE70E0D548844227
:1019A00009D10121C804FFF7A9FE00214FF400204E
:1019B000FFF7A4FE63E0D048844209D10121080565
:1019C000FFF79CFE00214FF48010FFF797FE56E0D2
:1019D000CA48844209D101214805FFF78FFE002142
:1019E0004FF40010FFF78AFE49E0C548844208D151
:1019F00001214020FFF78FFE00214020FFF78BFEE2
:101A00003DE0C048844208D101218020FFF783FED9
:101A100000218020FFF77FFE31E0BB48844208D1DF
:101A200001218015FFF777FE0021A015FFF773FE57
:101A300025E0B648844209D101210804FFF75EFE83
:101A400000214FF48030FFF759FE18E0B04884427F
:101A500009D101214804FFF751FE00214FF4003065
:101A6000FFF74CFE0BE0AB48844208D1012188040B
:101A7000FFF744FE00214FF48020FFF73FFE10BD2A
:101A800000220288944B98420ED0994B98420BD07A
:101A9000B0F1804F08D0914B984205D0904B9842BE
:101AA00002D0904B984204D14FF68F731A404B8866
:101AB0001A438D4B984207D08C4B984204D04FF676
:101AC000FF431A40CB881A4302808B8883850B889A
:101AD0000385814B98420BD0854B984208D08B4BA5
:101AE000984205D08A4B984202D08A4B984201D145
:101AF0000B7A038601238382704770B5002400228D
:101B00000023058C4FF6FE7635400584028C8388D1
:101B1000048B4FF68F752C40B51E2C400D882C433E
:101B2000751E2A400D892A434D882A436A4DA842D2
:101B30000BD06F4DA84208D0744DA84205D0744D0B
:101B4000A84202D0734DA84213D14FF6F7752A4030
:101B50004D892A434FF6FB752A408D882A434FF65C
:101B6000FF652B404FF6FF552B408D892B43CD89C8
:101B70002B4383800483CD888586028470BD70B535
:101B8000002400220023058C4FF6EF7635400584B3
:101B9000028C8388048B48F6FF752C404FF6FF4576
:101BA0002C400D884FF6FF7606EA05252C434FF6AC
:101BB000DF752A400D8906EA05152A434D8806EA95
:101BC00005152A43444DA84202D0494DA8421DD1D3
:101BD0004FF67F752A404D894FF6FF7606EA0515C8
:101BE0002A434FF6BF752A408D8806EA05152A4319
:101BF0004FF6FF352B404FF2FF752B408D8906EADB
:101C000085052B43CD8906EA85052B438380048314
:101C1000CD880587028470BD70B5002400220023A2
:101C2000058C4FF6FF6635400584028C8388848BD3
:101C30004FF68F752C404FF6FC752C400D882C43C9
:101C40004FF6FF552A400D894FF6FF7606EA052527
:101C50002A434D8806EA05252A431F4DA84202D093
:101C6000234DA8421DD14FF2FF752A404D894FF6F2
:101C7000FF7606EA05252A434FF6FF352A408D8870
:101C800006EA05252A434EF6FF752B404DF6FF75F3
:101C90002B408D8906EA05152B43CD8906EA0515EB
:101CA0002B4383808483CD888587028470BD70B583
:101CB000002200230024058C4EF6FF763540058473
:101CC000038C8488828B48F6FF752A404FF6FF45C7
:101CD0002A400D8820E00000002C01400004004054
:101CE00000080040000C00400010004000140040BC
:101CF00000340140004C01400050014000540140BC
:101D000000180040001C004000200040004001403E
:101D100000440140004801404FF6FF7606EA0525E1
:101D20002A434DF6FF752B400D8906EA05352B43F6
:101D30004D8806EA05352B43FA4DA84202D0FA4DEC
:101D4000A84208D14BF6FF752C408D894FF6FF76DF
:101D500006EA85152C4384808283CD88A0F8405004
:101D6000038470BD828B4FF2FF331A408283828BD3
:101D70004FF6FF7303EA01231A4382837047F0B5DD
:101D80000C461546002200210026078C4EF6FF7CEB
:101D900007EA0C070784828B018C4FF6FF7707EA6E
:101DA000043640F6FF473A404FF6FF7707EA05272B
:101DB0003A434FF6FF7707EA03373A43D94FB84221
:101DC0000ED0D94FB8420BD0B0F1804F08D0D74FCA
:101DD000B84205D0D64FB84202D0D64FB84206D14D
:101DE0004DF6FF77394046F48057394305E047F612
:101DF000FF57394044F48057394382830184F0BD52
:101E0000828B4FF6F3731A408283828B0A4382835C
:101E10007047F0B50C461546002200210026078CBD
:101E20004FF6FF6C07EA0C070784828B018C4FF694
:101E3000FF7707EA04264FF60C773A404FF6FF7714
:101E400007EA03172F433A43B64FB8420ED0B64FB6
:101E5000B8420BD0B0F1804F08D0B44FB84205D093
:101E6000B34FB84202D0B34FB84206D14FF6FF5736
:101E7000394046F48077394305E04FF2FF57394047
:101E800044F48077394382830184F0BD028B4FF2A2
:101E9000FF331A400283028B4FF6FF7303EA0123DC
:101EA0001A4302837047F0B50C4615460022002104
:101EB0000026078C4FF6EF7C07EA0C070784028B9D
:101EC000018C4FF6FF7707EA041640F6FF473A40C9
:101ED0004FF6FF7707EA03373A434FF6FF7707EAF3
:101EE00005273A438F4FB8420ED08F4FB8420BD0E0
:101EF000B0F1804F08D08D4FB84205D08C4FB8421A
:101F000002D08C4FB84206D14FF6DF77394046F009
:101F10001007394305E04FF65F77394044F010076A
:101F2000394302830184F0BD028B4FF6F3731A40EC
:101F30000283028B0A4302837047F0B50C461546B4
:101F400000220021068C4FF6FE773E400684028B6D
:101F5000018C4FF60C7632407E1C06EA03162E43A7
:101F60003243704EB0420ED06F4EB0420BD0B0F143
:101F7000804F08D06D4EB04205D06D4EB04202D0B9
:101F80006C4EB04206D14FF6FD76314044F001066A
:101F9000314305E04FF6F576314044F00106314318
:101FA00002830184F0BD70B505460C465D4885424C
:101FB0000ED05D4885420BD0B5F1804F08D05B480C
:101FC000854205D05A48854202D05A48854200D100
:101FD00000E000BF208850B92389A2886188284684
:101FE000FFF7ABFFE1882846FFF79EFF25E020883A
:101FF00004280AD12389A28861882846FFF753FF65
:10200000E1882846FFF742FF17E0208808280AD118
:102010002389A28861882846FFF7FBFEE1882846CD
:10202000FFF7EEFE09E02389A28861882846FFF7C2
:10203000A6FEE1882846FFF795FE70BD2DE9F04128
:1020400005460C4600260127608808B9022600E0F4
:102050000026A088012801D1022700E0012720885E
:10206000A0B92389A28861882846FFF766FFE18826
:102070002846FFF759FF23893A4631462846FFF79D
:1020800012FFE1882846FFF701FF13E02389A288A9
:1020900061882846FFF707FFE1882846FFF7F6FE2C
:1020A00023893A4631462846FFF747FFE18828460C
:1020B000FFF73AFFBDE8F0810A884B881A438B8806
:1020C0001A43CB881A430B891A434B891A438B89CD
:1020D0001A43A0F8442070474FF6FF718180002119
:1020E0000180C180418001727047002101804180E0
:1020F0008180C180018141818181C181704700213E
:1021000001804180012181800021C18001817047CF
:102110000021018041808180C180018141818181D4
:1021200070470000002C01400034014000040040D2
:1021300000080040000C004021B1028842F001027A
:10214000028004E002884FF6FE731A400280704756
:1021500031B1B0F8442042F40042A0F8442005E038
:10216000B0F84420C2F30E02A0F8442070471AB120
:1021700083890B43838102E083898B43838170478A
:102180008182704741EA0203A0F8483070471AB1D3
:1021900083890B43838102E083898B43838170476A
:1021A00001894FF6F8721140018170470A460021FB
:1021B00001894FF68F73194011430181704730B583
:1021C00004460D4629462046FFF7F0FF208940F0DF
:1021D0000700208130BD2DE9F04104460D4616462A
:1021E0001F46602D06D13B46012231462046FFF7AF
:1021F0005AFE05E03B46012231462046FFF79DFE90
:1022000029462046FFF7D2FF208940F007002081B1
:10221000BDE8F08130B50C4600210189C9B24FF606
:10222000FF7505EA0325154325432943018130BD88
:102230002DE9F04105460E461746984600244346D0
:102240003A4631462846FFF7E5FF2C894FF6F870ED
:10225000044044F007044FF68F70044044F07004CB
:102260002C81BDE8F081F0B504460D4616461F46A8
:102270003B46324629462046FFF7CCFF208940F4F2
:1022800080402081F0BD0185828270470A4600218E
:1022900001884FF68F731940114301807047F0B5E4
:1022A0000C4615461E460021002200230189028BA0
:1022B000038C4FF6F877394021434FF6FC473A40FC
:1022C00040F201173A434FF6DD773B404FF6FF7778
:1022D00007EA06172F433B43018102830384F0BDC5
:1022E0000A460021018B4FF68F7319401143018379
:1022F00070470A460021018B48F6FF7319404FF6DC
:10230000FF7303EA02231943018370470A46002141
:10231000818B4FF68F7319401143818370470A46B2
:102320000021818B48F6FF7319404FF6FF7303EAD3
:10233000022319438183704721B1028842F0800251
:10234000028004E002884FF67F731A4002807047D3
:1023500021B1828842F00402828004E082884FF634
:10236000FB731A408280704721B1828842F00802D4
:10237000828004E082884FF6F7731A4082807047AB
:1023800021B1828842F00102828004E082884FF607
:10239000FE731A40828070470A460021018B4FF677
:1023A000F77319401143018370470A460021018BDE
:1023B0004FF2FF7319404FF6FF7303EA02231943EC
:1023C000018370470A460021818B4FF6F77319404D
:1023D0001143818370470A460021818B4FF2FF73BE
:1023E00019404FF6FF7303EA0223194381837047B4
:1023F0000A460021018B4FF6FB73194011430183FC
:1024000070470A460021018B4FF6FF3319404FF603
:10241000FF7303EA02231943018370470A46002130
:10242000818B4FF6FB7319401143818370470A4635
:102430000021818B4FF6FF3319404FF6FF7303EAFB
:1024400002231943818370470A460021018B4FF60E
:102450007F7319401143018370470A460021018BA5
:10246000C1F30E014FF6FF7303EA02231943018300
:1024700070470A460021818B4FF67F731940114344
:10248000818370470A460021818BC1F30E014FF60C
:10249000FF7303EA02231943818370470A46002130
:1024A000018C4FF6FD7319401143018470470A46B1
:1024B0000021018C4FF6F7731940114301847047D6
:1024C0000A460021018C4FF6DF7319404FF6FF7367
:1024D00003EA02131943018470470A460021018C64
:1024E0004FF67F7319404FF6FF7303EA0213194347
:1024F000018470470A460021018C4FF6FF531940B2
:102500004FF6FF7303EA02231943018470470A461A
:102510000021018C4FF2FF7319404FF6FF7303EA5D
:1025200002231943018470470A460021018C4DF6AD
:10253000FF7319404FF6FF7303EA02331943018416
:10254000704730B5002301248C40A3B2048C9C4317
:102550000484048C02FA01F5ADB22C43048430BD2E
:1025600030B5002304248C40A3B2048C9C43048423
:10257000048C02FA01F5ADB22C43048430BD70B571
:102580000346002000241846183001258D40ACB2C7
:102590001D8CA5431D8409B1082909D100EB6100F8
:1025A000056825F0700505600568154305600EE0B7
:1025B0000D1FC5F34E052844056825F4E045056068
:1025C00005684FF6FF7606EA02263543056070BDC2
:1025D00021B1028842F00202028004E002884FF634
:1025E000FD731A400280704721B1028842F0040254
:1025F000028004E002884FF6FB731A4002807047A5
:1026000021B1828842F08002828004E082884FF605
:102610007F731A408280704702884FF6F7731A4022
:10262000028002880A430280704782884FF68F73C7
:102630001A40828082880A438280704702894FF65E
:10264000F8731A40028102890A43028170470289A5
:102650004FF67F731A40028102890A430281704754
:1026600081847047818570478186704701877047F4
:1026700081877047A0F84010704702884FF6FF43EB
:102680001A40028002880A43028070470146888E01
:1026900070470146088F70470146888F7047014692
:1026A000B1F8400070470146888C70470146088D9C
:1026B000704702460020138A0B400BB1012000E056
:1026C00000207047CA430282704730B5024600209E
:1026D00000230024158A05EA0103958905EA01040F
:1026E00013B10CB1012000E0002030BDCA430282CA
:1026F0007047000010B50446FB48844209D101210F
:102700008803FEF7FBFF00214FF48040FEF7F6FF41
:1027100032E0F648844209D101214804FEF7FBFF6C
:1027200000214FF40030FEF7F6FF25E0F048844228
:1027300009D101218804FEF7EEFF00214FF480202B
:10274000FEF7E9FF18E0EB48844209D10121C804F3
:10275000FEF7E1FF00214FF40020FEF7DCFF0BE065
:10276000E548844208D101210805FEF7D4FF002185
:102770004FF48010FEF7CFFF10BD2DE9F04786B073
:1027800005460E460024A24600BFA1460027B08998
:1027900000B100BF2F462C8A4CF6FF700440F08831
:1027A00004432C82AC894EF6F3100440B088318982
:1027B0000843718908430443AC81AC8A4FF6FF405B
:1027C0000440B0890443AC8201A8FEF710FFC6485C
:1027D000874202D1DDF810A001E0DDF80CA0A88945
:1027E00000F4004040B10AEBCA0000EB0A10316867
:1027F0004900B0FBF1F807E00AEBCA0000EB0A1051
:1028000031688900B0FBF1F86420B8FBF0F00401F6
:102810002009642101FB1089A88900F4004040B11F
:10282000322000EBC900B0FBF1F000F007000443D8
:1028300008E0322000EB09106421B0FBF1F000F059
:102840000F0004432C8106B0BDE8F0874FF4165109
:10285000016000218180C18001810C214181002122
:102860008181704710B502460020108A4FF2FF03A5
:1028700018400B884C8823438C882343CC882343FF
:102880001843108210BD0021018041808180C180E9
:10289000704721B1828942F40052828104E082892A
:1028A0004DF6FF731A4082817047F0B5034600244D
:1028B00000260025002040F66A17B94200D100BF6B
:1028C0001846C1F3421401F01F06012707FA06F566
:1028D000012C01D10C3004E0022C01D1103000E0B9
:1028E00014301AB107682F43076002E00768AF434E
:1028F0000760F0BD1AB1838A0B43838202E0838AAA
:102900008B4383827047028A4FF6F0731A4002822B
:10291000028A0A430282704782894FF2FF731A408B
:10292000828182890A438281704721B1828942F083
:102930000202828104E082894FF6FD731A4082818F
:102940007047028A4FF6DF731A400282028A0A43F6
:102950000282704721B1028A42F48042028204E07E
:10296000028A4BF6FF731A4002827047C1F30802D5
:102970008280704701468888C0F3080070478189CB
:1029800041F0010181817047028BD2B20283028B38
:1029900042EA012202837047028B02F47F420283E3
:1029A000028B0A430283704721B1828A42F02002DF
:1029B000828204E0828A4FF6DF731A408282704777
:1029C00021B1828A42F01002828204E0828A4FF6AC
:1029D000EF731A408282704721B1828A42F0080266
:1029E000828204E0828A4FF6F7731A40828270472F
:1029F00021B1828942F40042828103E08289C2F3DC
:102A00000E028281704721B1828A42F40062828282
:102A100004E0828A4FF2FF731A4082827047828AF2
:102A20004FF6FB731A408282828A0A438282704781
:102A300021B1828A42F00202828204E0828A4FF649
:102A4000FD731A408282704702460020B1F5007F74
:102A500000D100BF13880B400BB1012000E0002023
:102A6000704701F40072B2F5007F00D100BFCA4385
:102A70000280704770B50246002400230025002024
:102A800040F66A16B14200D100BFC1F3421501F011
:102A90001F03012606FA03F3012D02D19689334064
:102AA00006E0022D02D1168A334001E0968A3340B7
:102AB0000C12012606FA04F41688344013B10CB146
:102AC000012000E0002070BD10B50022002340F678
:102AD0006A14A14200D100BF0A1201249440A3B29B
:102AE000DC43048010BD0000003801400044004079
:102AF00000480040004C00400050004010B56FF00E
:102B00000400FEF750F92E4800682E49B0FBF1F0A2
:102B10002D4908700846007800EB4001C1EBC01059
:102B20004FF6FF7101EAC0002849088010BD014638
:102B3000254A12784A434FF0E0235A6100229A61F5
:102B40001A46126942F001021A6100BF4FF0E022FA
:102B5000106900F001021AB100F48032002AF5D0A9
:102B60004FF0E022126922F001024FF0E0231A61D7
:102B700000229A6170470146144A12884A434FF076
:102B8000E0235A6100229A611A46126942F001025A
:102B90001A6100BF4FF0E022106900F001021AB183
:102BA00000F48032002AF5D04FF0E022126922F0C2
:102BB00001024FF0E0231A6100229A617047000081
:102BC000C001002000127A00B4010020B6010020EC
:102BD00000BF704700BF4A4A128802F04002002A34
:102BE000F9D0C2B2464B1B1D1A80704710B586B093
:102BF0000446012144F20400FEF766FD4FF4007024
:102C0000ADF8140003208DF8160018208DF8170079
:102C100005A93C48FEF736FA4FF48060ADF8140081
:102C200004208DF8170005A93648FEF72BFA252059
:102C30008DF8000003208DF801008DF802000120BE
:102C40008DF803006846FEF764F801940020ADF8A3
:102C50000800ADF80A00ADF80C00ADF810000C202B
:102C6000ADF80E0001A92648FFF787FD012240F2CA
:102C700025512348FFF719FE01212148FFF709FEDE
:102C800006B010BD10B540F225511D48FFF7F2FE09
:102C900010B31B48FFF76EFEC4B21B48008800F457
:102CA0000040C8B91848008800F4804060B10A2C80
:102CB00003D000201449088020E01348008840F425
:102CC00000401149088019E00D2C06D10E480088FB
:102CD00040F480400C49088010E00B480088C0F3A5
:102CE0000D000A490C5408480088401C0649088019
:102CF00008460088C72801DD0020088010BD0000BC
:102D00000038014000080140BC010020C00700203D
:102D1000704700BFFEE700BFFEE700BFFEE700BF51
:102D2000FEE7704770477047704710B50120FEF707
:102D3000B9FD38B10120FEF7C5FD01200249086048
:102D4000FEF782FD10BD0000A00200200CB500209F
:102D5000019000906C48006840F480306A49086037
:102D600000BF6948006800F4003000900198401CE2
:102D70000190009818B90198B0F5A06FF1D16248A0
:102D8000006800F4003010B10120009001E0002044
:102D900000900098012843D15C48006840F0100082
:102DA0005A4908600846006820F003000860084699
:102DB000006840F00200086053484068524948608B
:102DC0000846406848600846406840F480604860B3
:102DD0000846406820F47C1048600846406840F48B
:102DE000E81048600846006840F08070086000BF46
:102DF0004548006800F000700028F9D0424840685B
:102E000020F00300404948600846406840F0020056
:102E1000486000BF3C48406800F00C000828F9D129
:102E20000CBD10B5FFF792FF10BD10B53648006815
:102E300040F00100344908600846406834490840C1
:102E40003149486008460068324908402E49086008
:102E50000846006820F4802008600846406820F496
:102E6000FE0048604FF41F008860FFF7DAFF4FF064
:102E700000602949086010BD10B500210020002223
:102E8000214B5B6803F00C0121B1042906D008290D
:102E900028D107E0214B224C236027E01F4B204C18
:102EA000236023E0184B5B6803F47010164B5B68DB
:102EB00003F48032022303EB904022B9194B4343C1
:102EC000174C23600DE0104B5B6803F4003323B113
:102ED000144B4343124C236003E0104B4343104C0C
:102EE000236003E00D4B0E4C236000BF00BF064B78
:102EF0005B68C3F303130C4CE15C094B1B68CB40CC
:102F0000074C236010BD000000100240002002406A
:102F10000000FFF8FFFFF6FE08ED00E000127A0067
:102F2000C001002000093D00C401002008B50121B6
:102F30000420FEF7C9FB0820ADF8000003208DF83F
:102F4000020004208DF8030069464448FEF79AF811
:102F50000420ADF8000010208DF8030069463F48BA
:102F6000FEF790F808BDAAB04FF4A060FDF7CCFEC4
:102F7000FFF7C4FDFFF7DAFF00214FF4E15000F046
:102F800067FE48F69F4140F69F7000F0BFFE4FF489
:102F9000E1513348FFF768FB00F0CDF8FDF727FE5D
:102FA0004FF4E130FFF722FE4FF4E13000F0BCFCBB
:102FB00000F022FB51E008212848FEF7F6F820B186
:102FC00000212748FFF750FB04E04FF4E15124486B
:102FD000FFF74AFB01A801F083F80698009021A1B1
:102FE00016A8DDE9042301F0A5F9224800680128AC
:102FF00027DB00201F4908601F49204800F0E7F840
:103000001E4800781E490968884205DA0122042119
:103010001248FEF7E8F804E0002204210F48FEF70A
:10302000E2F81648027817A121A801F083F91348A5
:10303000037816AA14A107A801F07CF907A800F0EC
:1030400056FA1EAB21AA24A927A8FDF7C1FA16A893
:10305000FDF7C1FB00F061FA00BFACE700080140DA
:10306000002C0140253032643A253032643A253054
:10307000326400006002002064020020650200202B
:1030800054020020256400007B54494D453A222516
:1030900073222C22746570223A22256422000000DB
:1030A00010B510206049C8706048FDF7EBFF10BDF7
:1030B00010B5FFF7F5FF02215C48FEF792F81420E7
:1030C000FFF759FD02215948FEF789F81E20FFF746
:1030D0002EFD10BD10B504205349C8705348FDF7AC
:1030E000D1FF10BD10B50024FFF7F4FF04E0601C11
:1030F000C4B20120FFF71BFD02214C48FEF755F832
:1031000008B9642CF3DB642C01DB002010BD002423
:1031100004E0601CC4B20120FFF709FD022143480E
:10312000FEF743F808B1642CF3DB642C01DB0020CC
:10313000ECE70120EAE710B501210820FEF7C4FA08
:103140000220394908801020C87001208870374853
:10315000FDF798FFFFF7ACFFFFF7C4FF10BD10B5F8
:10316000002404E0601CC4B20120FFF7E0FC02214F
:103170002E48FEF71AF808B1642CF3DB002404E0B3
:10318000601CC4B20120FFF7D2FC02212748FEF7E1
:103190000CF808B9642CF3DB1E20FFF7C8FC0221F1
:1031A0002248FEF702F808B1012010BD0020FCE71C
:1031B00070B50024002506E06006040EFFF7CFFF7F
:1031C0000443681CC5B2082DF6DB204670BD7CB5F3
:1031D00005460E46FFF76CFFFFF784FF01281FD15D
:1031E000002405E0FFF7E4FF0DF80400601CC4B202
:1031F000052CF7DB9DF800009DF8011008449DF8B0
:10320000021008449DF8031008449DF804108842F9
:1032100008D19DF8000030709DF80200287001E090
:1032200000207CBD0120FCE7D4010020000C0140FF
:1032300010B504462CB90020FE498871FE49C870BB
:103240000FE0012C03D10820FA49487104E0022C58
:1032500002D10C20F74948710120F6498871F649DE
:10326000C870F6480470F348FDF72CFEF248FDF7ED
:1032700050FD10BD10B51020FDF78AFE70B3EF4869
:10328000007801280AD1EE480078012802D10020F8
:10329000EC4908800220E949087018E0E748007806
:1032A000022814D1E6480078012806D1E5480088B4
:1032B00040F40040E349088006E0E1480078022835
:1032C00002D10120DE4908700120DC490870DB488A
:1032D0000078FFF7ADFF1020FDF76BFE10BD38B58D
:1032E0000024012501210420FEF7EEF90121084602
:1032F000FEF7EAF90121D448FDF795FFE803ADF8A0
:10330000000010208DF8030003208DF802006946AC
:10331000CE48FDF7B7FE1020ADF8000028208DF84C
:10332000030003208DF802006946C848FDF7AAFE95
:1033300004210020FDF7BCFF1020BE4908600020DA
:10334000087108204871002088710846FDF7BAFD11
:103350000A20B949087002204870032088700020B4
:10336000C8700846FDF7D5FC0020B9490860B94986
:10337000C1F8100106E0B8A000F0D0FF4FF4FA70D9
:10338000FFF7F9FBB248AC3800680028F3D14FF4DE
:10339000E13000F0C9FA0120AD4908602820FFF7AC
:1033A000EAFB032407E04622B0A1B1A000F03FFAF7
:1033B00008B9002504E02000A4F10101CCB2F2D14B
:1033C00000BF04B90125284638BD30B585B00025B9
:1033D0000021072000F025FB012000F07DFB00BF4D
:1033E0009B48AC3800680028FAD101209849086051
:1033F0002820FFF7C0FB0020914908709E480088F4
:10340000040A9D4805789DA1684600F093FF32228A
:1034100096A1684600F00BFA2B4622469AA1684610
:1034200000F088FF322291A1684600F000FA92482D
:103430000379827899A1684600F07CFF32228BA143
:10344000684600F0F4F98C48C27898A1684600F00C
:1034500071FF322285A1684600F0E9F98648827939
:1034600096A1684600F066FF322280A1684600F00F
:10347000DEF98148C27995A1684600F05BFF3222EF
:103480007AA1684600F0D3F97B48427992A1684658
:1034900000F050FF322275A1684600F0C8F9764866
:1034A000437A027A90A1684600F044FF32226FA16D
:1034B000684600F0BCF900206649C1F8BC0128202C
:1034C000FFF759FB00BF6248AC3800680028FAD10A
:1034D0005C49088001205A490870674A517A107A7D
:1034E00000F09FFA0120FFF7A3FE05B030BD10B534
:1034F00004460220524908705F48C07960B92246EC
:103500007DA17E4800F016FF7C497BA000F065FAA3
:103510007A497BA000F002FF10BD10B5ADF5806DBB
:1035200000244848008800F40040002861D004E0EE
:103530007648005D0DF80400641C7448005D0028A6
:10354000F6D1641C0DF804003E490988C1F30E0150
:103550006E4A50543B4908806DA1684601F09AF8C4
:10356000002826D06C49684600F048FE6A4840684A
:1035700080B169488068C0F1640000EBC0004FF67C
:10358000FF7202EAC0016548FFF76EF864A0FFF71A
:10359000AEFF07E04FF4E1516048FFF765F863A024
:1035A000FFF7A5FF5C4883684268016862A000F0ED
:1035B000B5FE68A1684601F06DF838B16649684605
:1035C00000F01CFE644880686449086064A1684695
:1035D00001F060F818B16449684600F049FE4FF404
:1035E00080614A4801F0B9F82146684601F0D7F8F1
:1035F00000240DF5806D10BD10B541F27070FFF71D
:10360000BAFA06E059A000F089FE4FF49670FFF771
:10361000B2FAFFF764FE0028F4D159A000F07EFE54
:103620004FF4FA70FFF7A7FA012009490860282033
:10363000AEE00000440200204C02002051020020B5
:103640005002002058020020000230000008014013
:10365000BC01214200002142C4A3BFE9D5FDC3A69D
:103660002CC7EBC9D4B5C821210A00004F4B00007C
:1036700041544530000000003802002041542B43E3
:10368000474D523F0000000041542B414444523DFD
:10369000253032782C2530327800000041542B57E9
:1036A0004C524154453D25642C25640041542B5413
:1036B000504F5745523D25640000000041542B43B4
:1036C000574D4F44453D25640000000041542B54A4
:1036D0004D4F44453D25640041542B574C54494DB2
:1036E000453D25640000000041542B554152543D96
:1036F00025642C2564000000257300008808002044
:1037000053656E64A3BA25730D0A000050090020AA
:1037100046414E3100000000D8010020002C01403D
:1037200046414E31204F4E210000000046414E31AF
:10373000204F46460D0A000046414E315F4E455728
:103740005F53746174653A2025733A25643A2564A1
:103750000D0A000054480000F80100205402002027
:1037600054494D450000000018020020CEB4BCECC6
:10377000B2E2B5BDC4A3BFE92121210D0A000000BA
:10378000BCECB2E2B5BDC4A3BFE92121210D0A0002
:10379000FFF7F1F9002000F09FF90020FFF748FD46
:1037A00045F2104009490880102088700320C87035
:1037B00005200871002048718871C87107200872BF
:1037C00000204872FFF701FE10BD00003802002003
:1037D00010B504463348008800F4004070B1002062
:1037E00030490988C1F30E012F4A505411462FA0C9
:1037F00000F094FD14B100202A49088010BD70B576
:10380000044600252748008800F4004068B10020E5
:1038100024490988C1F30E01234A5054FFF7D8FF09
:103820002146214800F036FF0546284670BD2DE9A7
:10383000F04104460E46154600270020194908802D
:1038400021461CA000F06AFDFF2C0AD800BF1C48CE
:10385000008800F040000028F9D01949091D0C80AB
:1038600003E0214611A000F0B8F8C6B1BDB10FE0E9
:103870000A20FFF780F90B48008800F4004038B1B7
:103880003046FFF7BCFF00B106E000200549088084
:10389000681E80B20500EBD100BF05B9012738468C
:1038A000BDE8F081580200205009002025730D0A60
:1038B00000000000B7A2CBCDA3BA25730D0A00000B
:1038C0000048004010B540F225518F48FFF7D2F86C
:1038D00010B38D48FFF74EF8C4B28C48008800F44E
:1038E0000040C8B989480088B0F5806F15DA88486B
:1038F000007850B900218748FEF7B2FE834800885F
:1039000018B901218348FEF717FC80490888411C3B
:103910007E4A118080490C5405E07C48008840F4C0
:1039200000407A49088010BD1CB5044601210820DA
:10393000FDF7CAFE01218804FDF7D3FE7248FEF7A9
:10394000D9FE4FF48060ADF8000003208DF802002E
:1039500018208DF8030069467048FDF793FB4FF47B
:103960000060ADF8000048208DF8030069466B4800
:10397000FDF788FB6A480460002069498880C88098
:10398000088188810C2048815F48FEF7F6FE0121FE
:103990005D48FEF77EFF012240F225515A48FEF7AE
:1039A00084FF27208DF8040002208DF805000320F5
:1039B0008DF8060001208DF8070001A8FDF7A9F990
:1039C00041F61F41632000F0D8F800204F490880DD
:1039D00000215048FEF7B0FB1CBD0FB438B505A858
:1039E00000905048009A049900F086FC0020009056
:1039F0004C4800F061FE85B200240DE000BF40217C
:103A00004148FFF721F80028F9D04648015D3E48BB
:103A1000FEF7ACFF601C84B2AC42EFDB38BC5DF853
:103A200014FB70B505460C46082D2DD2DFE805F0D5
:103A300004090E13181D22274FF496603A490860B6
:103A400022E04FF41660384908601DE04FF49650AC
:103A50003549086018E04FF416503349086013E008
:103A60004FF49640304908600EE04FF416402E495E
:103A7000086009E04FF461402B49086004E04FF40E
:103A8000E1302949086000BF00BF00211E48FEF751
:103A900000FF25480068224908600020C88014B94A
:103AA000888008810FE0012C05D120031C49888003
:103AB0008010088107E0022C05D1E00218498880B7
:103AC0004FF4C060088116490F48FEF756FE0121E9
:103AD0000D48FEF7DEFE70BD10B5044600210A4811
:103AE000FEF7D7FE1CB10C200D49488102E00820EA
:103AF0000B4948810A490448FEF73FFE012102486C
:103B0000FEF7C7FE10BD000000480040580200202C
:103B1000500200200004004050090020000C014029
:103B2000A80F0020500D00205C02002010B50446B4
:103B300000214448FEF794FD42482C3000880020C4
:103B400040492C310880084600882043088010BD79
:103B500010B501213B48FEF7B8FD68B10121394895
:103B6000FEF7C4FD3848008840F40040364908801C
:103B700000213448FEF7E0FA10BD7FB505460C463B
:103B800001210220FDF7ADFDADF80450ADF8004075
:103B90000020ADF80600ADF8020069462948FDF79F
:103BA0006FFF012211462748FEF7E1FA012125485F
:103BB000FEF7C2FA1D208DF80C0000208DF80D00D4
:103BC00002208DF80E0001208DF80F0003A8FDF7EC
:103BD000A0F87FBD7FB505460C4601210420FDF706
:103BE00080FDADF80450ADF800400020ADF80600AF
:103BF000ADF8020069461348FDF742FF0122114665
:103C00001248FEF7B4FA01211048FEF795FA1E207B
:103C10008DF80C0001208DF80D0002208DF80E00AB
:103C200001208DF80F0003A8FDF773F87FBD10B5D4
:103C300001210648FEF749FD18B101210348FEF7AE
:103C400055FD10BD0004004058020020000800404F
:103C500030B589B005460C460121C802FDF734FD98
:103C600001210420FDF730FD4FF48070ADF82000F5
:103C700018208DF8230003208DF8220008A944485D
:103C8000FDF700FA4FF40060ADF8200018208DF821
:103C9000230003208DF8220008A93D48FDF7F2F922
:103CA000ADF81850ADF814400020ADF81A00ADF88A
:103CB000160005A93748FDF7E3FE7020ADF80400B3
:103CC0000120ADF806000020ADF80A00ADF80C00A8
:103CD00001A93048FDF711FF01A92E48FDF7E7FFC4
:103CE00001212C48FEF734FA08212A48FEF754FB3C
:103CF00008212848FEF76FFB01212648FEF71CFB30
:103D000001212448FEF718FA09B030BD7FB50546F9
:103D10000C4601210846FDF7E4FC01218807FEF767
:103D2000E5FCADF80850ADF804400020ADF80A00FD
:103D3000ADF8060001A94FF08040FDF7A1FE012279
:103D400011469007FEF713FA1C208DF800000020A2
:103D50008DF8010003208DF8020001208DF803008A
:103D60006846FCF7D6FF01218807FEF7E5F97FBD1D
:103D700010B501218807FEF7A8FC40B1064800688D
:103D8000401C0549086001218807FEF7AFFC10BD03
:103D900000080140002C014060020020F0B58DB009
:103DA00004463022704901A800F0A5FC6069451E58
:103DB000642195FBF1F12846EA1705EB9272C1EBFD
:103DC000A2014FF4C87295FBF2F28F186069C11717
:103DD00000EB91718910A0EB810191B964226169B6
:103DE00091FBF2F302FB131131B99200616991FB6F
:103DF000F2F302FB131121B92169022901DD012629
:103E000000E0002640F26D1005FB00712069401EA5
:103E100001AA52F820000844E1680844064407203B
:103E200096FBF0F100FB1160A0610DB0F0BD10B584
:103E300001460869801E0861002805DC08690C300D
:103E400008614869401E48616423486990FBF3F0AB
:103E50004A69D31702EB9373C0EBA3004FF4C87405
:103E600092FBF4F3034440F26F14086960430C249E
:103E700090FBF4F01844CB68034440F26D1402FB4D
:103E800004303A4BC01A00EB40008B6803EBC000D3
:103E9000C0EB00104B6803EB8000C0EB00100B6818
:103EA00003EB800010BD2DE9F04107460C46304879
:103EB000B7FBF0F6B7FBF0F100FB11784FF461604F
:103EC00098FBF0F0A0604FF4616098FBF0F100FB0C
:103ED00011803C2190FBF1F060604FF4616098FB31
:103EE000F0F100FB11803C2190FBF1F201FB12008C
:103EF000206040F2B27509E005F0030010B94FF4FC
:103F0000B77001E040F26D10361A6D1C05F0030029
:103F100010B94FF4B77001E040F26D10B042EBDD24
:103F200065616069C11700EB91718910A0EB810197
:103F300011B91D200F494860012505E0681E0D4993
:103F400051F82000361A6D1C681E0A4951F82000ED
:103F5000B042F3DD1C2048602561701CE060204603
:103F6000FFF71CFFBDE8F081AC7B00088BFA0A006C
:103F7000805101007002002008B54FF4C060FCF7CA
:103F8000C3FE03208DF8000001208DF80100002001
:103F90008DF8020001208DF803006846FCF7B9FE99
:103FA00008BD10B501214FF0C050FDF79AFB01206C
:103FB000FDF7C1F9FCF716FF0120FDF70BFB00BF71
:103FC0006120FDF756FA0028FAD04FF40070FDF793
:103FD00004FB0120FDF707FBFDF73FFCFDF734FC78
:103FE00001210846FDF7D4FBFDF72EFC49F63F40C2
:103FF000FDF704FCFDF728FC10BD70B50446FFF783
:10400000D0FFFDF721FC2046FFF7C8FE2046FFF752
:104010000EFFA0F5E1452846FDF7E3FBFDF714FC94
:1040200070BD10B504460420FCF711FF4AF2A551FB
:1040300088420ED046A000F071F94DA000F06EF954
:104040002046FFF7DAFF4AF2A5510420FCF7F3FE01
:104050002AE001214FF0C050FDF743FB0120FDF79E
:104060006AF90120FDF7B6FA00BF6120FDF701FAF9
:104070000028FAD07B20FDF7FCF918B142A000F02F
:104080004DF906E07A20FDF7F4F910B147A000F0F1
:1040900045F94FA000F042F9FDF7DFFB012108468A
:1040A000FDF776FBFDF7D0FBFDF74CFB10BD2DE9CE
:1040B000F04106460C46154606F5E14721463846CE
:1040C000FFF7F1FE6069286020696860E068A86019
:1040D000A068E8606068286120686861BDE8F081D8
:1040E00030B587B004464248C06878B3404800699C
:1040F00008B1012000E000203D49496909B10121D2
:1041000000E00021084008B31C223A49684600F04C
:10411000F2FA374840690090354800690190344808
:10412000C0680290FFF728FF6846FFF77AFF324821
:104130000068012809D1FDF74BFB05462246694678
:10414000FFF7B5FF00202C49086000BF07B030BD65
:104150000D0A0D0A20525443206E6F742079657445
:1041600020636F6E666967757265642E2E2E2E0051
:104170000D0A0D0A2052544320636F6E66696775FD
:104180007265642E2E2E2E000D0A0D0A20506F77B8
:104190006572204F6E205265736574206F6363757E
:1041A000727265642E2E2E2E000000000D0A0D0A7C
:1041B0002045787465726E616C2052657365742059
:1041C0006F636375727265642E2E2E2E00000000E0
:1041D0000D0A204E6F206E65656420746F20636F3A
:1041E0006E666967757265205254432E2E2E2E001E
:1041F00018020020DC7B0008A002002010B5024657
:10420000104600E0401C03782C2BFBD100E0401C42
:1042100003783A2BFBD1401C401C0378312B02D190
:1042200001234B6001E000234B6000E0401C037859
:104230003A2BFBD1401C401C0378302B01D10023CA
:104240008B600378303B03EB83035B008B60401C87
:104250000378303B8C6823448B608B680A2B06D133
:10426000431C18461B78302B01D164238B6010BD92
:1042700010B50246104600E0401C03782C2BFBD101
:1042800000E0401C03783A2BFBD1401C401C037813
:10429000303B03EB83035B00CB60401C0378303B77
:1042A000CC682344CB6000E0401C03783A2BFBD160
:1042B000401C401C0378303B03EB83035B000B6125
:1042C000401C0378303B0C6923440B6100E0401C28
:1042D00003783A2BFBD1401C401C0378303B03EBA6
:1042E00083035B004B61401C0378303B4C692344E3
:1042F0004B6110BD704700001CB50C46064B7B445B
:1043000069460090204600F0FAFA0446002069460B
:1043100000F008FB20461CBD230600000FB4044932
:1043200010B503AA029800F019FB10BC5DF814FB4D
:10433000B80100200FB41CB5084B06AA7B4469469F
:104340000090059800F0DBFA04460020694600F072
:10435000E9FA20461CBC5DF814FB0000E5050000EE
:1043600070B5044685690068C10601D5302600E0B5
:104370002026C00707D070BDD4E901213046904700
:10438000206A401C20626D1EF6D570BD70B50446D3
:1043900085690078C00707D170BDD4E901212020CC
:1043A0009047206A401C20626D1EF6D570BD70B526
:1043B0000C460546012A05D02878800600D5EA6912
:1043C000002302E0012305E05B1C934202D2E05C83
:1043D0000028F9D1A869E618C01AA861286A18440B
:1043E00028622846FFF7BCFF04E0D5E9012114F854
:1043F000010B9047B442F8D32846FFF7C7FF70BDC2
:104400002DE9F0410646002410687529314616A5AD
:1044100010D000F0EFF9002802DA404213A507E0BF
:1044200031688A0701D512A502E0490704D511A514
:10443000012401E000F0E7F900210A2206F1240737
:1044400009E0B0FBF2FCB0FBF2F302FB1C003030E1
:1044500078541846491C0028F3D123462A46304692
:10446000BDE8F04100F0D8B9000000002D000000C8
:104470002B00000020000000F0B40D460188090563
:1044800002D5214C7C4402E01F4C7C440E340021B8
:1044900000F1240608E002F00F071209E75D42EA86
:1044A00003721B097754491C52EA0307F3D10278BF
:1044B0000023120704D5702D06D009B10223113450
:1044C0002246F0BC00F0A8B901231034F8E770B51B
:1044D00004460D462146106800F095F9024629462B
:1044E0002046BDE870400023C6E7D21D22F0070336
:1044F000D3E90023C0E70368126843F02003036098
:104500000823C3610023B7E7703700002DE9F05F8F
:10451000894604464FF0000ADFF874B1FB44C0F846
:1045200020A02046E1688847002874D0252806D0BE
:10453000D4E901219047206A401C2062F1E700265F
:104540005F462046E16888472028054607DB312D75
:1045500005D2781910F8200C08B10643F1E7B0072E
:1045600001D526F00406C4F81CA00027C4F818A042
:104570002A2D09D0284601F0DAFB38B304EB87086E
:10458000303DC8F8185019E059F8041B204604EBD8
:1045900087029161E1688847012F054618D1E069DB
:1045A000002820DA26F020061DE0D8F8180000EBDD
:1045B000800005EB40003038C8F818002046E1685C
:1045C0008847054601F0B3FB0028EED1012F0AD041
:1045D0002E2D08D12046E16888477F1C0546022F12
:1045E00046F02006C4DBA069002803DA404246F00A
:1045F0000106A061F00701D026F010066C2D0BD04B
:10460000682D09D04C2D39D06A2D35D0742D35D078
:104610007A2D33D016E038E0E1682F4620468847EF
:10462000B842054609D16C2F26D04FF48060E1686E
:10463000064320468847054604E06C2F1AD04FF405
:10464000807006430DB3A5F14100192802D820352A
:1046500046F400664A462946204626604E46FBF749
:10466000C1FD80B101280BD0F61D26F0070000F136
:10467000080956E74020E4E78020D8E70020D6E785
:1046800006F104094DE7284652E7206ABDE8F09F8D
:104690000037000030B505460B462A4613F8014B9B
:1046A00012F8010B08B1A042F8D01CB1002802D0CA
:1046B0006D1CF1E7284630BD10B5431C02E010F830
:1046C000011B71B18107FAD14FF0013202C88C1A77
:1046D0008C4314EAC211F9D0C01A0A0603D0C01ED6
:1046E00010BDC01A10BD0A0401D0801E10BD090201
:1046F000FCD0401E10BD10B5203AC0F00B80B1E8D0
:104700001850203AA0E81850B1E81850A0E8185006
:10471000BFF4F5AF5FEA027C24BFB1E81850A0E80F
:10472000185044BF18C918C0BDE810405FEA827C29
:1047300024BF51F8043B40F8043B08BF7047D20740
:1047400028BF31F8023B48BF11F8012B28BF20F8E1
:10475000023B48BF00F8012B70474FF000020429CC
:10476000C0F0128010F0030C00F01B80CCF1040CA0
:10477000BCF1020F18BF00F8012BA8BF20F8022BD4
:10478000A1EB0C0100F00DB85FEAC17C24BF00F87A
:10479000012B00F8012B48BF00F8012B70474FF0A8
:1047A000000200B5134694469646203922BFA0E881
:1047B0000C50A0E80C50B1F12001BFF4F7AF09078D
:1047C00028BFA0E80C5048BF0CC05DF804EB89007E
:1047D00028BF40F8042B08BF704748BF20F8022BC1
:1047E00011F0804F18BF00F8012B704770477047D9
:1047F0007047704709684A0501D540B27047C9053E
:10480000FCD500B2704709684A0501D5C0B27047AF
:10481000C905FCD580B270472DE9F0470D46994691
:104820009246044600F124080168880604D5E06930
:1048300021F01001216000E00120A84201DD471BAA
:1048400000E00027A1697A1902EB0900081AA061AB
:104850002078C00602D42046FFF782FD002608E03B
:10486000D4E901211AF806009047206A401C761C02
:1048700020624E45F4DB2078C0060AD52046FFF7BB
:104880006FFD06E0D4E9012130209047206A401CEA
:104890002062381EA7F10107F4DC07E0D4E901210A
:1048A00018F805009047206A401C2062281EA5F1D8
:1048B0000105F3DC2046FFF769FD2078000602D5EC
:1048C0000220BDE8F0870120FBE711680268006A5A
:1048D000530501D508700AE0D30501D5088006E02C
:1048E000130603D5C217C1E9000200E008600120E9
:1048F0007047000001694A1C02610878704700B5E2
:104900008FB0CDE901310021059105497944CDE908
:10491000031011466846FFF7F9FD0FB000BD000017
:10492000E5FFFFFF0A6802F8010B0A60704710B547
:10493000436913B1AFF3008001E0FFF738FD0120B8
:1049400010BD127800F124010A7000224A70012281
:10495000EDE711684FF0FF32E9E70000074B70B553
:104960000D467B44FFF7CBFF0446284600F0C2FC0F
:1049700010B14FF0FF3070BD204670BD6FE2FFFFF9
:104980002DE9FF5F15468A460446DFF8AC80F844FF
:104990000027D8E900103E46CDE9001010E03AF8B3
:1049A00016106A4602A800F0A9FC411C07D0217825
:1049B000890603D5E269391891420DD80744761C5F
:1049C0002078800602D5E069B84205DDAE42E6DB1C
:1049D0003AF816000028E2D1A069C01BA061204669
:1049E000FFF7BEFCD8E90010CDE90010002017E069
:1049F0003AF818106A4602A800F080FCB0F1FF3FB8
:104A000081460BD000250DF1080B05E0D4E901210A
:104A10001BF8050090476D1C4D45F7D308F10100C8
:104A2000B0428046E4DB206A384420622046FFF72B
:104A3000ADFCBDE8FF9F0000A23200002DE9F0416F
:104A40008046D21D22F007020025D2E90002F52996
:104A500015A614D0011E72F1000106DA0023D0EB76
:104A6000030063EB020211A608E0D8F800108B07E0
:104A700001D50FA602E0490701D50EA60125114672
:104A8000002408F1240704E000F04EF830323A55D3
:104A9000641C50EA0102F7D12B46324621464046BB
:104AA000BDE8F041FFF7B8BE000000002D00000097
:104AB0002B0000002000000030B4002100F124048D
:104AC00008E002F00705D208303542EA4372DB08FD
:104AD0006554491C52EA0305F3D10468002310A26F
:104AE000250708D504F020040C4304D0C469012331
:104AF0000CA2641EC46130BCFFF78EBE10B5044624
:104B000021461068FFF77FFE02462046BDE81040B0
:104B10000023D1E7D21D22F00701D1E90023CBE722
:104B2000000000003000000030B5B0F10A024FEA8A
:104B3000900E71F100034EEA817EB0EB0E0061EB46
:104B400091014FEA101E4EEA017E10EB0E0041EB80
:104B500011114FEA102E4EEA016E10EB0E0041EBE0
:104B600011214FEA104E4EEA014E10EB0E0041EBC0
:104B70001141401841F100014FEAD00040EA417074
:104B80004FEAD10110EB80054FEA810444EA9074AA
:104B900044EB01046D1944EB0404521BA3414FF094
:104BA000000348BF0A3200D530BD401C41F100016E
:104BB00030BD70472DE9FF4F0C461E464FF0FF37C2
:104BC0008BB0D2E90001DDF860800A908A46C1F31B
:104BD0000A5505B93D46002108464FF00000BAF1DC
:104BE000000F00F4400005DA00EB80004FF44001B4
:104BF00001EA50004FEA9059B9F1010F00DDB946C2
:104C00000A9850EA4A000ED044F61050A5F2FF353B
:104C100045432F14B8F1000F1ED07542291E1EDD2A
:104C2000C9F100021CE0B8F1010F4FF0000001D003
:104C3000302103E0F24305E02154401CB042FBDB8D
:104C400030460022002121540B99C1F80880C1E9A7
:104C500000200FB0BDE8F08FBD1B6D1CDEE74A469B
:104C600000DA694206A800F0DBFB06AB93E8070018
:104C700003AB83E8070050460A9900F089FC8DE8F1
:104C80000700A0F500501F3800900398002D09DDA3
:104C900042F21F014A46084403A90390684600F007
:104CA000E8FE08E0A0F500504A461F3803A903902B
:104CB000684600F0F2FE8DE807000004000C03D007
:104CC0004FF0FF30410800E01046B8F1000F03D06C
:104CD0000022009215461EE0751E05D4FFF724FF42
:104CE000303262556D1EF9D5B3460122084302D019
:104CF00000227F1C04E02078302801D100227F1E92
:104D0000002A099786D01DE0112D07DAFFF70CFF66
:104D1000303262556D1C50EA0102F5D1084302D0D1
:104D20000098C8B10EE00021681E05E0235C625CBB
:104D300063542254401E491C8142F7DBAB46A81B3A
:104D4000401E0990002004F80B000B98099AC0F847
:104D50000880C0E9002B7CE711264FF0000859E7D6
:104D60002DE9F04F88460446D21D22F0070191B08C
:104D7000D1E90001CDE90A0100F0C5FF02460B9818
:104D8000C00F01D02D2007E02068810701D52B201E
:104D900002E0202101EAC000032A099001D0072A7D
:104DA00005DB03464146204600F0FAFA0BE1207885
:104DB000800601D5E06900E00620B8F1650F814664
:104DC00006D0B8F1660F18D0B8F1670F70D131E096
:104DD0000020B9F1110F009001DB112301E009F16E
:104DE00001030AAA01A90CA8FFF7E4FEDDE90C7093
:104DF000002609F10105834647E001204B4600905B
:104E00004FF000470AAA01A90CA8FFF7D3FEDDE97D
:104E10000DB00C995D46002610B909F101000D187E
:104E2000B9EB050003D4C0F1FF3609F10105A5EB8C
:104E300009002BE0B9F1010F01DA4FF00109002060
:104E4000B9F1110F0090484601DD112300E003463F
:104E50000AAA01A90CA8FFF7ADFEDDE90C704D46CA
:104E600000268346207800070AD4AB4500DA5D4669
:104E700001A8012D04DD411911F8011C302907D0CA
:104E80004F4502DA17F1040F04DA012082460FE0E1
:104E90006D1EEEE7002F02DCED1B3E4403E0781CA4
:104EA000A84200DD7D1CB81B00F1010A4FF000474D
:104EB0002078000703D4AA4501DB4FF0FF3A002118
:104EC000B7F1004F0DF143088DF8431024D00220B4
:104ED0002B23002F01DA7F422D230A21021EA0F18D
:104EE000010000DC5FB197FBF1FC97FBF1F201FBE5
:104EF0001C7C17460CF1300C08F801CDEEE7A8F148
:104F0000010003702188090501D5452100E06521D4
:104F1000A0F1010800F8011C09980FA9A1EB0807EE
:104F2000FF1D00B10120411901EBEA70A16938446D
:104F3000081A401EA0612078C00602D42046FFF760
:104F40000FFA099828B1D4E901219047206A401C42
:104F500020622078C00622D52046FFF701FA1EE025
:104F6000002E04DBB34502DD01A8805D00E03020A7
:104F7000D4E901219047206A401C2062761CAAF1E6
:104F800001005FEA000A0AD100F006FAC068016871
:104F9000405CD4E901219047206A401C2062281E11
:104FA000A5F10105DCDC07E0D4E9012118F8010BCB
:104FB0009047206A401C2062381EA7F10107F3DCED
:104FC0002046FFF7E3F9032011B043E62DE9F04F47
:104FD00004460D46D21D22F0070089B0D0E90092A8
:104FE00048461746394600F08EFE0246F80F01D0BB
:104FF0002D2307E02068810701D52B2302E0202123
:1050000001EAC0038DF820300BB1012000E0002040
:10501000032A824601D0072A04DB2946204600F0F5
:10502000BFF93DE12078800601D40D2500E0E56957
:10503000C7F30A560D2D49DA00214FEA175B0846DF
:105040004FF00000002F00F4400007DA00EB800072
:105050004FF4400100EBD07001EA60008115012996
:1050600001DD4FF0FF3100224FEA850CBCF1180F33
:1050700006D31346ACF118004FF08052C24003E053
:105080004FF4801323FA0CF30CF10C0CBCF1200F3D
:1050900004D3ACF1200C09FA0CF001E007FA0CF093
:1050A00000294FF0004801DD18B90FE00ED140454E
:1050B0000CD319EB02095F4121B9404502D19F434E
:1050C00029EA0209BBEB175F00D0761C2088000597
:1050D00002D57B48784402E079487844193808AA18
:1050E000302302F80A30037C0AF10101002E0AF194
:1050F000020A53546A4602DC4FF0300101E04FF0DF
:1051000031014FF001088DF8001002D0A6F2FF36F1
:1051100003E059EA470100D06A4E002D02DC2178F5
:10512000090704D54FF002082E218DF80110C4465E
:1051300000210BE0C7F303433F01C35C491C6D1E14
:1051400002F80830052908F1010801DA002DF1DC28
:1051500000210CE000EB1973491C1B786D1E082917
:1051600002F808304FEA091908F1010801DA002DA8
:10517000F0DC2178890602D514E0A8F10108E045A9
:1051800005DD02EB080111F8011C3029F5D0B8F15A
:10519000000F07DD02EB080111F8011C2E2901D1D7
:1051A000A8F10108002D05DD3E2102F808106D1E52
:1051B00008F10108407C002E02F8080008F10108FF
:1051C00004DA2D20764202F8080002E02B2002F8D3
:1051D00008000A214FF47A70864208F101080BDBBF
:1051E00096FBF0F3303302F8083096FBF0F308F149
:1051F000010800FB136601E0642E0CDB642096FBC3
:10520000F0F3303302F8083096FBF0F308F10108B0
:1052100000FB136601E00A2E06DB96FBF1F030304E
:1052200002F8080008F1010896FBF1F001FB10609C
:10523000303002F80800A16908F1010808EB050206
:1052400002EB0A00081AA0612078C00602D42046AA
:10525000FFF786F8216A08AE01EB0A00206204E03D
:10526000D4E9012116F8010B9047BAF1010AF7D2EF
:105270002078C00602D52046FFF772F86E4609E096
:1052800016F8010B3E280FD0D4E901219047206A7F
:10529000401C2062B8F10108F2D22046FFF776F8F0
:1052A00009B00320BDE8F08F206A2844206203E0A3
:1052B000D4E90121302090476D1EEBD3F8E70000C0
:1052C000772B000002FCFFFF10B5436913B1AFF369
:1052D000008001E0FFF754FB012010BD128800F1AF
:1052E000240182840022C2840122EDE711684FF07C
:1052F000FF32E9E7007B00F08000704770B516468A
:105300000C46054600F040F8036893F801010128B7
:1053100006D0FF2C0FD8185D68B101202C7070BD2D
:10532000D3F807013246214603F207130344284607
:10533000BDE8704018474FF0FF3070BD754600F073
:10534000E3F8AE4605006946534620F0070085465F
:1053500018B020B5FAF7BEFFBDE820404FF00006B8
:105360004FF000074FF000084FF0000B21F007014D
:10537000AC46ACE8C009ACE8C009ACE8C009ACE890
:10538000C0098D467047000010B500F005F8001DFB
:1053900010BD00BFD509000000487047D80F00209D
:1053A0002DE9F0411F46044603260168072A01F44F
:1053B000006004DB08B116A505E016A503E008B1FE
:1053C00015A500E015A521F010002060A069C01E01
:1053D000A0610FB1401EA0612046FEF7C1FF4FB192
:1053E000D4E9012138469047206A401C2062C01C45
:1053F000206206E0206AFAE7D4E9012115F8010BE2
:105400009047761EF8D22046FEF7C0FFBDE8F08137
:105410004E414E006E616E00494E4600696E660058
:105420002DE9F047814616468AB0334878440DC8C6
:105430008DE80D0030487844801C03AC0DC884E82A
:105440000D0041F69B300844372190FBF1F290FBB0
:10545000F1F5A5F1800501FB12041B3C02D5644265
:10546000012000E00020DFF890A080460027FA44E9
:10547000AAF1BE0A0DE0E00709D03246684607EB04
:1054800047010AEB810100F008FB8DE8070064107A
:105490007F1C002CEFD1184F7F44AC3F18E0E80789
:1054A00014D007EB04100DF1180A90E80E008AE8FA
:1054B0000E00C068F04201D198190890324606A942
:1054C00003A800F0EAFA03AB83E807006D10641C40
:1054D000002DE4D132466946B8F1000F03A802D08E
:1054E00000F0C7FA01E000F0D8FAC9E90001C9F8F4
:1054F00008200AB0BDE8F087B02800000446AFF3EA
:1055000000802046FAF7D1FE00487047B80F00200F
:105510004FF0013C50F8042B51F8043B9A4221D142
:10552000A2EB0C03934313EACC1317D150F8042BCE
:1055300051F8043B9A4215D1A2EB0C03934313EAB2
:10554000CC130BD150F8042B51F8043B9A4209D1EB
:10555000A2EB0C03934313EACC13DBD04FF0000013
:10556000704700BFD01A01BAB1FA81F101F01801F9
:1055700022FA01F0CB40C1F12001DBB2C0B2C01A67
:105580002CFA01F3D11A914311EAC311E6D1704705
:105590005FEA400C08BF91F0000F4FEA8C234FEAFE
:1055A000C12243EA51514FEA1C5018BF00F5F040A8
:1055B0004FEA300018BF41F000415FEA6C5C00F038
:1055C0002980BCF1FF3F08BF40F080407047130CBA
:1055D00006BF12044FF0100C4FF0000C130E04BF66
:1055E00012020CF1080C130F04BF12010CF1040C91
:1055F000930F04BF92000CF1020CD30F04BF5200B2
:105600000CF1010C11464FF00002A0F11F00A0EBBD
:105610000C00704711F0004F08BF704731F0004197
:105620003FF4D5AF0B0C06BF09044FF0100C4FF040
:10563000000C0B0E04BF09020CF1080C0B0F04BF89
:1056400009010CF1040C8B0F04BF89000CF1020C52
:10565000CB0F04BF49000CF1010CCCF12003A0EBEF
:105660000C0022FA03F302FA0CF241EA030100F102
:105670000100704720F07F4C80EA030023F07F4751
:10568000ACEB070303F57C5300F0004003F1FF038C
:105690002DE980494FEA154B09B44FEA144325EA36
:1056A0000B4E24EA03480FF2042606EB13274908A1
:1056B0003E785FEA320203FB0667C7F5000707FB87
:1056C00006F64FEA54374FEAD64606F1020607FBC4
:1056D000066CCCF1005C4FEA1C472CEA074C07FB38
:1056E00006F40CFB06F504EB15464FEA961634BF9C
:1056F00000204FF000404FEAD13706FB07FC4FEA8D
:105700001C4C0CFB0BF7D21B03FB0CF761EB0701E6
:105710000CFB0EF7B0EB074072EB17420CFB08F7DF
:1057200034BFA2EB0742B2EB074261EB17414FEAED
:105730000C444FEA910706FB07FC4FEA1C4C0CFB9C
:105740000BF7B0EBC74072EB573203FB0CF734BFDB
:10575000A2EBC742B2EBC74261EB57310CFB0EF72D
:10576000B0EBC70072EB57720CFB08F734BFA2EB2B
:10577000C702B2EBC70261EB5771039F4FEA816129
:1057800041EA921104EBCC044FEAD1374FEA82622E
:1057900006FB07FC42EA90124FEA80604FEA1C4C7D
:1057A0000CFB0BF7D21B03FB0CF761EB07010CFBA7
:1057B0000EF7B0EB074072EB17420CFB08F734BF53
:1057C000A2EB0742B2EB074261EB17414FEA8C555F
:1057D0004FEA910704EB9C2406FB07FC4FEA1C4CA4
:1057E0000CFB0BF7B0EBC74072EB573203FB0CF727
:1057F00034BFA2EBC742B2EBC74261EB57310CFB9F
:105800000EF7B0EBC70072EB57720CFB08F734BF12
:10581000A2EBC702B2EBC70261EB577115EB4C2547
:105820004FEA816141EA92114FEA82624FEAD13731
:1058300042EA901206FB07FC44F100044FEA806044
:105840004FEA1C4C0CFB0BF7D21B03FB0CF761EB74
:1058500007010CFB0EF7B0EB074072EB17420CFB95
:1058600008F734BFA2EB0742B2EB074261EB1741E6
:1058700015EB1C154FEA813141EA92414FEA823221
:1058800042EA90424FEA80304FEA0C7644F100043D
:1058900048EA03434EEA0B484FF0000EB2EB080C07
:1058A00071EB030724BF624639464EEB0E0E4FF0F4
:1058B000000B0018524149414BEB0B0BB2EB080CAB
:1058C00071EB03077BF1000B24BF624639464EEBB8
:1058D0000E0E4FF0000B0018524149414BEB0B0BE1
:1058E000B2EB080C71EB03077BF1000B24BF62469F
:1058F00039464EEB0E0E51EA020718BF46F001067C
:1059000016EB0E7655F1000254F1000103D5BDE807
:105910008901BDE80088BDE88901BDE80048B619E5
:10592000524141EB0101A3F10103704780807F7E6A
:105930007D7C7B7A79787776767574737271717005
:105940006F6E6E6D6C6C6B6A6A69686867666665B7
:105950006464636362616160605F5F5E5E5D5D5C45
:105960005C5B5B5A5A5959585857575656555555B6
:105970005454535352525251515050504F4F4F4E16
:105980004E4D4D4D4C4C4C4B4B4B4A4A4A49494964
:1059900048484847474747464646454545444444A6
:1059A000444343434342424242414141002B26D4B7
:1059B000770021D01CB54FEA370703B44FF0100031
:1059C0004FF010014FF000000FBCBDE810400BF18C
:1059D000010BBBF1010F08BF5FEA170722BF12F1ED
:1059E000010211F101014FF0004143F1000300F009
:1059F000004043EA00007047F9D35708DAE746EA67
:105A0000064613F1400F4FEA16461FDD13F1200F33
:105A1000DFBF16430A46002120335B42C8D0C3F1E2
:105A2000200746EA064602FA07F74FEA164646EA14
:105A30000706C3F1200722FA03F201FA07F721FA59
:105A400003F14FF0000342EA0702B1E746EA02061B
:105A500046EA06464FEA164646EA0106BCBF46EA53
:105A60000646360C4FF000034FF000024FF00001E5
:105A70009EE72DE9C048934630B491E8380007C846
:105A800031EA400C48BF34EA430C03D5FFF7F2FD7E
:105A9000FFF78CFFF0BCBDE800882DE9C0489346B5
:105AA00030B491E8380007C810F0804F08BF13F0F9
:105AB000804F03D100F005F8FFF778FFF0BCBDE898
:105AC000008820F07F4780EA030023F07F4C07EB3B
:105AD0000C03A3F57C5300F00040A3F1FE0392F009
