:020000040800F2
:1000000098150020B9020008693000086B3000081C
:100010006F300008733000087730000800000000DF
:100020000000000000000000000000007B3000081D
:100030007D300008000000007F300008813000089B
:10004000D3020008D3020008D3020008833000085E
:10005000D3020008D3020008D3020008D30200082C
:10006000D3020008D30200083D380008D30200087C
:10007000D3020008D3020008D3020008D30200080C
:10008000D3020008D3020008D3020008D3020008FC
:10009000D3020008D3020008D3020008D3020008EC
:1000A000D3020008D3020008D3020008D3020008DC
:1000B000DD430008D9400008B7410008D30200081A
:1000C000D3020008D3020008D3020008D3020008BC
:1000D000D3020008DD2F0008D30200084D3E0008BF
:1000E000D3020008D3020008D3020008D30200089C
:1000F000D3020008D3020008D3020008D30200088C
:10010000D3020008D3020008D3020008D30200087B
:10011000D3020008D3020008D3020008D30200086B
:10012000D3020008D3020008D3020008D30200085B
:1001300000F002F800F0B0F80AA090E8000C824449
:100140008344AAF10107DA4501D100F0A5F8AFF226
:10015000090EBAE80F0013F0010F18BFFB1A43F0A5
:100160000103184700860000208600000A444FF073
:10017000000C10F8013B13F0070408BF10F8014B06
:100180001D1108BF10F8015B641E05D010F8016B4B
:10019000641E01F8016BF9D113F0080F1EBF10F8AF
:1001A000014BAD1C0C1B09D16D1E58BF01F801CBD2
:1001B000FAD505E014F8016B01F8016B6D1EF9D555
:1001C0009142D6D37047000000230024002500266A
:1001D000103A28BF78C1FBD8520728BF30C148BFAA
:1001E0000B6070476E2904F00284702904F0478286
:1001F000662906F0B782652906F0B482672906F001
:10020000B182612906F0B08203681B0A28BF41F061
:100210008001692904F0B881642904F0B581752949
:1002200004F0B2816F2904F0FB84782904F0138272
:10023000E92904F09584E42904F09284F52904F076
:100240008F84EF2904F0F884F82904F012820368FF
:10025000DB0928BF41F08001632904F0048473297D
:1002600004F00984E32905F0CB80F32905F0D08060
:10027000002070471FB505F021F90400002000217F
:1002800005F004FE401C60600020002105F0E8FD40
:10029000E0601FBD10B510BD05F0E2F81146FFF794
:1002A000E9FF02F0EFFF05F0BBF903B4FFF7F2FF3F
:1002B00003BC02F039FE00000948804709480047A6
:1002C000FEE7FEE7FEE7FEE7FEE7FEE7FEE7FEE706
:1002D000FEE7FEE704480549054A064B7047000063
:1002E0008331000831010008980F00209815002084
:1002F000981100209811002000200CE0302106E029
:100300000022F94B03EBC1031A544A1CD1B28029D5
:10031000F6DB421CD0B20228F0DB7047032000BF9E
:100320000100A0F10102D0B2FAD1704710B54FF42C
:100330000071EE4801F067F94FF48071EB4801F06D
:1003400060F9FFF7EBFF4FF40071E84801F059F94D
:1003500010BD10B54FF40071E44801F052F9FFF7F9
:10036000DDFF4FF48071E14801F04BF9FFF7D6FF54
:100370004FF48071DD4801F046F9FFF7CFFF10BD63
:1003800070B5044600251FE004F0800028B14FF44A
:100390000071D64801F035F904E04FF40071D348FC
:1003A00001F031F9FFF7BAFF4FF48071CF4801F047
:1003B00028F9FFF7B3FF4FF48071CC4801F023F91F
:1003C0006006040E681CC5B2082DDDDB70BD10B5DB
:1003D0004FF40071C54801F014F94FF48071C3481F
:1003E00001F00FF9FFF79AFF4FF40071BF4801F0D9
:1003F0000AF9FFF793FF4FF48071BC4801F003F94D
:10040000FFF78CFF10BD70B505460C46FFF7DFFF08
:100410007820FFF7B5FFFFF79CFF1CB14020FFF7E6
:10042000AFFF02E00020FFF7ABFFFFF792FF284687
:10043000FFF7A6FFFFF78DFFFFF778FF70BD70B5E0
:1004400000242BE004F1B001C8B20021FFF7DBFF6C
:1004500000210846FFF7D7FF00211020FFF7D3FF48
:10046000FFF7B5FF7820FFF78BFFFFF772FF402003
:10047000FFF786FFFFF76DFF002509E09A4901EBC2
:10048000C501085DFFF77CFFFFF763FF681CC5B27D
:10049000802DF3DBFFF74AFF601CC4B2082CD1DBD0
:1004A00070BDF0B514460B46CF1701EB5777C7F375
:1004B000C702CF1701EB5777FF10A1EBC707FEB2BA
:1004C0000123B340DDB24CB1874B03EBC0039B5C0F
:1004D0002B43854F07EBC007BB541AE0824B03EB5D
:1004E000C0039B5CDB43804F07EBC007BB547E4BD4
:1004F00003EBC0039B5C2B437B4F07EBC007BB5454
:10050000794B03EBC0039B5CDB43774F07EBC007E2
:10051000BB54F0BD2DE9FE4F0746884692461C4667
:100520000197CDF80080082C02D14FF006091FE09A
:100530002046E31704EB5373DB1021464FEAE47CBB
:1005400004EB5C7C4FEAEC0CA4EBCC0CBCF1000F90
:1005500002D04FF0010C01E04FF0000C6344224642
:1005600004EBD27C4FEA6C0C03FB0CF303F0FF09A5
:10057000AAF12000C6B200255EE0082C07D106EBE8
:1005800046005B4901EB400010F805B01DE00C2C63
:1005900007D106EB4600574901EB800010F805B083
:1005A00013E0102C05D1544800EB061010F805B0EC
:1005B0000BE0182C07D106EBC600504901EB800078
:1005C00010F805B001E0BDE8FE8F002002901CE0AD
:1005D0000BF0010028B1414638460C9AFFF761FF45
:1005E00009E00C9808B9012000E0002002464146CD
:1005F0003846FFF756FF4FEA6B0B08F1010000F099
:10060000FF080298401CC0B2029002980828DFDB65
:10061000781CC7B2082C0BD004EBD4714A10019996
:10062000791A8A4204D1019F00980830C0B2009024
:10063000DDF80080681CC5B24D459EDB00BFC2E7F7
:100640002DE9F84106460F4614461D46DDF81C808C
:1006500013E0CDF8008022782B4639463046FFF76C
:1006600059FF082D02D1B01DC6B205E0284605EBA2
:10067000D07106EB6101CEB2641C2078202802DB29
:1006800020787E28E5DDBDE8F8812DE9FC4F07469E
:10069000884616461C46BB46CDF804802046E21725
:1006A00004EB5272D2102146E31704EB5373DB10B4
:1006B000A4EBC3030BB1012300E000231A446243FF
:1006C00092B20092002561E0102C05D10C4800EB9D
:1006D000461010F805A027E0182C13D1084800EBAD
:1006E000461010F805A01FE0BC020020000C0140DD
:1006F0006C67000894690008086E0008F873000829
:1007000000000020202C05D1FD4800EB461010F819
:1007100005A009E0402C05D1F94800EB461010F87F
:1007200005A001E0BDE8FC8F4FF000091CE00AF0D5
:10073000010028B1414638460B9AFFF7B2FE09E0A6
:100740000B9808B9012000E00020024641463846D7
:10075000FFF7A7FE4FEA6A0A08F1010000F0FF0860
:1007600009F1010000F0FF09B9F1080FDFDB781C87
:10077000C7B2A7EB0B00A04204D15F460198083036
:10078000C0B20190DDF80480681C85B200988542F3
:100790009ADB00BFC6E7F8B504460D4617461E466D
:1007A000012010230422002100900846FFF76DFF6E
:1007B000012010230522002100901846FFF765FF55
:1007C000012010230822194600900020FFF75DFF4A
:1007D000012010230922194600901846FFF755FF03
:1007E000012010230A22194600902020FFF74DFF18
:1007F000012010230B22194600903020FFF745FFFF
:10080000012010230022202100901046FFF73DFF19
:10081000012010230246202100901846FFF735FFE3
:10082000012010230222302100900020FFF72DFF2D
:10083000012010230322302100901846FFF725FFE6
:10084000012010232246002100902020FFF7F8FE0F
:10085000012010232A46194600904020FFF7F0FEA1
:10086000012010233A46202100900846FFF7E8FEB9
:10087000012010233246302100902020FFF7E0FEB7
:10088000FFF7DDFDFFF738FDF8BD10B504461CB9D4
:100890000021A620FFF7B7FD012C03D10021A720DE
:1008A000FFF7B1FD10BD10B504463CB90021C820CA
:1008B000FFF7A9FD0021A120FFF7A5FD012C07D11D
:1008C0000021C020FFF79FFD0021A020FFF79BFD26
:1008D00010BD10B500218D20FFF795FD00211420DB
:1008E000FFF791FD0021AF20FFF78DFD10BD10B582
:1008F00000218D20FFF787FD00211020FFF783FDE9
:100900000021AE20FFF77FFD10BD2DE9FF4F84B021
:1009100081468A460020029083460698A0EB09048F
:100920000798A0EB0A06CDF80490CDF800A0002CA3
:1009300001DD012705E00CB9002702E04FF0FF3789
:100940006442002E02DD4FF0010806E016B94FF0B8
:10095000000802E04FF0FF386642B44201DD254650
:1009600000E03546002003901EE0009AD1B2019AC3
:10097000D0B2119AFFF795FD029820440290B3443B
:100980000298A84205DD0298401B02900198384465
:100990000190AB4504DDABEB050B009840440090A3
:1009A0000398401C80B20390691C03988842DCDBEA
:1009B00008B0BDE8F08F2DE9F04306460F4690469B
:1009C0000025444643E03A1BD1B27219D0B201224D
:1009D000FFF767FD3A1BD1B2721BD0B20122FFF7BD
:1009E00060FD3A19D1B2721BD0B20122FFF759FD56
:1009F0003A19D1B27219D0B20122FFF752FD7A1919
:100A0000D1B23219D0B20122FFF74BFD7A1BD1B21D
:100A10003219D0B20122FFF744FD7A1BD1B2321B4A
:100A2000D0B20122FFF73DFD7A19D1B2321BD0B20C
:100A30000122FFF736FD6D1C05FB05F004FB0400E9
:100A400008FB1809B9F1000F01DD641E6D1E60007E
:100A5000604308FB08F18842B5DABDE8F08310B5C1
:100A60000246012000E050430B00A1F10104E1B275
:100A7000F9D110BD2DE9FF4F82B0064691461F46C1
:100A8000DDE90F4A4FF0000B082C01D14FF0020BAB
:100A9000002530E0781B401EC1B20A20FFF7DFFFBF
:100AA000B9FBF0F00A21B0FBF1F201FB1208B8F13A
:100AB000000F0ED104EBD4710BEB610101FB05615A
:100AC000C8B223463022CDE900A40399FFF722FDE6
:100AD0000FE004EBD4710BEB610101FB0561C8B2BF
:100AE00008F13001CAB22346CDE900A40399FFF70B
:100AF00011FD681CC5B2BD42CCDB06B0BDE8F08F6D
:100B00000000002008B5804689469246002600274E
:100B10004BE04FB91023324618218020CDF800A0B9
:100B2000FFF7B3FD701CC6B2464522D14FF0000B53
:100B30001AE0012410E000250AE0974800EBC40009
:100B4000415D601E944A02EBC0004155681CC5B26D
:100B5000082DF2DB601CC4B2902CECDBFFF76FFCBD
:100B60000BF1010000F0FF0B4FEA09105845E0DCE3
:100B70000026781CC7B2102F00D10027012410E0F6
:100B800000250AE0844800EBC400415D601E824AF3
:100B900002EBC0004155681CC5B2082DF2DB601C99
:100BA000C4B2902CECDBFFF74AFCB2E72DE9FF4F13
:100BB00005460E4617461C46DDF838904FF0000AF1
:100BC0000095B3462046E21704EB5272D21021463C
:100BD000E31704EB5373DB10A4EBC3030BB1012346
:100BE00000E000231A44D4B24FF0000845E0002092
:100BF00003903BE00D9810F80A0002900AF1010002
:100C00001FFA80FA002001901DE0029800F0010018
:100C100028B14A4631462846FFF743FC0AE0B9F1BD
:100C2000000F01D1012000E0002002463146284695
:100C3000FFF737FC029840100290701CC6B2019872
:100C4000401CC0B2019001980828DEDB681CC5B2C8
:100C50000098281AB84204D1009D0BF1080000F05A
:100C6000FF0B5E460398401CC0B203900398B84245
:100C7000C0DB08F1010000F0FF08A045B7DBBDE8CC
:100C8000FF8F08B50121082000F0CAFE4FF4407024
:100C9000ADF8000014208DF8030003208DF8020049
:100CA00069463E4800F000FC4FF440713B4800F0BC
:100CB000A8FC0021AE20FFF7A6FB00210846FFF7A5
:100CC000A2FB00211020FFF79EFB00214020FFF730
:100CD0009AFB00218120FFF796FB0021CF20FFF730
:100CE00092FB0021A120FFF78EFB0021C820FFF717
:100CF0008AFB0021A620FFF786FB0021A820FFF732
:100D000082FB00213F20FFF77EFB0021D320FFF76D
:100D10007AFB00210846FFF776FB0021D520FFF77C
:100D200072FB00218020FFF76EFB0021D920FFF726
:100D30006AFB0021F120FFF766FB0021DA20FFF7B4
:100D400062FB00211220FFF75EFB0021DB20FFF792
:100D50005AFB00213020FFF756FB00212020FFF72F
:100D600052FB00210220FFF74EFB00218D20FFF7F0
:100D70004AFB00211420FFF746FBFFF7BDFA0021D4
:100D8000AF20FFF740FBFFF7B7FA0020FFF77DFD2C
:100D90000020FFF788FD08BDBC020020000C0140C8
:100DA00031490143314A1160704770B50021002379
:100DB0000F22C47804B32D4C246804F4E064C4F515
:100DC000E064210AC1F10403CA40447804FA03F143
:100DD0008478144021430901254C0678A1550478F4
:100DE00004F01F050124AC4005786D11AD0005F13C
:100DF000E025C5F8004109E0047804F01F0501244E
:100E0000AC401C4D0678761145F8264070BD1A4A54
:100E10000A400243154B1B1F1A60704739B1134A31
:100E2000121D12680243114B1B1D1A6006E00F4A87
:100E3000121D126882430D4B1B1D1A607047042857
:100E400008D14FF0E021096941F004014FF0E022A0
:100E5000116107E04FF0E021096921F004014FF032
:100E6000E0221161704700000000FA050CED00E07F
:100E700000E400E080E100E080FFFF1F10B50446C1
:100E8000FA48844208D10121401500F0E3FD002119
:100E9000601500F0DFFD17E0F548844208D101211C
:100EA000001500F0D7FD0021201500F0D3FD0BE068
:100EB000F048844208D10121C80300F0CBFD002195
:100EC0004FF4004000F0C6FD10BD30B502460020D2
:100ED00000235068E84C20400D790C6844EA052452
:100EE000204350609068E54C2040D1E902542C43E7
:100EF0004D7944EA450420439060D06A20F47000A4
:100F00000C7C641EE4B2234340EA0350D06230BD3F
:100F100000210160017141718160C1600121017492
:100F2000704721B1826842F00102826003E082686A
:100F300022F001028260704721B1826842F480721F
:100F4000826003E0826822F480728260704710B58C
:100F50000023CBB21AB144681C43446002E04468E9
:100F60009C43446010BD816841F008018160704776
:100F7000014600208A6802F008020AB1012000E060
:100F800000207047816841F004018160704701468C
:100F900000208A6802F004020AB1012000E000206B
:100FA000704721B1826842F4A002826003E0826847
:100FB00022F4A00282607047014600208A6802F491
:100FC00080020AB1012000E00020704710B50A46F7
:100FD00000210023416821F46041531E41EA43315E
:100FE000416010BD21B1426842F40062426003E0FA
:100FF000426822F4006242607047F0B504460D4634
:1010000000200021092D11DDE068A5F10A0606EB9C
:101010004607072606FA07F18843A5F10A0606EBFC
:10102000460603FA06F10843E0600CE0206905EB90
:101030004507072606FA07F1884305EB450603FA3C
:1010400006F108432061072A0FDA606B561E06EB93
:1010500086071F2606FA07F18843561E06EB86060A
:1010600005FA06F10843606322E00D2A0FDA206BCF
:10107000D61F06EB86071F2606FA07F18843D61F00
:1010800006EB860605FA06F10843206310E0E06AE5
:10109000A2F10D0606EB86071F2606FA07F1884324
:1010A000A2F10D0606EB860605FA06F10843E0629A
:1010B000F0BD21B1826842F48012826003E0826850
:1010C00022F48012826070470146C86C80B270477B
:1010D00066484C300068704721B1426842F4806233
:1010E000426003E0426822F480624260704721B1AE
:1010F000426842F48052426003E0426822F4805227
:10110000426070470A460021816821F4E0411143A2
:101110008160704721B1826842F40042826003E03E
:10112000826822F400428260704721B1826842F4F2
:101130000212826003E0826822F402128260704729
:10114000014600208A6802F400120AB1012000E082
:1011500000207047F0B50446154600200022002606
:10116000092911DDE068A1F10A0707EB470C072701
:1011700007FA0CF29043A1F10A0707EB470703FABD
:1011800007F21043E0600CE0206901EB410C0727F7
:1011900007FA0CF2904301EB410703FA07F2104300
:1011A0002061A06BC0F30156EF1C06F1010CA7EB08
:1011B0000C0707EB870C1F2707FA0CF29043EF1C74
:1011C00006F1010CA7EB0C0707EB870701FA07F202
:1011D0001043A063F0BD10B50A4600210023816BC7
:1011E00021F44011531E41EA0351816310BD08B53B
:1011F000002300930090009B0B440093009B1A6017
:1012000008BD08B5024600200090009201F12800B8
:10121000009B184400900098006880B208BD0A4600
:1012200000214168164B19401143416070474162EB
:10123000826270470A460021416821F01F01114374
:101240004160704740B109490831096841F4000123
:10125000064A0832116007E004490831096821F4A0
:101260000001024A0832116070470000002401406A
:1012700000280140003C0140FFFEF0FFFDF7F1FFB8
:10128000FFFD3FFF0246002013680B400BB1012019
:1012900000E000207047CA430260704770B5024604
:1012A0000020002300240B125568CEB205EA060484
:1012B00015681D4015B10CB1012000E0002070BD83
:1012C00000220A12D3430360704700000020444903
:1012D0000860091D0860091D0860091D0860414873
:1012E0003F4914310860704700213D498279002A46
:1012F0003AD00A46126803689A430B461A600A1DE0
:10130000126803689A430B1D1A60027911440A6837
:1013100003681A430A60324A0832126803689A4323
:101320002F4B08331A601A1D126803689A432C4B1E
:101330000C331A604279102A0ED11A1F1268036802
:101340001A43274B08331A601A1D126803681A43A0
:10135000234B0C331A600DE02149427911440A688D
:1013600003681A430A6005E0027911440A680368B9
:101370009A430A6070470021016001710C2141719C
:101380000021817170471649103109680143144AE0
:1013900010321160704701460020114A1432126861
:1013A0000A400AB1012000E0002070470C491431C6
:1013B00008607047014600200022094B1B6803EAC1
:1013C0000102074B14331B680B4013B10AB1012013
:1013D00000E00020704702491431086070470000A7
:1013E00000040140FFFF0F0010B50446CC488442C2
:1013F00008D10121042000F02DFB0021042000F081
:1014000029FB46E0C748844208D10121082000F0AA
:1014100021FB0021082000F01DFB3AE0C248844275
:1014200008D10121102000F015FB0021102000F050
:1014300011FB2EE0BD48844208D10121202000F09C
:1014400009FB0021202000F005FB22E0B84884427F
:1014500008D10121402000F0FDFA0021402000F0D9
:10146000F9FA16E0B348844208D10121802000F047
:10147000F1FA0021802000F0EDFA0AE0AE48844243
:1014800007D10121801500F0E5FA0021A01500F038
:10149000E1FA10BD10B50121084600F0DBFA002189
:1014A000012000F0D7FA10BD2DE9F04102460025D9
:1014B0000026002000230024002791F803C00CF030
:1014C0000F0591F803C00CF0100CBCF1000F03D015
:1014D00091F802C04CEA050591F800C0BCF1000F7C
:1014E00031D0146800202BE04FF0010C0CFA00F30F
:1014F000B1F800C00CEA03069E4220D183004FF0F1
:101500000F0C0CFA03F7BC4305FA03FC4CEA040485
:1015100091F803C0BCF1280F06D14FF0010C0CFA72
:1015200000FCC2F814C00AE091F803C0BCF1480FF7
:1015300005D14FF0010C0CFA00FCC2F810C0401CA1
:101540000828D1D31460B1F800C0BCF1FF0F34DD1E
:10155000546800202EE000F1080C4FF0010808FA52
:101560000CF3B1F800C00CEA03069E4221D18300BF
:101570004FF00F0C0CFA03F7BC4305FA03FC4CEADE
:10158000040491F803C0BCF1280F05D100F1080C48
:1015900008FA0CF8C2F8148091F803C0BCF1480FA7
:1015A00007D100F1080C4FF0010808FA0CF8C2F856
:1015B0001080401C0828CED35460BDE8F0814FF65F
:1015C000FF710180022181700421C17070470246C1
:1015D000002093680B400BB1012000E00020704711
:1015E0000146886880B2704702460020D3680B40ED
:1015F0000BB1012000E0002070470146C86880B2AE
:10160000704701617047416170470AB1016100E0B4
:1016100041617047C16070474FF480320A43826174
:101620008161826182698269704702460020434B72
:1016300018684FF68073184040EA021008433F4B89
:10164000186070473E49C8617047F0B50A460023EC
:1016500000240021002500F00046B6F1004F02D121
:10166000364EF16901E0354E7168C0F3034583B22F
:1016700000F44016B6F5401F08D121F070612F4EDE
:10168000766826F070662D4F7E6012E000F48016BA
:10169000B6F5801F06D1032606FA05F4A14341F0F2
:1016A000706106E0460D360103FA06F6B14341F0DB
:1016B000706122B1460D360103FA06F6314300F09F
:1016C0000046B6F1004F02D11C4EF16101E01B4E05
:1016D0007160F0BD30B500228B071C0F0F2303FA99
:1016E00004F2164B08338C1053F824309343134CF8
:1016F00008348D1044F8253023468C1053F82430DC
:101700008C07240F00FA04F423430C4C08348D108A
:1017100044F8253030BD0A49DC31086070470000CC
:1017200000080140000C014000100140001401407D
:1017300000180140001C0140002001400000014051
:1017400000002042DF48006840F00100DD490860E9
:1017500008464068DC490840DA49486008460068A5
:10176000DA490840D74908600846006820F480201C
:1017700008600846406820F4FE0048604FF41F00EF
:1017800088607047CF49096821F48031CD4A1160E3
:101790001146096821F480211160B0F5803F03D023
:1017A000B0F5802F0ED106E0C649096841F48031BA
:1017B000C44A116007E0C349096841F4A021C14A45
:1017C000116000E000BF00BF704710B50146002265
:1017D000002300204A11012A02D1BA4C236806E0F6
:1017E000022A02D1B74C236A01E0B64C636A01F0C9
:1017F0001F02012494401C400CB1012000E0002095
:1018000010BD38B5002000900024002500BF312015
:10181000FFF7DBFF05460098401C00900098B0F5EC
:10182000A06F01D0002DF2D03120FFF7CEFF08B11C
:10183000012400E00024204638BD01460020A14AD2
:10184000106820F0F80040EAC10010607047A0491D
:1018500008607047024600209A4B586820F47C10BC
:1018600042EA01031843974B58607047984908664D
:10187000704701460020934A506820F00300084357
:10188000506070478F48406800F00C007047014678
:1018900000208C4A506820F0F000084350607047E8
:1018A00001460020874A506820F4E06008435060F9
:1018B000704701460020834A506820F4605040EA97
:1018C000C1005060704729B17E4A527A02437D4B75
:1018D0005A7204E07B4A527A82437A4B5A727047BA
:1018E0007B49D8310860704701460020754A50682E
:1018F00020F440400843506070470021714A203274
:101900001170704A82F82010012802D004280AD1F0
:1019100004E001216B4A2032117005E00521694A7B
:101920002032117000E000BF00BF704769490860B5
:1019300070476449096A0143624A11627047654908
:1019400044390860704730B500210022002400238C
:101950005C4D6D6805F00C0121B1042905D0082902
:1019600023D105E05C4D056022E05B4D05601FE082
:10197000544D6D6805F47012524D6D6805F4803455
:10198000022505EB92421CB9544D554305600BE00E
:101990004C4D6D6805F400351DB1504D5543056043
:1019A00002E04D4D5543056002E04B4D056000BF20
:1019B00000BF444D6D6805F0F0010909484D6B5CAE
:1019C0000568DD4045603F4D6D6805F4E061090A3A
:1019D000434D6B5C4568DD4085603A4D6D6805F4AC
:1019E0006051C90A3E4D6B5C4568DD40C560354DB0
:1019F0006D6805F44041890B3A4D6B5CC568B5FBD9
:101A0000F3F5056130BD29B12E4A526902432D4BD1
:101A10005A6104E02B4A526982432A4B5A6170474B
:101A200029B1284A92690243264B9A6104E0254A6B
:101A300092698243234B9A61704729B1214AD26946
:101A40000243204BDA6104E01E4AD26982431D4BF7
:101A5000DA61704729B11B4AD2680243194BDA6038
:101A600004E0184AD2688243164BDA60704729B105
:101A7000144A12690243134B1A6104E0114A1269B5
:101A80008243104B1A617047124940390860704711
:101A90000F49C86470470B49C87170470948406ACC
:101AA00040F0807007494862704701460020054AAF
:101AB00092680A400AB1012000E000207047014905
:101AC00088727047001002400000FFF8FFFFF6FE2A
:101AD000000042428004424200127A0000093D00A8
:101AE000A0010020B001002029B1504A1288024311
:101AF0004E4B1A8004E04D4A128882434B4B1A80A9
:101B000070474A48001D008840F010004749091DF1
:101B1000088070474548001D00884FF6EF71084067
:101B20004249091D08807047002140481C30018847
:101B3000001F008841EA0040704700B50246FFF7E9
:101B4000E0FF100C394918310880091D0A80FFF7A1
:101B5000E1FF00BD00B50246FFF7D3FFC2F303402B
:101B6000324908310880091D0A80FFF7D3FF00BD04
:101B700000B50246FFF7C5FF100C2C492031088044
:101B8000091D0A80FFF7C6FF00BD0020274910315C
:101B900009880907080B254914310988084370474B
:101BA00000BF2248001D008800F020000028F8D067
:101BB00070471E48001D00884FF6F77108401B490A
:101BC000091D088000BF1948001D008800F00800AA
:101BD0000028F8D0704701460020144A121D1288D0
:101BE0000A400AB1012000E0002070470F49091D9A
:101BF000098881430D4A121D11807047014600205B
:101C00000A4A121D12880A40D0B2084A12880A40B5
:101C100012B108B1012000E0002070470349091DFE
:101C200009888143014A121D118070470028004035
:101C300010B50446FE48844208D10121C014FFF7C4
:101C400009FF0021E014FFF705FFC4E0B4F1804F65
:101C500008D101210846FFF70AFF00210120FFF704
:101C600006FFB8E0F348844208D101210220FFF7C3
:101C7000FEFE00210220FFF7FAFEACE0EE488442AF
:101C800008D101210420FFF7F2FE00210420FFF714
:101C9000EEFEA0E0E948844208D101210820FFF7C8
:101CA000E6FE00210820FFF7E2FE94E0E4488442CB
:101CB00008D101211020FFF7DAFE00211020FFF7E4
:101CC000D6FE88E0DF48844208D101212020FFF7BA
:101CD000CEFE00212020FFF7CAFE7CE0DA488442D5
:101CE00008D101214014FFF7B5FE00216014FFF771
:101CF000B1FE70E0D548844209D10121C804FFF744
:101D0000A9FE00214FF40020FFF7A4FE63E0D048B5
:101D1000844209D101210805FFF79CFE00214FF400
:101D20008010FFF797FE56E0CA48844209D101218E
:101D30004805FFF78FFE00214FF40010FFF78AFEE1
:101D400049E0C548844208D101214020FFF78FFEB9
:101D500000214020FFF78BFE3DE0C048844208D1BF
:101D600001218020FFF783FE00218020FFF77FFE06
:101D700031E0BB48844208D101218015FFF777FE8E
:101D80000021A015FFF773FE25E0B648844209D173
:101D900001210804FFF75EFE00214FF48030FFF7B9
:101DA00059FE18E0B048844209D101214804FFF7E8
:101DB00051FE00214FF40030FFF74CFE0BE0AB4822
:101DC000844208D101218804FFF744FE00214FF42A
:101DD0008020FFF73FFE10BD00220288944B9842FE
:101DE0000ED0994B98420BD0B0F1804F08D0914B58
:101DF000984205D0904B984202D0904B984204D123
:101E00004FF68F731A404B881A438D4B984207D078
:101E10008C4B984204D04FF6FF431A40CB881A43AC
:101E200002808B8883850B880385814B98420BD079
:101E3000854B984208D08B4B984205D08A4B9842EC
:101E400002D08A4B984201D10B7A03860123838208
:101E5000704770B5002400220023058C4FF6FE76F3
:101E600035400584028C8388048B4FF68F752C4097
:101E7000B51E2C400D882C43751E2A400D892A431F
:101E80004D882A436A4DA8420BD06F4DA84208D016
:101E9000744DA84205D0744DA84202D0734DA8429B
:101EA00013D14FF6F7752A404D892A434FF6FB753B
:101EB0002A408D882A434FF6FF652B404FF6FF5589
:101EC0002B408D892B43CD892B4383800483CD8880
:101ED0008586028470BD70B5002400220023058C25
:101EE0004FF6EF7635400584028C8388048B48F6E4
:101EF000FF752C404FF6FF452C400D884FF6FF76BE
:101F000006EA05252C434FF6DF752A400D8906EABF
:101F100005152A434D8806EA05152A43444DA84273
:101F200002D0494DA8421DD14FF67F752A404D89F8
:101F30004FF6FF7606EA05152A434FF6BF752A408D
:101F40008D8806EA05152A434FF6FF352B404FF2E0
:101F5000FF752B408D8906EA85052B43CD8906EA5E
:101F600085052B4383800483CD880587028470BD5B
:101F700070B5002400220023058C4FF6FF66354023
:101F80000584028C8388848B4FF68F752C404FF626
:101F9000FC752C400D882C434FF6FF552A400D89C7
:101FA0004FF6FF7606EA05252A434D8806EA052501
:101FB0002A431F4DA84202D0234DA8421DD14FF203
:101FC000FF752A404D894FF6FF7606EA05252A431C
:101FD0004FF6FF352A408D8806EA05252A434EF63E
:101FE000FF752B404DF6FF752B408D8906EA0515D0
:101FF0002B43CD8906EA05152B4383808483CD8846
:102000008587028470BD70B5002200230024058CF2
:102010004EF6FF7635400584038C8488828B48F623
:10202000FF752A404FF6FF452A400D8820E000004A
:10203000002C01400004004000080040000C00405B
:10204000001000400014004000340140004C0140EA
:10205000005001400054014000180040001C0040A6
:102060000020004000400140004401400048014081
:102070004FF6FF7606EA05252A434DF6FF752B40FD
:102080000D8906EA05352B434D8806EA05352B43B5
:10209000FA4DA84202D0FA4DA84208D14BF6FF757E
:1020A0002C408D894FF6FF7606EA85152C438480F7
:1020B0008283CD88A0F84050038470BD828B4FF29C
:1020C000FF331A408283828B4FF6FF7303EA0123AA
:1020D0001A4382837047F0B50C4615460022002152
:1020E0000026078C4EF6FF7C07EA0C070784828BDC
:1020F000018C4FF6FF7707EA043640F6FF473A4077
:102100004FF6FF7707EA05273A434FF6FF7707EACE
:1021100003373A43D94FB8420ED0D94FB8420BD00B
:10212000B0F1804F08D0D74FB84205D0D64FB84253
:1021300002D0D64FB84206D14DF6FF77394046F46B
:102140008057394305E047F6FF57394044F480573C
:10215000394382830184F0BD828B4FF6F3731A40BA
:102160008283828B0A4382837047F0B50C46154602
:10217000002200210026078C4FF6FF6C07EA0C07AF
:102180000784828B018C4FF6FF7707EA04264FF60F
:102190000C773A404FF6FF7707EA03172F433A438D
:1021A000B64FB8420ED0B64FB8420BD0B0F1804F08
:1021B00008D0B44FB84205D0B34FB84202D0B34FA5
:1021C000B84206D14FF6FF57394046F4807739437D
:1021D00005E04FF2FF57394044F48077394382835A
:1021E0000184F0BD028B4FF2FF331A400283028B51
:1021F0004FF6FF7303EA01231A4302837047F0B5D9
:102200000C461546002200210026078C4FF6EF7C75
:1022100007EA0C070784028B018C4FF6FF7707EA69
:10222000041640F6FF473A404FF6FF7707EA0337B8
:102230003A434FF6FF7707EA05273A438F4FB842F4
:102240000ED08F4FB8420BD0B0F1804F08D08D4FD9
:10225000B84205D08C4FB84202D08C4FB84206D15C
:102260004FF6DF77394046F01007394305E04FF667
:102270005F77394044F01007394302830184F0BD91
:10228000028B4FF6F3731A400283028B0A430283D8
:102290007047F0B50C46154600220021068C4FF61B
:1022A000FE773E400684028B018C4FF60C7632405E
:1022B0007E1C06EA03162E433243704EB0420ED007
:1022C0006F4EB0420BD0B0F1804F08D06D4EB0428F
:1022D00005D06D4EB04202D06C4EB04206D14FF6E2
:1022E000FD76314044F00106314305E04FF6F576C6
:1022F000314044F00106314302830184F0BD70B5E2
:1023000005460C465D4885420ED05D4885420BD09F
:10231000B5F1804F08D05B48854205D05A488542C8
:1023200002D05A48854200D100E000BF208850B951
:102330002389A28861882846FFF7ABFFE1882846F9
:10234000FFF79EFF25E0208804280AD12389A28870
:1023500061882846FFF753FFE1882846FFF742FFD0
:1023600017E0208808280AD12389A2886188284696
:10237000FFF7FBFEE1882846FFF7EEFE09E0238920
:10238000A28861882846FFF7A6FEE1882846FFF765
:1023900095FE70BD2DE9F04105460C46002601274B
:1023A000608808B9022600E00026A088012801D133
:1023B000022700E001272088A0B92389A28861882C
:1023C0002846FFF766FFE1882846FFF759FF238973
:1023D0003A4631462846FFF712FFE1882846FFF7C4
:1023E00001FF13E02389A28861882846FFF707FFD1
:1023F000E1882846FFF7F6FE23893A46314628460B
:10240000FFF747FFE1882846FFF73AFFBDE8F08174
:102410000A884B881A438B881A43CB881A430B8946
:102420001A434B891A438B891A43A0F844207047FA
:102430004FF6FF71818000210180C18041800172CF
:1024400070470021018041808180C18001814181EC
:102450008181C181704700210180418001218180FB
:102460000021C1800181704700210180418081806D
:10247000C18001814181818170470000002C0140B1
:10248000003401400004004000080040000C0040FF
:1024900021B1028842F00102028004E002884FF676
:1024A000FE731A400280704731B1B0F8442042F404
:1024B0000042A0F8442005E0B0F84420C2F30E0228
:1024C000A0F8442070471AB183890B43838102E04E
:1024D00083898B43838170478182704741EA02037D
:1024E000A0F8483070471AB183890B43838102E01A
:1024F00083898B438381704701894FF6F8721140BD
:10250000018170470A46002101894FF68F731940F7
:1025100011430181704730B504460D4629462046D7
:10252000FFF7F0FF208940F00700208130BD2DE942
:10253000F04104460D4616461F46602D06D13B4627
:10254000012231462046FFF75AFE05E03B460122B4
:1025500031462046FFF79DFE29462046FFF7D2FF71
:10256000208940F007002081BDE8F08130B50C469D
:1025700000210189C9B24FF6FF7505EA032515430D
:1025800025432943018130BD2DE9F04105460E4622
:1025900017469846002443463A4631462846FFF7F8
:1025A000E5FF2C894FF6F870044044F007044FF61D
:1025B0008F70044044F070042C81BDE8F081F0B5C8
:1025C00004460D4616461F463B46324629462046DF
:1025D000FFF7CCFF208940F480402081F0BD0185C9
:1025E000828270470A46002101884FF68F73194096
:1025F000114301807047F0B50C4615461E46002178
:10260000002200230189028B038C4FF6F8773940B2
:1026100021434FF6FC473A4040F201173A434FF648
:10262000DD773B404FF6FF7707EA06172F433B4322
:10263000018102830384F0BD0A460021018B4FF61D
:102640008F7319401143018370470A460021018BA3
:1026500048F6FF7319404FF6FF7303EA022319434C
:10266000018370470A460021818B4FF68F73194012
:102670001143818370470A460021818B48F6FF731E
:1026800019404FF6FF7303EA022319438183704711
:1026900021B1028842F08002028004E002884FF6F5
:1026A0007F731A400280704721B1828842F0040291
:1026B000828004E082884FF6FB731A408280704764
:1026C00021B1828842F00802828004E082884FF6BD
:1026D000F7731A408280704721B1828842F001026C
:1026E000828004E082884FF6FE731A408280704731
:1026F0000A460021018B4FF6F773194011430183FD
:1027000070470A460021018B4FF2FF7319404FF6C4
:10271000FF7303EA02231943018370470A4600212D
:10272000818B4FF6F77319401143818370470A4636
:102730000021818B4FF2FF7319404FF6FF7303EABC
:1027400002231943818370470A460021018B4FF60B
:10275000FB7319401143018370470A460021018B26
:102760004FF6FF3319404FF6FF7303EA0223194374
:10277000018370470A460021818B4FF6FB73194095
:102780001143818370470A460021818B4FF6FF3346
:1027900019404FF6FF7303EA022319438183704700
:1027A0000A460021018B4FF67F73194011430183C4
:1027B00070470A460021018BC1F30E014FF6FF73EB
:1027C00003EA02231943018370470A460021818BE3
:1027D0004FF67F7319401143818370470A460021E9
:1027E000818BC1F30E014FF6FF7303EA02231943F5
:1027F000818370470A460021018C4FF6FD73194012
:102800001143018470470A460021018C4FF6F7738B
:1028100019401143018470470A460021018C4FF68C
:10282000DF7319404FF6FF7303EA02131943018463
:1028300070470A460021018C4FF67F7319404FF60E
:10284000FF7303EA02131943018470470A4600210B
:10285000018C4FF6FF5319404FF6FF7303EA022332
:102860001943018470470A460021018C4FF2FF731F
:1028700019404FF6FF7303EA02231943018470479E
:102880000A460021018C4DF6FF7319404FF6FF7385
:1028900003EA023319430184704730B50023012451
:1028A0008C40A3B2048C9C430484048C02FA01F58E
:1028B000ADB22C43048430BD30B5002304248C40D9
:1028C000A3B2048C9C430484048C02FA01F5ADB2DB
:1028D0002C43048430BD70B5034600200024184604
:1028E000183001258D40ACB21D8CA5431D8409B163
:1028F000082909D100EB6100056825F07005056025
:102900000568154305600EE00D1FC5F34E0528440C
:10291000056825F4E045056005684FF6FF7606EA90
:1029200002263543056070BD21B1028842F00202E3
:10293000028004E002884FF6FD731A40028070475F
:1029400021B1028842F00402028004E002884FF6BE
:10295000FB731A400280704721B1828842F08002E6
:10296000828004E082884FF67F731A40828070472D
:1029700002884FF6F7731A40028002880A430280E9
:10298000704782884FF68F731A40828082880A438C
:102990008280704702894FF6F8731A4002810289DB
:1029A0000A430281704702894FF67F731A40028101
:1029B00002890A430281704781847047818570478C
:1029C000818670470187704781877047A0F8401063
:1029D000704702884FF6FF431A40028002880A437C
:1029E000028070470146888E70470146088F704705
:1029F0000146888F70470146B1F840007047014694
:102A0000888C70470146088D704702460020138A63
:102A10000B400BB1012000E000207047CA43028246
:102A2000704730B50246002000230024158A05EACD
:102A30000103958905EA010413B10CB1012000E0FE
:102A4000002030BDCA4302827047000010B5044622
:102A5000FB48844209D101218803FEF7FBFF0021D6
:102A60004FF48040FEF7F6FF32E0F648844209D189
:102A700001214804FEF7FBFF00214FF40030FEF770
:102A8000F6FF25E0F048844209D101218804FEF7D1
:102A9000EEFF00214FF48020FEF7E9FF18E0EB483D
:102AA000844209D10121C804FEF7E1FF00214FF45F
:102AB0000020FEF7DCFF0BE0E548844208D101214D
:102AC0000805FEF7D4FF00214FF48010FEF7CFFF7A
:102AD00010BD2DE9F04786B005460E460024A246FB
:102AE00000BFA1460027B08900B100BF2F462C8A45
:102AF0004CF6FF700440F08804432C82AC894EF6FB
:102B0000F3100440B08831890843718908430443B5
:102B1000AC81AC8A4FF6FF400440B0890443AC82DC
:102B200001A8FEF710FFC648874202D1DDF810A0C9
:102B300001E0DDF80CA0A88900F4004040B10AEBE8
:102B4000CA0000EB0A1031684900B0FBF1F807E059
:102B50000AEBCA0000EB0A1031688900B0FBF1F8FB
:102B60006420B8FBF0F004012009642101FB108906
:102B7000A88900F4004040B1322000EBC900B0FB4E
:102B8000F1F000F00700044308E0322000EB0910E8
:102B90006421B0FBF1F000F00F0004432C8106B07B
:102BA000BDE8F0874FF41651016000218180C1809B
:102BB00001810C21418100218181704710B50246BD
:102BC0000020108A4FF2FF0318400B884C882343E3
:102BD0008C882343CC8823431843108210BD0021E6
:102BE000018041808180C180704721B1828942F497
:102BF0000052828104E082894DF6FF731A4082817F
:102C00007047F0B50346002400260025002040F65A
:102C10006A17B94200D100BF1846C1F3421401F04F
:102C20001F06012707FA06F5012C01D10C3004E03C
:102C3000022C01D1103000E014301AB107682F4384
:102C4000076002E00768AF430760F0BD1AB1838AEE
:102C50000B43838202E0838A8B4383827047028A1C
:102C60004FF6F0731A400282028A0A4302827047CA
:102C700082894FF2FF731A40828182890A438281DE
:102C8000704721B1828942F00202828104E0828988
:102C90004FF6FD731A4082817047028A4FF6DF7348
:102CA0001A400282028A0A430282704721B1028AD4
:102CB00042F48042028204E0028A4BF6FF731A401B
:102CC00002827047C1F308028280704701468888FB
:102CD000C0F308007047818941F00101818170478C
:102CE000028BD2B20283028B42EA01220283704736
:102CF000028B02F47F420283028B0A4302837047F5
:102D000021B1828A42F02002828204E0828A4FF658
:102D1000DF731A408282704721B1828A42F010022A
:102D2000828204E0828A4FF6EF731A4082827047F3
:102D300021B1828A42F00802828204E0828A4FF640
:102D4000F7731A408282704721B1828942F40042AF
:102D5000828103E08289C2F30E028281704721B131
:102D6000828A42F40062828204E0828A4FF2FF7318
:102D70001A4082827047828A4FF6FB731A40828221
:102D8000828A0A438282704721B1828A42F002021B
:102D9000828204E0828A4FF6FD731A408282704775
:102DA00002460020B1F5007F00D100BF13880B4020
:102DB0000BB1012000E00020704701F40072B2F571
:102DC000007F00D100BFCA430280704770B5024641
:102DD000002400230025002040F66A16B14200D1ED
:102DE00000BFC1F3421501F01F03012606FA03F3E9
:102DF000012D02D19689334006E0022D02D1168AB8
:102E0000334001E0968A33400C12012606FA04F49E
:102E10001688344013B10CB1012000E0002070BDD1
:102E200010B50022002340F66A14A14200D100BF71
:102E30000A1201249440A3B2DC43048010BD0000B8
:102E4000003801400044004000480040004C004071
:102E50000050004010B56FF00400FDF7F0FF2E4861
:102E600000682E49B0FBF1F02D4908700846007843
:102E700000EB4001C1EBC0104FF6FF7101EAC0004A
:102E80002849088010BD0146254A12784A434FF070
:102E9000E0235A6100229A611A46126942F0010247
:102EA0001A6100BF4FF0E022106900F001021AB170
:102EB00000F48032002AF5D04FF0E022126922F0AF
:102EC00001024FF0E0231A6100229A617047014627
:102ED000144A12884A434FF0E0235A6100229A6153
:102EE0001A46126942F001021A6100BF4FF0E02257
:102EF000106900F001021AB100F48032002AF5D006
:102F00004FF0E022126922F001024FF0E0231A6133
:102F100000229A6170470000C001002000127A0070
:102F2000B4010020B601002000BF704700BF4A4A2C
:102F3000128802F04002002AF9D0C2B2464B1B1D93
:102F40001A80704710B586B00446012144F204008F
:102F5000FEF766FD4FF40070ADF8140003208DF805
:102F6000160018208DF8170005A93C48FEF79CFABA
:102F70004FF48060ADF8140004208DF8170005A907
:102F80003648FEF791FA25208DF8000003208DF8D1
:102F900001008DF8020001208DF803006846FDF75E
:102FA00004FF01940020ADF80800ADF80A00ADF868
:102FB0000C00ADF810000C20ADF80E0001A9264859
:102FC000FFF787FD012240F225512348FFF719FE44
:102FD00001212148FFF709FE06B010BD10B540F2EF
:102FE00025511D48FFF7F2FE10B31B48FFF76EFE98
:102FF000C4B21B48008800F40040C8B918480088D3
:1030000000F4804060B10A2C03D0002014490880ED
:1030100020E01348008840F400401149088019E07E
:103020000D2C06D10E48008840F480400C490880E1
:1030300010E00B480088C0F30D000A490C54084802
:103040000088401C0649088008460088C72801DD22
:103050000020088010BD0000003801400008014039
:10306000BC0100203C070020704700BFFEE700BF06
:10307000FEE700BFFEE700BFFEE7704770477047FE
:10308000704710B50120FEF7B9FD38B10120FEF7F9
:10309000C5FD012002490860FEF782FD10BD000059
:1030A0001C0200200CB50020019000906C480068C4
:1030B00040F480306A49086000BF6948006800F445
:1030C000003000900198401C0190009818B90198B8
:1030D000B0F5A06FF1D16248006800F4003010B183
:1030E0000120009001E0002000900098012843D1C9
:1030F0005C48006840F010005A49086008460068C3
:1031000020F0030008600846006840F002000860F4
:10311000534840685249486008464068486008463D
:10312000406840F4806048600846406820F47C10A5
:1031300048600846406840F4E81048600846006867
:1031400040F08070086000BF4548006800F00070E3
:103150000028F9D04248406820F003004049486008
:103160000846406840F00200486000BF3C484068A4
:1031700000F00C000828F9D10CBD10B5FFF792FF44
:1031800010BD10B53648006840F0010034490860B1
:10319000084640683449084031494860084600689C
:1031A000324908402E4908600846006820F4802013
:1031B00008600846406820F4FE0048604FF41F0095
:1031C0008860FFF7DAFF4FF000602949086010BD02
:1031D00010B5002100200022214B5B6803F00C0198
:1031E00021B1042906D0082928D107E0214B224C1F
:1031F000236027E01F4B204C236023E0184B5B68C3
:1032000003F47010164B5B6803F48032022303EB67
:10321000904022B9194B4343174C23600DE0104BEB
:103220005B6803F4003323B1144B4343124C236017
:1032300003E0104B4343104C236003E00D4B0E4C56
:10324000236000BF00BF064B5B68C3F303130C4C45
:10325000E15C094B1B68CB40074C236010BD0000AC
:1032600000100240002002400000FFF8FFFFF6FEC1
:1032700008ED00E000127A00C001002000093D00C6
:10328000C40100209EB04FF4A060FDF789FDFFF758
:10329000E1FD00214FF4E15001F010F848F69F41A4
:1032A00040F2CF7001F068F800F096FF00F027FAC6
:1032B000FDF7E7FC00F0B4F94FF4E130FFF742FE10
:1032C0004FF4E13000F0F4FD00F068FC54E02B48CE
:1032D0000068012847DB00202849086000F0A9F9B0
:1032E0002749086000F0C4FF824602F06CFF0646E2
:1032F000244A254B02F07AFF04460022234B02F0B9
:10330000DBFD804602F030FF214908602149224858
:1033100000F041FA1A4821A102681BA801F0CEF87A
:103320001B481EA1026818A801F0C8F81A480278C4
:103330001AA115A801F0C2F81648027817A112A820
:1033400001F0BCF81348007813490978CDE9001062
:103350000F4803680A4812A1026803A801F0AEF8FA
:1033600003A800F0A8FB12AB15AA18A91BA8FDF72B
:1033700012FA00F0B6FB00BFA9E700000C02002023
:1033800014020020295C8FC2F5280A4000FEAF40DD
:103390001802002010020020110200202564000005
:1033A0007B226931223A222564222C227331223A6F
:1033B000222564222C226831223A222564222C22E2
:1033C0007431223A222564227D000000002001E0B1
:1033D000411CC8B20A28FBDB704710B58021A04809
:1033E000FEF70FF940219E48FEF70BF9FFF7EEFFBD
:1033F00080219B48FEF707F9FFF7E8FF4021984836
:10340000FEF701F9FFF7E2FF10BD10B580219448E7
:10341000FEF7F9F840219248FEF7F3F8FFF7D6FFE0
:1034200080218F48FEF7EDF810BD70B504460025E9
:1034300023E004F0800020B180218948FEF7E1F804
:1034400003E080218648FEF7DEF8FFF7BFFF40214A
:103450008348FEF7D6F8FFF7B9FF40218048FEF712
:10346000D2F8072D03D180217D48FEF7CAF8600607
:10347000040EFFF7ABFF681CC5B2082DD9DB70BD89
:1034800070B50024002516E06006040E4021744843
:10349000FEF7B7F8FFF79AFF80217148FEF797F81B
:1034A00008B1601CC4B240216D48FEF7ACF8FFF7CC
:1034B0008DFF681CC5B2082DE6DB204670BD10B537
:1034C00080216748FEF79DF8FFF780FF40216448A0
:1034D000FEF797F8FFF77AFF80216148FEF777F84B
:1034E00008B1012400E0002440215D48FEF78BF87C
:1034F000FFF76CFF204610BD10B580215848FEF73D
:1035000082F8FFF763FF40215548FEF77AF8FFF78E
:103510005DFF40215248FEF776F8FFF757FF802104
:103520004F48FEF76EF810BD10B580214C48FEF7ED
:1035300068F8FFF74BFF40214948FEF762F8FFF7B4
:1035400045FF40214648FEF75EF8FFF73FFF10BDFC
:1035500008B501210820FEF763FAC020ADF800008D
:1035600003208DF8020014208DF8030069463C48C2
:10357000FDF79AFFFFF749FF08BD70B50446FFF756
:103580002CFF2046FFF751FFFFF799FF0546FFF795
:103590003CFF284670BD10B50446FFF71EFF4620CD
:1035A000FFF743FFFFF78BFF012800D110BD204636
:1035B000FFF73BFFFFF783FF012801D10220F5E76A
:1035C000FFF723FF0020F1E710B50024FFF705FF08
:1035D0004720FFF72AFFFFF772FF012801D10020E3
:1035E00010BDFFF74DFF0446FFF786FFFFF748FFCA
:1035F00000EB042084B2FFF797FFFFF706FF204699
:10360000EEE710B50120FFF7C6FF10BD10B5002092
:10361000FFF7C1FF10BD10B50720FFF7BCFF10BDBD
:1036200010B5FFF795FFFFF7ECFF1020FFF7B3FF92
:1036300010BD2DE9F041FFF7C7FF074602F0B2FFCA
:103640000646084902F0D0FE05464FF07E5102F0D2
:10365000BDFF0446204602F089FFBDE8F08100006E
:10366000000C0140CDCC8C3F10B510206049C870D3
:103670006048FDF719FF10BD10B5FFF7F5FF0221F7
:103680005C48FDF7C0FF1420FFF721FC02215948D8
:10369000FDF7B7FF1E20FFF7F6FB10BD10B50420A5
:1036A0005349C8705348FDF7FFFE10BD10B5002404
:1036B000FFF7F4FF04E0601CC4B20120FFF7E3FB56
:1036C00002214C48FDF783FF08B9642CF3DB642C1E
:1036D00001DB002010BD002404E0601CC4B2012006
:1036E000FFF7D1FB02214348FDF771FF08B1642CBD
:1036F000F3DB642C01DB0020ECE70120EAE710B5E6
:1037000001210820FEF78CF9022039490880102099
:10371000C870012088703748FDF7C6FEFFF7ACFF80
:10372000FFF7C4FF10BD10B5002404E0601CC4B254
:103730000120FFF7A8FB02212E48FDF748FF08B142
:10374000642CF3DB002404E0601CC4B20120FFF70A
:103750009AFB02212748FDF73AFF08B9642CF3DBF6
:103760001E20FFF790FB02212248FDF730FF08B131
:10377000012010BD0020FCE770B50024002506E004
:103780006006040EFFF7CFFF0443681CC5B2082D86
:10379000F6DB204670BD7CB505460E46FFF76CFF94
:1037A000FFF784FF01281FD1002405E0FFF7E4FFA5
:1037B0000DF80400601CC4B2052CF7DB9DF8000076
:1037C0009DF8011008449DF8021008449DF803106C
:1037D00008449DF80410884208D19DF8000030701C
:1037E0009DF80200287001E000207CBD0120FCE76C
:1037F000D4010020000C014010B504462CB9002073
:10380000FE498871FE49C8700FE0012C03D10820E1
:10381000FA49487104E0022C02D10C20F7494871A2
:103820000120F6498871F649C870F6480470F348DB
:10383000FDF75AFDF248FDF7B8FA10BD10B510209B
:10384000FDF7B8FD70B3EF48007801280AD1EE48C3
:103850000078012802D10020EC4908800220E949C3
:10386000087018E0E7480078022814D1E64800788C
:10387000012806D1E548008840F40040E34908806B
:1038800006E0E1480078022802D10120DE490870F4
:103890000120DC490870DB480078FFF7ADFF1020FD
:1038A000FDF799FD10BD38B5002401250121042044
:1038B000FEF7B6F801210846FEF7B2F80121D44818
:1038C000FDF7C3FEE803ADF8000010208DF80300FB
:1038D00003208DF802006946CE48FDF7E5FD102073
:1038E000ADF8000028208DF8030003208DF80200B9
:1038F0006946C848FDF7D8FD04210020FDF7EAFE1F
:103900001020BE490860002008710820487100207E
:1039100088710846FDF7E8FC0A20B94908700220C2
:103920004870032088700020C8700846FDF73DFAF3
:103930000020B9490860B949C1F8100106E0B8A0F3
:1039400000F0B0FD4FF4FA70FFF7C1FAB248AC389E
:1039500000680028F3D14FF4E13000F0A9FA01200B
:10396000AD4908602820FFF7B2FA032407E0462299
:10397000B0A1B1A000F01FFA08B9002504E02000B2
:10398000A4F10101CCB2F2D100BF04B9012528464F
:1039900038BD30B585B000250021072000F005FBBB
:1039A000012000F05DFB00BF9B48AC380068002898
:1039B000FAD10120984908602820FFF788FA0020F2
:1039C000914908709E480088040A9D4805789DA189
:1039D000684600F073FD322296A1684600F0EBF9CC
:1039E0002B4622469AA1684600F068FD322291A13A
:1039F000684600F0E0F992480379827899A1684618
:103A000000F05CFD32228BA1684600F0D4F98C48AE
:103A1000C27898A1684600F051FD322285A168461F
:103A200000F0C9F98648827996A1684600F046FD03
:103A3000322280A1684600F0BEF98148C27995A182
:103A4000684600F03BFD32227AA1684600F0B3F9E7
:103A50007B48427992A1684600F030FD322275A180
:103A6000684600F0A8F97648437A027A90A1684641
:103A700000F024FD32226FA1684600F09CF900207E
:103A80006649C1F8BC012820FFF721FA00BF62484F
:103A9000AC3800680028FAD15C49088001205A49F6
:103AA0000870674A517A107A00F07FFA0120FFF718
:103AB000A3FE05B030BD10B504460220524908707F
:103AC0005F48C07960B922467DA17E4800F0F6FCCF
:103AD0007C497DA000F045FA7A497DA000F0E2FC27
:103AE00010BD10B5ADF5806D00244848008800F485
:103AF000004000284FD004E07848005D0DF8040035
:103B0000641C7648005D0028F6D1641C0DF80400A2
:103B10003E490988C1F30E01704A50543B49088060
:103B20006FA1684600F07AFE002826D06E496846EC
:103B300000F06AFC6C48406880B16B488068C0F156
:103B4000640000EBC0004FF6FF7202EAC001674854
:103B5000FEF736FF66A0FFF7AEFF07E04FF4E15136
:103B60006248FEF72DFF64A0FFF7A5FF5E4883685B
:103B70004268016863A000F095FC59A1684600F016
:103B80004DFE4FF48061554800F079FE21466846AD
:103B900000F097FE00240DF5806D10BD10B541F2C8
:103BA0007070FFF794F906E05DA000F07BFC4FF425
:103BB0009670FFF78CF9FFF776FE0028F4D15DA030
:103BC00000F070FC4FF4FA70FFF781F90120124900
:103BD00008602820FFF77BF9002000F041FA002060
:103BE000FFF70AFE45F21040154908801020887042
:103BF0000320C870052008710020A3E0F401002014
:103C0000FC0100200102002000020020040200202C
:103C10000002300000080140BC01214200002142A6
:103C2000C4A3BFE9D5FDC3A62CC7EBC9D4B5C82131
:103C3000210A00004F4B00004154453000000000B5
:103C4000E801002041542B43474D523F0000000043
:103C500041542B414444523D253032782C2530329A
:103C60007800000041542B574C524154453D256487
:103C70002C25640041542B54504F5745523D256428
:103C80000000000041542B43574D4F44453D2564EF
:103C90000000000041542B544D4F44453D25640025
:103CA00041542B574C54494D453D256400000000BC
:103CB00041542B554152543D25642C25640000008D
:103CC000257300000408002025730D0A0000000081
:103CD00053656E64A3BA25730D0A0000CC0800205A
:103CE00046414E3100000000D8010020002C014068
:103CF00046414E31204F4E0046414E31204F464600
:103D00000D0A000046414E315F4E45575F537461C6
:103D100074653A2025733A25643A25640D0A00003B
:103D2000CEB4BCECB2E2B5BDC4A3BFE92121210DE4
:103D30000A000000BCECB2E2B5BDC4A3BFE921217A
:103D4000210D0A0048718871C8710720087200208F
:103D50004872FFF71EFE10BD10B5044633480088B8
:103D600000F4004070B1002030490988C1F30E0111
:103D70002F4A505411462FA000F094FB14B100209C
:103D80002A49088010BD70B50446002527480088E0
:103D900000F4004068B1002024490988C1F30E01F5
:103DA000234A5054FFF7D8FF2146214800F036FD42
:103DB0000546284670BD2DE9F04104460E461546DD
:103DC000002700201949088021461CA000F06AFB4A
:103DD000FF2C0AD800BF1C48008800F040000028D3
:103DE000F9D01949091D0C8003E0214611A000F00B
:103DF000B8F8C6B1BDB10FE00A20FFF768F80B486C
:103E0000008800F4004038B13046FFF7BCFF00B135
:103E100006E0002005490880681E80B20500EBD14D
:103E200000BF05B901273846BDE8F0810402002033
:103E3000CC08002025730D0A00000000B7A2CBCDEE
:103E4000A3BA25730D0A00000048004010B540F2E7
:103E500025518F48FEF7BAFF10B38D48FEF736FFA5
:103E6000C4B28C48008800F40040C8B98948008872
:103E7000B0F5806F15DA8848007850B9002187487E
:103E8000FEF79AFD8348008818B901218348FEF7A0
:103E9000FFFA80490888411C7E4A118080490C54F1
:103EA00005E07C48008840F400407A49088010BD55
:103EB0001CB5044601210820FDF7B2FD012188044C
:103EC000FDF7BBFD7248FEF7C1FD4FF48060ADF811
:103ED000000003208DF8020018208DF803006946C9
:103EE0007048FDF7E1FA4FF40060ADF8000048209B
:103EF0008DF8030069466B48FDF7D6FA6A480460FE
:103F0000002069498880C880088188810C20488108
:103F10005F48FEF7DEFD01215D48FEF766FE0122E7
:103F200040F225515A48FEF76CFE27208DF8040018
:103F300002208DF8050003208DF8060001208DF881
:103F4000070001A8FCF731FF41F61F41632000F094
:103F5000D8F800204F49088000215048FEF798FA11
:103F60001CBD0FB438B505A800905048009A0499BC
:103F700000F086FA002000904C4800F061FC85B209
:103F800000240DE000BF40214148FEF709FF002852
:103F9000F9D04648015D3E48FEF794FE601C84B2AD
:103FA000AC42EFDB38BC5DF814FB70B505460C463F
:103FB000082D2DD2DFE805F004090E13181D222765
:103FC0004FF496603A49086022E04FF41660384991
:103FD00008601DE04FF496503549086018E04FF432
:103FE00016503349086013E04FF49640304908609A
:103FF0000EE04FF416402E49086009E04FF461408E
:104000002B49086004E04FF4E1302949086000BF03
:1040100000BF00211E48FEF7E8FD25480068224940
:1040200008600020C88014B9888008810FE0012C46
:1040300005D120031C4988808010088107E0022CEC
:1040400005D1E002184988804FF4C0600881164904
:104050000F48FEF73EFD01210D48FEF7C6FD70BD7D
:1040600010B5044600210A48FEF7BFFD1CB10C2024
:104070000D49488102E008200B4948810A4904485B
:10408000FEF727FD01210248FEF7AFFD10BD00003D
:10409000004800400402002000020020000400400C
:1040A000CC080020000C0140240F0020CC0C002084
:1040B0000802002010B5044600214448FEF77CFCAD
:1040C00042482C300088002040492C3108800846A6
:1040D00000882043088010BD10B501213B48FEF741
:1040E000A0FC68B101213948FEF7ACFC38480088D3
:1040F00040F400403649088000213448FEF7C8F9F2
:1041000010BD7FB505460C4601210220FDF795FC48
:10411000ADF80450ADF800400020ADF80600ADF851
:10412000020069462948FDF757FE0122114627483B
:10413000FEF7C9F901212548FEF7AAF91D208DF8DF
:104140000C0000208DF80D0002208DF80E000120DB
:104150008DF80F0003A8FCF728FE7FBD7FB505464C
:104160000C4601210420FDF768FCADF80450ADF8C1
:1041700000400020ADF80600ADF802006946134883
:10418000FDF72AFE012211461248FEF79CF9012193
:104190001048FEF77DF91E208DF80C0001208DF8E7
:1041A0000D0002208DF80E0001208DF80F0003A8ED
:1041B000FCF7FBFD7FBD10B501210648FEF731FC81
:1041C00018B101210348FEF73DFC10BD000400407A
:1041D000040200200008004000B587B001214FF420
:1041E0000170FDF71DFC00208DF81B000120ADF8CB
:1041F000180006A92F48FDF757F94FF44040FDF786
:1042000073FB2D48FCF73AFE00212B48FCF794FE87
:10421000002001908DF808008DF809004FF460200F
:1042200003900020049001208DF8140001A9224879
:10423000FCF74BFE0023012219461F48FCF7DDFE68
:1042400001211D48FCF76DFE1B48FCF78CFE00BFEA
:104250001948FCF78DFE0028FAD11748FCF792FEAA
:1042600000BF1548FCF793FE0028FAD107B000BD47
:1042700070B50024002500BF11E001210E48FCF7B5
:1042800090FE00BF02210C48FCF7FCFF0128F9D189
:104290000948FCF719FF204484B2681CC5B20A2DF6
:1042A000EBDB0A20FEF713FE0A2094FBF0F080B24D
:1042B00070BD0000000801400024014030B589B005
:1042C00005460C460121C802FDF7AAFB0121042086
:1042D000FDF7A6FB4FF48070ADF8200018208DF894
:1042E000230003208DF8220008A94448FDF7DCF8DC
:1042F0004FF40060ADF8200018208DF82300032053
:104300008DF8220008A93D48FDF7CEF8ADF8185009
:10431000ADF814400020ADF81A00ADF8160005A95C
:104320003748FDF759FD7020ADF804000120ADF8C5
:1043300006000020ADF80A00ADF80C0001A93048D5
:10434000FDF787FD01A92E48FDF75DFE01212C48F0
:10435000FEF7AAF808212A48FEF7CAF908212848DA
:10436000FEF7E5F901212648FEF792F901212448DC
:10437000FEF78EF809B030BD7FB505460C46012129
:104380000846FDF75AFB01218807FEF75BFBADF8F5
:104390000850ADF804400020ADF80A00ADF8060062
:1043A00001A94FF08040FDF717FD0122114690074B
:1043B000FEF789F81C208DF8000000208DF8010020
:1043C00003208DF8020001208DF803006846FCF7F9
:1043D000ECFC01218807FEF75BF87FBD10B50121D9
:1043E0008807FEF71EFB40B106480068401C0549DF
:1043F000086001218807FEF725FB10BD0008014079
:10440000002C01400C02002010B50246104600E0CE
:10441000401C03782C2BFBD100E0401C03783A2B86
:10442000FBD1401C401C0378312B02D101234B608F
:1044300001E000234B6000E0401C03783A2BFBD1E5
:10444000401C401C0378302B01D100238B60037883
:10445000303B03EB83035B008B60401C0378303BF5
:104460008C6823448B608B680A2B06D1431C18464A
:104470001B78302B01D164238B6010BD7047000086
:104480001CB50C46064B7B4469460090204600F064
:10449000C8FA04460020694600F0D6FA20461CBD42
:1044A000BF0500000FB4044910B503AA029800F03C
:1044B000E7FA10BC5DF814FBB80100200FB41CB57E
:1044C000084B06AA7B4469460090059800F0A9FABB
:1044D00004460020694600F0B7FA20461CBC5DF88F
:1044E00014FB00008105000070B504468569006872
:1044F000C10601D5302600E02026C00707D070BDD8
:10450000D4E9012130469047206A401C20626D1E8C
:10451000F6D570BD70B5044685690078C00707D12F
:1045200070BDD4E9012120209047206A401C206200
:104530006D1EF6D570BD70B50C460546012A05D036
:104540002878800600D5EA69002302E0012305E00F
:104550005B1C934202D2E05C0028F9D1A869E618FE
:10456000C01AA861286A184428622846FFF7BCFFD1
:1045700004E0D5E9012114F8010B9047B442F8D3C7
:104580002846FFF7C7FF70BD2DE9F041064600241D
:1045900010687529314616A510D000F0BDF9002825
:1045A00002DA404213A507E031688A0701D512A557
:1045B00002E0490704D511A5012401E000F0B5F996
:1045C00000210A2206F1240709E0B0FBF2FCB0FB4F
:1045D000F2F302FB1C00303078541846491C0028C6
:1045E000F3D123462A463046BDE8F04100F0A6B993
:1045F000000000002D0000002B0000002000000043
:10460000F0B40D460188090502D5214C7C4402E036
:104610001F4C7C440E34002100F1240608E002F017
:104620000F071209E75D42EA03721B097754491C20
:1046300052EA0307F3D102780023120704D5702D44
:1046400006D009B1022311342246F0BC00F076B93D
:1046500001231034F8E770B504460D462146106872
:1046600000F063F9024629462046BDE87040002369
:10467000C6E7D21D22F00703D3E90023C0E7036891
:10468000126843F0200303600823C3610023B7E7E7
:104690006C3F00002DE9F05F894604464FF0000AA8
:1046A000DFF874B1FB44C0F820A02046E1688847D9
:1046B000002874D0252806D0D4E901219047206A2B
:1046C000401C2062F1E700265F462046E1688847EB
:1046D0002028054607DB312D05D2781910F8200C6B
:1046E00008B10643F1E7B00701D526F00406C4F887
:1046F0001CA00027C4F818A02A2D09D0284601F0D4
:10470000A8FB38B304EB8708303DC8F8185019E00F
:1047100059F8041B204604EB87029161E168884741
:10472000012F054618D1E069002820DA26F020067E
:104730001DE0D8F8180000EB800005EB4000303891
:10474000C8F818002046E1688847054601F081FB5B
:104750000028EED1012F0AD02E2D08D12046E16885
:1047600088477F1C0546022F46F02006C4DBA0695F
:10477000002803DA404246F00106A061F00701D0AC
:1047800026F010066C2D0BD0682D09D04C2D39D099
:104790006A2D35D0742D35D07A2D33D016E038E01F
:1047A000E1682F4620468847B842054609D16C2F5C
:1047B00026D04FF48060E1680643204688470546CE
:1047C00004E06C2F1AD04FF4807006430DB3A5F1AE
:1047D0004100192802D8203546F400664A46294689
:1047E000204626604E46FBF7FDFC80B101280BD029
:1047F000F61D26F0070000F1080956E74020E4E71F
:104800008020D8E70020D6E706F104094DE72846C6
:1048100052E7206ABDE8F09FFC3E000030B5054637
:104820000B462A4613F8014B12F8010B08B1A042BF
:10483000F8D01CB1002802D06D1CF1E7284630BD2D
:1048400010B5431C02E010F8011B71B18107FAD1C9
:104850004FF0013202C88C1A8C4314EAC211F9D00D
:10486000C01A0A0603D0C01E10BDC01A10BD0A042B
:1048700001D0801E10BD0902FCD0401E10BD4FF0BB
:1048800000020429C0F0128010F0030C00F01B801D
:10489000CCF1040CBCF1020F18BF00F8012BA8BF2B
:1048A00020F8022BA1EB0C0100F00DB85FEAC17CEF
:1048B00024BF00F8012B00F8012B48BF00F8012BA2
:1048C00070474FF0000200B51346944696462039D3
:1048D00022BFA0E80C50A0E80C50B1F12001BFF4B9
:1048E000F7AF090728BFA0E80C5048BF0CC05DF81F
:1048F00004EB890028BF40F8042B08BF704748BF6D
:1049000020F8022B11F0804F18BF00F8012B7047E0
:10491000704770477047704709684A0501D540B233
:104920007047C905FCD500B2704709684A0501D532
:10493000C0B27047C905FCD580B270472DE9F04779
:104940000D4699469246044600F1240801688806FF
:1049500004D5E06921F01001216000E00120A842A7
:1049600001DD471B00E00027A1697A1902EB09006D
:10497000081AA0612078C00602D42046FFF7B4FDD3
:10498000002608E0D4E901211AF806009047206AC1
:10499000401C761C20624E45F4DB2078C0060AD508
:1049A0002046FFF7A1FD06E0D4E901213020904721
:1049B000206A401C2062381EA7F10107F4DC07E0E2
:1049C000D4E9012118F805009047206A401C2062B4
:1049D000281EA5F10105F3DC2046FFF79BFD20789A
:1049E000000602D50220BDE8F0870120FBE7116830
:1049F0000268006A530501D508700AE0D30501D5A5
:104A0000088006E0130603D5C217C1E9000200E0E2
:104A1000086001207047000001694A1C02610878A3
:104A2000704700B58FB0CDE90131002105910549EE
:104A30007944CDE9031011466846FFF72BFE0FB00D
:104A400000BD0000E5FFFFFF0A6802F8010B0A60E5
:104A5000704710B5436913B1AFF3008001E0FFF771
:104A60006AFD012010BD127800F124010A700022B5
:104A70004A700122EDE711684FF0FF32E9E70000CC
:104A8000074B70B50D467B44FFF7CBFF0446284625
:104A900000F0C2FC10B14FF0FF3070BD204670BD79
:104AA000A3E4FFFF2DE9FF5F15468A460446DFF8C1
:104AB000AC80F8440027D8E900103E46CDE900104C
:104AC00010E03AF816106A4602A800F0A9FC411C52
:104AD00007D02178890603D5E269391891420DD8AB
:104AE0000744761C2078800602D5E069B84205DDCF
:104AF000AE42E6DB3AF816000028E2D1A069C01BFE
:104B0000A0612046FFF7F0FCD8E90010CDE90010C5
:104B1000002017E03AF818106A4602A800F080FC5E
:104B2000B0F1FF3F81460BD000250DF1080B05E0E9
:104B3000D4E901211BF8050090476D1C4D45F7D3C2
:104B400008F10100B0428046E4DB206A384420626C
:104B50002046FFF7DFFCBDE8FF9F0000023B00009E
:104B60002DE9F0418046D21D22F007020025D2E94E
:104B70000002F52915A614D0011E72F1000106DA13
:104B80000023D0EB030063EB020211A608E0D8F883
:104B900000108B0701D50FA602E0490701D50EA62C
:104BA00001251146002408F1240704E000F04EF826
:104BB00030323A55641C50EA0102F7D12B46324696
:104BC00021464046BDE8F041FFF7B8BE00000000B6
:104BD0002D0000002B0000002000000030B4002158
:104BE00000F1240408E002F00705D208303542EA5B
:104BF0004372DB086554491C52EA0305F3D104688B
:104C0000002310A2250708D504F020040C4304D08B
:104C1000C46901230CA2641EC46130BCFFF78EBEC0
:104C200010B5044621461068FFF77FFE0246204675
:104C3000BDE810400023D1E7D21D22F00701D1E9E1
:104C40000023CBE7000000003000000030B5B0F1D9
:104C50000A024FEA900E71F100034EEA817EB0EB3A
:104C60000E0061EB91014FEA101E4EEA017E10EB3F
:104C70000E0041EB11114FEA102E4EEA016E10EBBF
:104C80000E0041EB11214FEA104E4EEA014E10EB9F
:104C90000E0041EB1141401841F100014FEAD000F4
:104CA00040EA41704FEAD10110EB80054FEA8104E0
:104CB00044EA907444EB01046D1944EB0404521B64
:104CC000A3414FF0000348BF0A3200D530BD401C5D
:104CD00041F1000130BD70472DE9FF4F0C461E46E3
:104CE0004FF0FF378BB0D2E90001DDF860800A9009
:104CF0008A46C1F30A5505B93D46002108464FF0E2
:104D00000000BAF1000F00F4400005DA00EB80006B
:104D10004FF4400101EA50004FEA9059B9F1010FF8
:104D200000DDB9460A9850EA4A000ED044F6105009
:104D3000A5F2FF3545432F14B8F1000F1ED0754280
:104D4000291E1EDDC9F100021CE0B8F1010F4FF071
:104D5000000001D0302103E0F24305E02154401C63
:104D6000B042FBDB30460022002121540B99C1F8F0
:104D70000880C1E900200FB0BDE8F08FBD1B6D1C9D
:104D8000DEE74A4600DA694206A800F0DBFB06AB24
:104D900093E8070003AB83E8070050460A9900F048
:104DA00089FC8DE80700A0F500501F38009003989B
:104DB000002D09DD42F21F014A46084403A9039071
:104DC000684600F0E8FE08E0A0F500504A461F38AB
:104DD00003A90390684600F0F2FE8DE80700000486
:104DE000000C03D04FF0FF30410800E01046B8F14E
:104DF000000F03D00022009215461EE0751E05D458
:104E0000FFF724FF303262556D1EF9D5B3460122FB
:104E1000084302D000227F1C04E02078302801D112
:104E200000227F1E002A099786D01DE0112D07DA87
:104E3000FFF70CFF303262556D1C50EA0102F5D1CC
:104E4000084302D00098C8B10EE00021681E05E0BA
:104E5000235C625C63542254401E491C8142F7DB90
:104E6000AB46A81B401E0990002004F80B000B98CD
:104E7000099AC0F80880C0E9002B7CE711264FF0A2
:104E8000000859E72DE9F04F88460446D21D22F06C
:104E9000070191B0D1E90001CDE90A0100F0C5FF99
:104EA00002460B98C00F01D02D2007E02068810733
:104EB00001D52B2002E0202101EAC000032A09903D
:104EC00001D0072A05DB03464146204600F0FAFAE6
:104ED0000BE12078800601D5E06900E00620B8F1FA
:104EE000650F814606D0B8F1660F18D0B8F1670F8C
:104EF00070D131E00020B9F1110F009001DB1123D6
:104F000001E009F101030AAA01A90CA8FFF7E4FED8
:104F1000DDE90C70002609F10105834647E0012018
:104F20004B4600904FF000470AAA01A90CA8FFF7D2
:104F3000D3FEDDE90DB00C995D46002610B909F1EC
:104F400001000D18B9EB050003D4C0F1FF3609F1DB
:104F50000105A5EB09002BE0B9F1010F01DA4FF0D3
:104F600001090020B9F1110F0090484601DD11231D
:104F700000E003460AAA01A90CA8FFF7ADFEDDE98F
:104F80000C704D4600268346207800070AD4AB45B6
:104F900000DA5D4601A8012D04DD411911F8011C5C
:104FA000302907D04F4502DA17F1040F04DA012047
:104FB00082460FE06D1EEEE7002F02DCED1B3E4443
:104FC00003E0781CA84200DD7D1CB81B00F1010A3B
:104FD0004FF000472078000703D4AA4501DB4FF0CB
:104FE000FF3A0021B7F1004F0DF143088DF843104F
:104FF00024D002202B23002F01DA7F422D230A2107
:10500000021EA0F1010000DC5FB197FBF1FC97FBF1
:10501000F1F201FB1C7C17460CF1300C08F801CDB5
:10502000EEE7A8F1010003702188090501D54521AB
:1050300000E06521A0F1010800F8011C09980FA902
:10504000A1EB0807FF1D00B10120411901EBEA7037
:10505000A1693844081A401EA0612078C00602D415
:105060002046FFF741FA099828B1D4E90121904779
:10507000206A401C20622078C00622D52046FFF717
:1050800033FA1EE0002E04DBB34502DD01A8805D8B
:1050900000E03020D4E901219047206A401C2062C2
:1050A000761CAAF101005FEA000A0AD100F006FAB4
:1050B000C0680168405CD4E901219047206A401C27
:1050C0002062281EA5F10105DCDC07E0D4E90121FE
:1050D00018F8010B9047206A401C2062381EA7F187
:1050E0000107F3DC2046FFF715FA032011B043E671
:1050F0002DE9F04F04460D46D21D22F0070089B07D
:10510000D0E9009248461746394600F08EFE024626
:10511000F80F01D02D2307E02068810701D52B234C
:1051200002E0202101EAC0038DF820300BB10120FC
:1051300000E00020032A824601D0072A04DB29462A
:10514000204600F0BFF93DE12078800601D40D250E
:1051500000E0E569C7F30A560D2D49DA00214FEA50
:10516000175B08464FF00000002F00F4400007DAFC
:1051700000EB80004FF4400100EBD07001EA6000CA
:105180008115012901DD4FF0FF3100224FEA850C26
:10519000BCF1180F06D31346ACF118004FF0805243
:1051A000C24003E04FF4801323FA0CF30CF10C0C13
:1051B000BCF1200F04D3ACF1200C09FA0CF001E093
:1051C00007FA0CF000294FF0004801DD18B90FE094
:1051D0000ED140450CD319EB02095F4121B940457E
:1051E00002D19F4329EA0209BBEB175F00D0761C6E
:1051F0002088000502D57B48784402E0794878444D
:10520000193808AA302302F80A30037C0AF1010198
:10521000002E0AF1020A53546A4602DC4FF03001B4
:1052200001E04FF031014FF001088DF8001002D07D
:10523000A6F2FF3603E059EA470100D06A4E002D7E
:1052400002DC2178090704D54FF002082E218DF8E1
:105250000110C44600210BE0C7F303433F01C35CC8
:10526000491C6D1E02F80830052908F1010801DA11
:10527000002DF1DC00210CE000EB1973491C1B78B8
:105280006D1E082902F808304FEA091908F10108D3
:1052900001DA002DF0DC2178890602D514E0A8F1AE
:1052A0000108E04505DD02EB080111F8011C302979
:1052B000F5D0B8F1000F07DD02EB080111F8011C71
:1052C0002E2901D1A8F10108002D05DD3E2102F8AB
:1052D00008106D1E08F10108407C002E02F808003D
:1052E00008F1010804DA2D20764202F8080002E0F5
:1052F0002B2002F808000A214FF47A70864208F148
:1053000001080BDB96FBF0F3303302F8083096FB14
:10531000F0F308F1010800FB136601E0642E0CDBDA
:10532000642096FBF0F3303302F8083096FBF0F37C
:1053300008F1010800FB136601E00A2E06DB96FB6C
:10534000F1F0303002F8080008F1010896FBF1F0A6
:1053500001FB1060303002F80800A16908F1010873
:1053600008EB050202EB0A00081AA0612078C006CB
:1053700002D42046FFF7B8F8216A08AE01EB0A0014
:10538000206204E0D4E9012116F8010B9047BAF13C
:10539000010AF7D22078C00602D52046FFF7A4F80C
:1053A0006E4609E016F8010B3E280FD0D4E9012122
:1053B0009047206A401C2062B8F10108F2D22046D2
:1053C000FFF7A8F809B00320BDE8F08F206A284451
:1053D000206203E0D4E90121302090476D1EEBD319
:1053E000F8E70000D733000002FCFFFF10B5436967
:1053F00013B1AFF3008001E0FFF754FB012010BDB3
:10540000128800F1240182840022C2840122EDE787
:1054100011684FF0FF32E9E7007B00F08000704731
:1054200070B516460C46054600F040F8036893F840
:105430000101012806D0FF2C0FD8185D68B10120AA
:105440002C7070BDD3F807013246214603F20713D2
:1054500003442846BDE8704018474FF0FF3070BD48
:10546000754600F0E3F8AE4605006946534620F065
:105470000700854618B020B5FAF72CFFBDE820409C
:105480004FF000064FF000074FF000084FF0000B00
:1054900021F00701AC46ACE8C009ACE8C009ACE8B3
:1054A000C009ACE8C0098D467047000010B500F097
:1054B00005F8001D10BD00BFD50900000048704769
:1054C000540F00202DE9F0411F46044603260168D1
:1054D000072A01F4006004DB08B116A505E016A553
:1054E00003E008B115A500E015A521F0100020602B
:1054F000A069C01EA0610FB1401EA0612046FEF74A
:10550000F3FF4FB1D4E9012138469047206A401C8F
:105510002062C01C206206E0206AFAE7D4E901217B
:1055200015F8010B9047761EF8D22046FEF7F2FFE1
:10553000BDE8F0814E414E006E616E00494E46005E
:10554000696E66002DE9F047814616468AB03348F9
:1055500078440DC88DE80D0030487844801C03ACB9
:105560000DC884E80D0041F69B300844372190FBBC
:10557000F1F290FBF1F5A5F1800501FB12041B3C53
:1055800002D56442012000E00020DFF890A08046B0
:105590000027FA44AAF1BE0A0DE0E00709D032461E
:1055A000684607EB47010AEB810100F008FB8DE834
:1055B000070064107F1C002CEFD1184F7F44AC3FD4
:1055C00018E0E80714D007EB04100DF1180A90E872
:1055D0000E008AE80E00C068F04201D198190890C8
:1055E000324606A903A800F0EAFA03AB83E80700F5
:1055F0006D10641C002DE4D132466946B8F1000FED
:1056000003A802D000F0C7FA01E000F0D8FAC9E917
:105610000001C9F808200AB0BDE8F0871031000089
:105620000446AFF300802046FAF73FFE004870477B
:10563000340F00204FF0013C50F8042B51F8043B8C
:105640009A4221D1A2EB0C03934313EACC1317D156
:1056500050F8042B51F8043B9A4215D1A2EB0C03ED
:10566000934313EACC130BD150F8042B51F8043BAD
:105670009A4209D1A2EB0C03934313EACC13DBD07B
:105680004FF00000704700BFD01A01BAB1FA81F1A3
:1056900001F0180122FA01F0CB40C1F12001DBB288
:1056A000C0B2C01A2CFA01F3D11A914311EAC31106
:1056B000E6D170475FEA400C08BF91F0000F4FEA57
:1056C0008C234FEAC12243EA51514FEA1C5018BFC4
:1056D00000F5F0404FEA300018BF41F000415FEAAA
:1056E0006C5C00F02980BCF1FF3F08BF40F08040B7
:1056F0007047130C06BF12044FF0100C4FF0000C53
:10570000130E04BF12020CF1080C130F04BF120198
:105710000CF1040C930F04BF92000CF1020CD30F98
:1057200004BF52000CF1010C11464FF00002A0F131
:105730001F00A0EB0C00704711F0004F08BF70472E
:1057400031F000413FF4D5AF0B0C06BF09044FF018
:10575000100C4FF0000C0B0E04BF09020CF1080CEA
:105760000B0F04BF09010CF1040C8B0F04BF89005F
:105770000CF1020CCB0F04BF49000CF1010CCCF171
:105780002003A0EB0C0022FA03F302FA0CF241EA28
:10579000030100F10100704720F07F4C80EA030014
:1057A00023F07F47ACEB070303F57C5300F0004088
:1057B00003F1FF032DE980494FEA154B09B44FEA85
:1057C000144325EA0B4E24EA03480FF2042606EBA5
:1057D000132749083E785FEA320203FB0667C7F5E4
:1057E000000707FB06F64FEA54374FEAD64606F1A4
:1057F000020607FB066CCCF1005C4FEA1C472CEA62
:10580000074C07FB06F40CFB06F504EB15464FEAC4
:10581000961634BF00204FF000404FEAD13706FB08
:1058200007FC4FEA1C4C0CFB0BF7D21B03FB0CF7DD
:1058300061EB07010CFB0EF7B0EB074072EB174270
:105840000CFB08F734BFA2EB0742B2EB074261EB57
:1058500017414FEA0C444FEA910706FB07FC4FEA59
:105860001C4C0CFB0BF7B0EBC74072EB573203FB41
:105870000CF734BFA2EBC742B2EBC74261EB573122
:105880000CFB0EF7B0EBC70072EB57720CFB08F77E
:1058900034BFA2EBC702B2EBC70261EB5771039FA3
:1058A0004FEA816141EA921104EBCC044FEAD1370F
:1058B0004FEA826206FB07FC42EA90124FEA8060E0
:1058C0004FEA1C4C0CFB0BF7D21B03FB0CF761EBF4
:1058D00007010CFB0EF7B0EB074072EB17420CFB15
:1058E00008F734BFA2EB0742B2EB074261EB174166
:1058F0004FEA8C554FEA910704EB9C2406FB07FC0A
:105900004FEA1C4C0CFB0BF7B0EBC74072EB573265
:1059100003FB0CF734BFA2EBC742B2EBC74261EB0B
:1059200057310CFB0EF7B0EBC70072EB57720CFB54
:1059300008F734BFA2EBC702B2EBC70261EB5771A5
:1059400015EB4C254FEA816141EA92114FEA8262E0
:105950004FEAD13742EA901206FB07FC44F10004FB
:105960004FEA80604FEA1C4C0CFB0BF7D21B03FB89
:105970000CF761EB07010CFB0EF7B0EB074072EB85
:1059800017420CFB08F734BFA2EB0742B2EB074209
:1059900061EB174115EB1C154FEA813141EA924149
:1059A0004FEA823242EA90424FEA80304FEA0C7668
:1059B00044F1000448EA03434EEA0B484FF0000E5E
:1059C000B2EB080C71EB030724BF624639464EEB7D
:1059D0000E0E4FF0000B0018524149414BEB0B0BE0
:1059E000B2EB080C71EB03077BF1000B24BF62469E
:1059F00039464EEB0E0E4FF0000B00185241494154
:105A00004BEB0B0BB2EB080C71EB03077BF1000BBC
:105A100024BF624639464EEB0E0E51EA020718BF0C
:105A200046F0010616EB0E7655F1000254F1000126
:105A300003D5BDE88901BDE80088BDE88901BDE85E
:105A40000048B619524141EB0101A3F1010370472F
:105A500080807F7E7D7C7B7A7978777676757473AB
:105A6000727171706F6E6E6D6C6C6B6A6A6968686A
:105A7000676666656464636362616160605F5F5E00
:105A80005E5D5D5C5C5B5B5A5A5959585857575676
:105A900056555555545453535252525151505050DB
:105AA0004F4F4F4E4E4D4D4D4C4C4C4B4B4B4A4A2D
:105AB0004A49494948484847474747464646454571
:105AC00045444444444343434342424242414141AA
:105AD000002B26D4770021D01CB54FEA370703B43A
