:020000040800F2
:10000000A0280020392E0008CD290008CF2900089B
:10001000D9290008DD290008E129000800000000B6
:10002000000000000000000000000000E5290008BA
:10003000E7290008000000004F2E0008A95600081C
:10004000532E0008532E0008532E0008D126000816
:10005000532E0008532E0008532E0008532E00087C
:10006000532E0008532E0008B14C0008532E0008F0
:10007000532E0008532E0008532E0008532E00085C
:10008000532E0008532E0008532E0008532E00084C
:10009000532E0008532E0008532E0008532E00083C
:1000A000532E0008532E0008532E0008532E00082C
:1000B000532E0008532E00085F2B0008532E000813
:1000C000532E0008532E0008532E0008532E00080C
:1000D000532E0008E9290008632A0008C72A0008EF
:1000E000532E0008532E0008532E0008532E0008EC
:1000F000532E0008532E0008532E0008532E0008DC
:10010000532E0008532E0008892B0008532E000898
:100110001F2B0008532E000897600008B32B00081F
:10012000532E0008532E0008532E0008532E0008AB
:1001300000F002F800F0B0F80AA090E8000C824449
:100140008344AAF10107DA4501D100F0A5F8AFF226
:10015000090EBAE80F0013F0010F18BFFB1A43F0A5
:10016000010318471C7C00003C7C00000A444FF04F
:10017000000C10F8013B13F0070408BF10F8014B06
:100180001D1108BF10F8015B641E05D010F8016B4B
:10019000641E01F8016BF9D113F0080F1EBF10F8AF
:1001A000014BAD1C0C1B09D16D1E58BF01F801CBD2
:1001B000FAD505E014F8016B01F8016B6D1EF9D555
:1001C0009142D6D37047000000230024002500266A
:1001D000103A28BF78C1FBD8520728BF30C148BFAA
:1001E0000B6070476E2906F0DC82702906F085806E
:1001F000662907F02D85652907F02A85672907F00C
:100200002785612907F0268503681B0A28BF41F06E
:100210008001692905F0F687642905F0F3877529BF
:1002200005F0F0876F2906F0D583782906F0518014
:10023000E92906F06F83E42906F06C83F52906F0BE
:100240006983EF2906F0D283F82906F0508003680D
:10025000DB0928BF41F08001632906F0DE827329A3
:1002600006F0E382E32906F0D787F32906F0DC875E
:10027000002070471FB507F02DF804000020002172
:1002800007F0D0FC401C60600020002107F0B4FCA7
:10029000E0601FBD10B510BD06F0EEFF1146FFF780
:1002A000E9FF00F00BF807F0C7F803B4FFF7F2FF1F
:1002B00003BC02F02BFB000030BF00004FF4A06035
:1002C00002F0DAFD05F0BFF905F02AFC05F0D7FED3
:1002D0004FF4165001F0E6FE4FF4E13002F026FB39
:1002E0004FF4E13002F00AF800F091FB04F0F6FF61
:1002F00005A005F015FF05E001F016FD04F0EAFF8A
:1003000005F094FCF8E7000068656C6C6F20776F6F
:10031000726C640010B50446F6A1204606F092F90E
:1003200010B9F648006810BDF5A1204606F08AF91C
:1003300010B9F5480068F6E7F4A1204606F082F906
:1003400010B9F4480068EEE7F3A1204606F07AF908
:1003500010B9F3480068E6E7F2A1204606F072F90A
:1003600010B9F2480068DEE7F1A1204606F06AF90C
:1003700010B9F1480068D6E7F0A1204606F062F90E
:1003800010B9F0480068CEE7EFA1204606F05AF910
:1003900010B9EF480068C6E7EEA1204606F052F912
:1003A00010B9EE480068BEE7EDA1204606F04AF914
:1003B00010B9ED480068B6E7ECA1204606F042F916
:1003C00010B9EC480068AEE7EBA1204606F03AF918
:1003D00010B9EB480068A6E7EAA1204606F032F91A
:1003E00010B9EA4800689EE7E9A1204606F02AF91C
:1003F00010B9E948006896E7E8A1204606F022F91E
:1004000010B9E84800688EE7E7A1204606F01AF91F
:1004100010B9E748006886E7E6A1204606F012F921
:1004200010B9E64800687EE7E5A1204606F00AF923
:1004300010B9E648006876E7E5A1204606F002F923
:1004400010B9E64800686EE7E5A1204606F0FAF824
:1004500010B9E648006866E7E5A1204606F0F2F824
:1004600010B9E64800685EE7E5A1204606F0EAF824
:1004700010B9E648006856E7E5A1204606F0E2F824
:1004800010B9E64800684EE7E5A1204606F0DAF824
:1004900010B9E748006846E7E6A1204606F0D2F822
:1004A00010B9E74800683EE7E6A1204606F0CAF822
:1004B00010B9E848006836E7E7A1204606F0C2F820
:1004C00010B9E94800682EE7E8A1204606F0BAF81E
:1004D00010B9E948006826E7E8A1204606F0B2F81E
:1004E00010B9EA4800681EE7E9A1204606F0AAF81C
:1004F00010B9EB48006816E7EAA1204606F0A2F81A
:1005000010B9EC4800680EE7EBA1204606F09AF817
:1005100010B9ED48006806E7ECA1204606F092F815
:1005200010B9ED480068FEE6ECA1204606F08AF816
:1005300010B9ED480068F6E6ECA1204606F082F816
:1005400010B9ED480068EEE6ECA1204606F07AF816
:1005500010B9ED480068E6E6ECA1204606F072F816
:1005600010B9EB480068DEE6EAA1204606F06AF81A
:1005700010B9E9480068D6E6E8A1204606F062F81E
:1005800010B9E7480068CEE6E6A1204606F05AF822
:1005900010B9E5480068C6E6E4A1204606F052F826
:1005A00010B9E3480068BEE6E2A1204606F04AF82A
:1005B00010B9E1480068B6E68BA1204606F042F883
:1005C00010B9DE480068AEE68FA1204606F03AF882
:1005D00010B9DB480068A6E6DAA1204606F032F83A
:1005E00010B9DB4800689EE6DA489CE60FB42DE9B6
:1005F000F04188B00446002710A80790D6A10F98B4
:1006000005F09AFD11E0079820C807902846FFF7EB
:1006100081FE804643462A46D0A1684605F08CFDFF
:1006200069460F9805F074FF641E002CEBDC0F98F0
:1006300005F04FFF06467D200F99314401F8010C6B
:100640000020079008B0BDE8F0015DF814FB0FB47E
:100650002DE9F04188B00446002710A80790BEA1FC
:100660000F9805F069FD11E0079820C8079028460B
:10067000FFF750FE804643462A46BBA1684605F078
:100680005BFD69460F9805F043FF641E002CEBDC10
:100690000F9805F01EFF06467D200F99314401F8A2
:1006A000010C0020079008B0BDE8F0015DF814FBD4
:1006B00000B5C3B071A071A111A30EA2CDE90010C5
:1006C00003A90420FFF792FF03A9AAA005F028FDC3
:1006D00043B000BD10B59E48006850B9A6480068F8
:1006E000642806DAA4480168A4A005F019FD0024D6
:1006F0005FE165E16D696E5431000000000000208B
:100700006D61785431000000040000206D696E5462
:1007100032000000080000206D61785432000000B3
:100720000C0000206D696E483100000010000020B0
:100730006D61784831000000140000206D696E483A
:1007400032000000180000206D617848320000007F
:100750001C0000206D696E4931000000200000205F
:100760006D61784931000000240000206D696E49F8
:1007700032000000280000206D617849320000003E
:100780002C0000206D696E53310000003000002005
:100790006D61785331000000340000206D696E53A4
:1007A00032000000380000206D61785332000000F4
:1007B0003C0000206175746F0000000040000020C4
:1007C0006C696768745374617475730090010020DC
:1007D0006C6967687450574D000000009401002058
:1007E00066616E5374617475733100009801002066
:1007F00066616E5370656564310000009C010020E5
:1008000066616E537461747573320000A00100203C
:1008100066616E537065656432000000A4010020BB
:100820006D6F746F725374617475733100000000E2
:10083000A80100206D6F746F72537065656431009C
:10084000AC0100206D6F746F7244697265637469E6
:100850006F6E3100B00100206D6F746F7253746160
:100860007475733200000000B40100206D6F746F66
:100870007253706565643200B80100206D6F746F4B
:1008800072446972656374696F6E3200BC01002046
:10089000696E667261726564537461747573310058
:1008A000C0010020696E6672617265645374617480
:1008B00075733200C401002062757A7A65725374D0
:1008C0006174757300000000C80100204C4544535A
:1008D0007461747573310000CC0100204C454453A1
:1008E0007461747573320000D00100204C4544538C
:1008F0007461747573330000D40100204C45445377
:100900007461747573340000D801002068310000F0
:10091000DC01002068320000E0010020743100009A
:10092000E401002074320000E80100206931000079
:10093000EC01002069320000F0010020F4010020E9
:10094000F80100206F6E6C696E65436F646500008E
:100950005800002019FCFFFF7B00000022257322B5
:100960003A25642C00000000222573223A222564D7
:10097000222C0000257300005C000020B4E6B4A225
:10098000C0EBCFDFCAFDBEDD202564200D0A0000CC
:100990000C4901EB0410FFF7BDFC0B49096801EBA2
:1009A000C10202EB0111094A02EB011141F82400D6
:1009B000641C092CECDB04480068401C02490860F8
:1009C00010BD7047700000205C00002080020020F5
:1009D00010B5FF21904805F0ECFD00208F490880FC
:1009E0008F49087010BD70B504460D462946204653
:1009F00001F002FD02218BA001F0FEFC70BD70B57C
:100A000004460D462946204601F0F6FC70BD2DE94E
:100A1000F041A8B00026002500BFF6E082A18BA01F
:100A200000F0DFFA0546002D3BD000BF5C218CA012
:100A300005F044FD28B15C2189A005F03FFD401C74
:100A400000E087A0044604F02CFE07464F208E4BA2
:100A500022463946CDE900058CA005F061FB00BFB8
:100A600015F1040F14D015F1030F0DD015F1020F7D
:100A700006D0B5F1FF3F0FD194A005F051FB0FE078
:100A800097A005F04DFB0BE099A005F049FB07E0AE
:100A90009CA005F045FB03E09EA005F041FB00BFD4
:100AA000B1E00120A049086000BF5C216CA005F006
:100AB00005FD28B15C216AA005F000FD401C00E0A6
:100AC00067A0074604F0EDFD804661206E4B3A4674
:100AD0004146009095A005F023FB00BF01220721AD
:100AE0009FA000F0ECFA002481E004EBC40000EBCE
:100AF00004109D4901EB001000689C49086004EB5C
:100B0000C40000EB0410984901EB001040689849BC
:100B1000086004EBC40000EB0410934901EB0010E3
:100B200080689449086004EBC40000EB04108E490F
:100B300001EB0010C0689049086004EBC40000EBB2
:100B40000410894901EB001000698C49086004EB2E
:100B5000C40000EB0410844901EB0010406988498F
:100B6000086004EBC40000EB04107F4901EB0010A7
:100B700080698449086004EBC40000EB04107A49E2
:100B800001EB0010C069804908608048006800EBF4
:100B9000C00101EB0010744901EB0010006A7C49B0
:100BA00008607CA07EA182A282A3CDE90432CDE9B7
:100BB000061081A081A182A282A3CDE90032CDE9F5
:100BC000021081A381A208A90A20FFF70FFD08A83F
:100BD00005F07FFCC7B20122394608A800F06FFA81
:100BE0006A480068401E69490860641C00BF784874
:100BF000006820B96548006800283FF776AF0120FB
:100C00007349086004E0701CC6B2042EFFF606AFFC
:100C100000BF28B0BDE8F081E818002020010020C6
:100C2000220100200D0A0000363835396231353690
:100C300031393231343439333862333738626239DA
:100C400032376161333136610000000051756575DE
:100C5000654D616368696E656C6F7430303100009A
:100C60002E2E5C6170705C57694669546F436C6FDF
:100C700075645C48414C5F57694669546F436C6FBB
:100C800075642E6300000000587C00085B256C64CE
:100C90005D5B2538735D5B2538735D5B252D3364A3
:100CA0005D5B4552524F5D3A20436F6E6E656374D3
:100CB00020546F20536572766572204552524F5210
:100CC000202564202C20200D0A000000C9E8D6C38E
:100CD000D5BEB5E3C4A3CABDCAA7B0DC0D0A0000E7
:100CE000C1ACBDD357494649CAA7B0DC0D0A0000C4
:100CF000C1ACBDD35043B7FECEF1C6F7CAA7B0DC36
:100D00000D0A0000B6A9D4C4D6F7CCE2CAA7B0DC5D
:100D10000D0A0000436F6E6E656374CEB4D6AAB43C
:100D2000EDCEF30D0A000000080200205B256C6484
:100D30005D5B2538735D5B2538735D5B252D336402
:100D40005D5B4552524F5D3A20436F6E6E65637432
:100D500020546F20536572766572204F4B0D0A0048
:100D60007B2271223A317D0080020020EC010020BC
:100D7000F0010020DC010020E0010020E40100205F
:100D8000E8010020F4010020F80100205C000020B0
:100D9000C00100206F6E6C696E65436F6465000072
:100DA000696E667261726564537461747573310043
:100DB000733200007331000074320000743100009F
:100DC00068320000683100006932000069310000BB
:100DD0005800002010B5FFF7FBFD0B21F5A0FFF731
:100DE00002FEF74804F0A9FEF6A1F74805F054FB0F
:100DF00010B94FF0FF3010BD0020FCE770B5A0B077
:100E000004460D468021684605F0F5FBFFF7E0FD3E
:100E10002B462246EDA1684605F08EF9684605F09E
:100E200058FBC6B231466846FFF7DDFDEC4804F0DA
:100E300084FEE4A1E44805F02FFB18B94FF0FF3021
:100E400020B070BD0020FBE770B5A0B004460D4691
:100E50008021684605F0CFFBFFF7BAFDE1A16846A7
:100E600005F06AF9684605F034FBC6B231466846BB
:100E7000FFF7B9FDE54804F060FED349E4A005F0B2
:100E80004FF9D0A1D04805F007FBA8B980216846EA
:100E900005F0B1FBFFF79CFDE4A1684605F04CF9B5
:100EA000684605F016FBC6B231466846FFF79BFD63
:100EB0004FF0FF3020B070BD8021684605F09BFBED
:100EC000FFF786FD2B462246DCA1684605F034F983
:100ED000684605F0FEFAC6B231466846FFF783FD64
:100EE000CA4804F02AFEB849DAA005F019F9B5A1FC
:100EF000B54805F0D1FA10B96FF00100DAE700202B
:100F0000D8E72DE9F041A0B004460D4600260027A1
:100F10008021684605F06FFBFFF75AFD2A46D4A1F1
:100F2000684605F009F9684605F0D3FA00F0FF08B5
:100F300041466846FFF757FD40F6B83004F0FDFD26
:100F4000A0A1A14805F0A8FA18B9701E20B0BDE80C
:100F5000F081FFF73DFD29462046FFF750FD214671
:100F6000C7A005F0DDF800260EE0C9A1964805F0FF
:100F700093FA10B96FF0010701E0002706E09048EE
:100F800004F0DBFD701CC6B23C2EEEDB00BF384621
:100F9000DCE770B5A0B0044600258021684605F066
:100FA0002AFBFFF715FD2246BBA1684605F0C4F8F1
:100FB000684605F08EFAC6B231466846FFF713FD63
:100FC000924804F0BAFD8049B8A005F0A9F87DA1C7
:100FD0007D4805F061FA10B9281F20B070BD284681
:100FE000FBE72DE9F043A1B08046894600240025A7
:100FF000802101A805F0FFFA00BF08E0FFF7EAFE34
:1010000008B9002505E04FF0FF35601CC4B2032C81
:10101000F4DB00BF0025002D03DA284621B0BDE82F
:10102000F08300240AE0A6A1A8A0FFF7E7FE08B914
:10103000002505E06FF00105601CC4B2032CF2DB53
:1010400000BF002D01DA2846E8E70120A149086029
:1010500000240BE040F25B719FA0FFF7F5FE08B99A
:10106000002505E06FF00205601CC4B2032CF1DB23
:1010700000BF002D01DA2846D0E700260027002413
:1010800014E099A0FFF785FF00B9012698A0FFF7AB
:1010900080FF08B901270BE0012E03D1012F01D1F8
:1010A000002505E06FF00305601CC4B2032CE8DBEB
:1010B00000BF002D01DA2846B0E72846AEE72DE94B
:1010C000F043A1B005460E4614464FF00009002734
:1010D000802101A805F08FFAFFF77AFC23463246FB
:1010E00085A101A805F028F801A805F0F2F900F0A3
:1010F000FF08414601A8FFF776FC314804F01DFDCA
:1011000030A1314805F0C8F960B92F4982A005F037
:1011100007F886480068401C84490860781E21B0A2
:10112000BDE8F083FFF754FC31462846FFF75BFC2F
:1011300029467FA004F0F4FF0CB90020EFE7204817
:1011400004F0FBFC1FA1204805F0A6F938B9774848
:101150000068401C754908606FF00100DFE7384601
:10116000DDE72DE9F041A0B004460D46002600273A
:101170008021684605F03FFA23462A4670A168465A
:1011800004F0DAFF684605F0A4F900F0FF084146D4
:101190006846FFF7B6FE002801DA771E02E1002656
:1011A000FCE077A1084805F077F910B94FF0FF3758
:1011B000EEE0EBE041542B43574D4F44453D3100A9
:1011C000A08601004F4B0000E818002041542B433B
:1011D000574A41503D222573222C222573220000BC
:1011E00060EC530041542B4D5154545553455243D8
:1011F00046473D302C312C224D33222C22222C22EA
:10120000222C302C302C22220000000060E316003B
:10121000497053746172742D555345525F436F6E1C
:101220006669673A2025730D0A00000041542B4D72
:10123000515454434C45414E3D30000041542B4DD8
:10124000515454434F4E4E3D302C222573222C25B1
:10125000642C3000497053746172742D4D51545494
:101260005F436F6E6E6563743A2025730D0A00004C
:1012700041542B43495053454E443D2564000000E2
:10128000495073656E643A2025730D0A0000000012
:1012900053454E44204F4B0041542B4D5154545311
:1012A00055423D302C222573222C31004D5154548F
:1012B0005F5375625F41636B3A2025730D0A00002E
:1012C00051464B4A363636383838000051464B4A7C
:1012D00000000000040200203139322E3136382E51
:1012E00033302E32313900007365744D3300000005
:1012F0007365744D3400000041542B4D51545450CB
:1013000055425241573D302C224D33222C25642C1E
:1013100025642C30000000004D5154545F5075621C
:10132000204661696C3A25730D0A000054000020C4
:101330004D5154545F5075623A2025730D0A0000D8
:101340007B2274223A332C22646174617479706553
:10135000223A312C226461746173223A7B22616CDF
:1013600061726D223A7B222573223A25647D7D2CA1
:10137000226D73676964223A3030317D00000000CD
:1013800022737461747573223A300000002708E0FC
:1013900042F2107004F0D1FB701CC6B2322EFFF680
:1013A00000AF00BF384620B0BDE8F0812DE9F04124
:1013B00007460E460024002562A1384605F06CF869
:1013C0000446E4B1A1796079303800EB800001EB8C
:1013D00040003038C5B25DA1384605F05DF8441CC8
:1013E0002A462146304605F09FF8002070553146C8
:1013F00057A004F095FE29465AA004F091FE284615
:10140000BDE8F0812DE9F05F81460F464FF00008FE
:1014100000240025A2460026A346AFF23411484618
:1014200005F03AF810B9FF20BDE8F09FAFF248117F
:10143000484605F031F88046B8F1000F01D1FE2092
:10144000F2E741A1404605F027F804460CB9FD201B
:10145000EAE7641C3CA1204605F01EF805460DB9DC
:10146000FC20E1E7281B00F0FF0B05F1010ABBF1AE
:10147000010F06D0BBF1020F07D0BBF1030F1DD146
:101480000DE020783038C6B21AE060783038217824
:10149000303901EB810100EB4100C6B210E0207849
:1014A0003038642148436178303901EB810100EB29
:1014B0004101A07830380844C6B201E0FB20B3E710
:1014C00000BF32465146384605F02EF83046ABE7AD
:1014D00010B5044628A1204604F0DEFF20B1062105
:1014E00027A0FFF70EFD2BE027A1204604F0D4FF34
:1014F000002825D026A1204604F0CEFF50B128A117
:10150000204604F0C9FF00281AD006211CA0FFF7CE
:10151000F8FC15E025A1204604F0BEFF80B120A113
:10152000204604F0B9FF18B125A004F0F9FD07E04A
:1015300026A1204604F0B0FF10B127A004F0F0FD72
:1015400010BD00002B4950442C0000003A00000060
:10155000CAD5B5BD4950CAFDBEDDA3BA25730D0A73
:1015600000000000CAD5B5BD4950CAFDBEDDB3A418
:10157000B6C83D25640D0A0024234154230D000004
:10158000244F4B23230D00002274223A3500000023
:1015900022617069746167223A226374726C22005E
:1015A0002264617461223A31000000002261706996
:1015B000746167223A22646566656E736522000075
:1015C000B2BCB7C0A3A10D0A000000002264617480
:1015D00061223A3000000000B3B7B7C0A3A10D0AE2
:1015E000000000002DE9F047A2B004460D46164663
:1015F0000027B846B946802102A804F0FCFF334614
:101600002246F8A102A8009504F096FD00BF02A8AA
:1016100004F05FFF00F0FF0A514602A8FFF771FCDB
:10162000002802DA4FF0FF3814E000270FE0FCA199
:10163000FD4804F031FF10B94FF0FF3802E04FF0E1
:10164000000806E0F94804F078FA781CC7B2322F97
:10165000EDDB00BFB8F1000F07D0B9F1020F04DADB
:1016600009F1010000F0FF09D1E7404622B0BDE8D2
:10167000F0872DE9F04107460E4600240025802121
:10168000EB4804F096FF3246EAA1E94804F054FD25
:10169000E749384604F000FF044614B90020BDE8CD
:1016A000F081E34804F015FF45B22C448021E04866
:1016B00004F07FFF2078222817D10025641C12E057
:1016C00020785C2806D06078222803D12078D84979
:1016D000485509E02078D6494855641C681C45B235
:1016E000632D00DB00E0EBE712E000250DE0207841
:1016F000392806DC2078302803DB2078CC4948558F
:1017000000E004E0681C45B2641C0A2DEFDB00BF5A
:101710000021C74A681C11541046C0E72DE9F04764
:1017200080460E460024A146002700258021C3489C
:1017300004F03FFF3246C2A1C04804F0FDFCBF499F
:10174000404604F0A9FE04462CB9BFA004F0E8FC12
:101750000020BDE8F087B94804F0BBFE45B22C4438
:101760008021B64804F025FF00250DE020783928B7
:1017700006DC2078302803DB2078B049485500E0AB
:1017800004E0681C45B2641C0A2DEFDB00BF002199
:10179000AA4A681C1154104604F09BFE00F0FF0991
:1017A000B9F1010F06D0B9F1020F08D0B9F1030F5A
:1017B00026D110E0A14800783038C7B221E09F4818
:1017C000407830389D490978303901EB810100EBD0
:1017D0004100C7B215E099488078303897490978B8
:1017E000303901EBC10202EB011100EB810193489A
:1017F0004078303800EB800001EB4000C7B200E0D9
:1018000000BF00BF3846A4E72DE9F14FB2B0002079
:10181000319010908F48006800287CD100240E90F1
:101820000F908D4800680D908C4800680C908CA13A
:10183000329804F031FE40B189A13298FFF76EFF73
:101840008549086001200E90641C88A1329804F03C
:1018500023FE40B185A13298FFF760FF7F49086001
:1018600001200F90641C002C24DD00247FA37CA2A7
:1018700011A90220FEF7EBFE11A803F0BDFB80B911
:101880007AA377A211A90220FEF7B0FE11A804F0F6
:1018900020FEC0B201220146029011A8FFF70FFC02
:1018A00008E06D490D9808606C490C98086072A0BA
:1018B00004F036FC744805687448066874A13298D0
:1018C00004F0EAFD30B172A13298FFF727FF6E49AC
:1018D0000860641C71A1329804F0DEFD30B16FA184
:1018E0003298FFF71BFF69490860641C002C24DD57
:1018F00000246AA366A211A90220FEF7A8FE11A87F
:1019000003F07AFB90B965A361A211A90220FEF74A
:101910006DFE11A800E004E204F0DBFDC0B201227C
:101920000146029011A8FFF7CAFB06E05648056081
:10193000564806605CA004F0F3FB5F4807685F4808
:10194000D0F800805EA1329804F0A6FD30B15CA111
:101950003298FFF7E3FE58490860641C5BA1329897
:1019600004F09AFD30B159A13298FFF7D7FE5349E0
:101970000860641C002C23DD002454A350A211A98C
:101980000220FEF764FE11A803F036FB80B94FA3D6
:101990004BA211A90220FEF729FE11A804F099FD1F
:1019A000C0B201220146029011A8FFF788FB07E0B0
:1019B000414807604148C0F8008047A004F0B0FBF0
:1019C0004948D0F800904948D0F800A04848D0F8DD
:1019D00000B0002009900A900B9046A1329804F0C4
:1019E0005BFD8FE07B2274223A332C2264617461A8
:1019F00074797065223A322C226461746173223AE0
:101A00007B222573223A7B222573223A25647D7D31
:101A10002C226D73676964223A3030317D000000FA
:101A200053454E44204F4B00E818002040420F0021
:101A300010120020222573223A00000074120020A8
:101A4000222573223A220000BFD5D7D6B7FBA3A127
:101A50000D0A0000400000209001002094010020A9
:101A60006C69676874537461747573006C69676836
:101A70007450574D000000004C69676874B6CFBFC2
:101A8000AAC1ACBDD30D0A00980100209C01002022
:101A900066616E53746174757331000066616E53D4
:101AA000706565643100000046414E31B6CFBFAA73
:101AB000C1ACBDD30D0A0000A0010020A40100208C
:101AC00066616E53746174757332000066616E53A3
:101AD000706565643200000046414E32B6CFBFAA41
:101AE000C1ACBDD30D0A0000A8010020AC0100204C
:101AF000B00100206D6F746F72537461747573312F
:101B00000000000048B1AFF214013298FFF706FE62
:101B1000F549086001200990641CF4A1329804F092
:101B2000BBFC40B1F1A13298FFF7F8FDF249086023
:101B300001200A90641CF1A1329804F0ADFC40B180
:101B4000EEA13298FFF7EAFDF049086001200B9002
:101B5000641C002C2DDD0024E8A0E4A3AFF26C028D
:101B600011A900900320FEF772FD11A803F044FABA
:101B700098B9E2A0DDA3AFF2840211A9009003207E
:101B8000FEF734FD11A804F0A4FCC0B20122014606
:101B9000029011A8FFF793FA0BE0D348C0F8009029
:101BA000D548C0F800A0D948C0F800B0D8A004F0CB
:101BB000B7FADC4800680890DB4800680790DB480B
:101BC000006806900020039004900590D8A13298F8
:101BD00004F062FC40B1D6A13298FFF79FFDD149D5
:101BE000086001200390641CD5A1329804F054FCD5
:101BF00040B1D3A13298FFF791FDCB490860012095
:101C00000490641CD1A1329804F046FC40B1CFA1ED
:101C10003298FFF783FDC549086001200590641CD8
:101C2000002C2BDD0024C9A0C5A3C1A211A90090DE
:101C30000320FEF70CFD11A803F0DEF990B9C3A054
:101C4000BFA3BBA211A900900320FEF7CFFC11A8EF
:101C500004F03FFCC0B201220146029011A8FFF738
:101C60002EFA0BE0AF4908980860AF490798086062
:101C7000AE4906980860B9A004F052FABCA13298A7
:101C800004F00AFC28B1BAA13298FFF747FDBC491D
:101C90000860BCA1329804F0FFFB30B1641CB9A10C
:101CA0003298FFF73BFDBA490860BAA1329804F0B8
:101CB000F3FB30B1641CB7A13298FFF72FFDB84990
:101CC0000860B8A1329804F0E7FB30B1641CB5A1FC
:101CD0003298FFF723FDB6490860B6A1329804F0A8
:101CE000DBFB30B1641CB3A13298FFF717FDB44998
:101CF0000860002C14DD0024AEA0AAA1A5A3A1A217
:101D0000CDE9001011A90420FEF770FC11A804F021
:101D1000E0FBC0B201220146029011A8FFF7CFF903
:101D200000BF33B0BDE8F08FF0B5B5B00026A548D0
:101D3000007870B1A4A1A84804F0AEFB10B1A64889
:101D4000FFF762FD4FF48071A44804F032FCFEF707
:101D50003FFE03F0A6FCA2490968401AB0F57A7F5D
:101D600001D3012000E00020002870D0AFF2D42081
:101D7000AFF2E421AFF20C33AFF21C32CDE9001028
:101D800003A90420FEF732FC03A804F0A2FBC4B2AE
:101D90000122214603A8FFF792F9064603F081FCD1
:101DA0008F490860FEF714FE8E480068012803DCA6
:101DB0008D4800680A2841DB00248A480068012811
:101DC00010DD00BF0BE000220A2188A0FFF777F9A1
:101DD00000B906E042F2107003F0AFFE641C032C61
:101DE000F1DB00BF032C03DA7F4800680A2821DBFF
:101DF0000020814908608149086000BF5C2180A003
:101E000004F05CFB28B15C217DA004F057FB401C72
:101E100000E07BA0054603F044FC07464FF4347015
:101E20007F4B2A46394600907EA004F079F900BF26
:101E3000FEF7EDFD00206C49086000BF69480168AD
:101E400082A004F06DF900206649086000BF03F02D
:101E500028FC85490968401A642801DB012000E05C
:101E6000002000283ED003F01CFC7F4908607F481A
:101E70000068042831DB00207C4908605F48006866
:101E800038B9FEF727FC58480068401C56490860DE
:101E900028E05A480068012824D175A077A13FA204
:101EA0003AA3CDE90432CDE9061078A078A179A251
:101EB00079A3CDE90032CDE9021078A378A215A963
:101EC0000A20FEF793FB15A804F003FBC4B201221D
:101ED000214615A8FFF7F3F804E064480068401CA9
:101EE0006249086035B0F0BDA80100206D6F746FC5
:101EF0007253706565643100AC0100206D6F746FC2
:101F000072446972656374696F6E3100B0010020BC
:101F10004D6F746F7231B6CFBFAAC1ACBDD30D0A7D
:101F200000000000B4010020B8010020BC01002026
:101F30006D6F746F725374617475733200000000BA
:101F40006D6F746F72537065656432006D6F746F7E
:101F500072446972656374696F6E32004D6F746F9D
:101F60007232B6CFBFAAC1ACBDD30D0A00000000CB
:101F700062757A7A6572537461747573000000003B
:101F8000C80100204C4544537461747573310000DE
:101F9000CC0100204C4544537461747573320000C9
:101FA000D00100204C4544537461747573330000B4
:101FB000D40100204C45445374617475733400009F
:101FC000D8010020220100202B4D5154545355427A
:101FD000524543563A300000E81800201011002006
:101FE0001801002054000020100100207B2274659D
:101FF0007374222C307D000008020020580000205D
:102000002E2E5C6170705C57694669546F436C6F2B
:1020100075645C6170705F636C6F75642E63000043
:10202000657C00085B256C645D5B2538735D5B2512
:1020300038735D5B252D33645D5B494E464F5D3AD9
:1020400020B6CFCFDFD6D8C1AC0D0A004D515454C5
:1020500053656E644572726F7254696D6573203D8D
:102060002025640D0A000000140100200C0100204E
:102070006F6E6C696E65436F64650000696E6672B1
:102080006172656453746174757331007432000059
:1020900074310000683200006831000069320000CD
:1020A000693100001CB504460121082001F05EFBE7
:1020B0000121880401F067FB334802F06DFB4FF407
:1020C0008060ADF8000003208DF8020018208DF824
:1020D000030069462D4801F08DF84FF40060ADF81B
:1020E000000048208DF803006946284801F082F876
:1020F00027480460002026498880C880088188819C
:102100000C204881204802F08AFB01211E4802F081
:1021100012FC012240F225511B4802F018FC272036
:102120008DF8040002208DF8050003208DF80600CC
:1021300001208DF8070001A800F0A3FE1CBD0FB41C
:1021400038B505A800901348009A049903F0D6FF0B
:10215000002000900F4804F0BCF985B200240DE087
:1021600000BF4021084802F0C1FC0028F9D009480E
:10217000015D054802F04CFC601C84B2AC42EFDB10
:1021800038BC5DF814FB000000480040000C014022
:10219000D8180020801600207FB505460C46012186
:1021A000202001F0F0FAADF80450ADF80040002016
:1021B000ADF80600ADF8020069464D4801F0B2FCEA
:1021C000012211464A4802F024F80121484802F051
:1021D00005F837208DF80C0000208DF80D00022046
:1021E0008DF80E0001208DF80F0003A800F049FEC5
:1021F0007FBD10B5044600213E4802F083FA3D48F9
:102200002C30008800203B492C310880084600888B
:102210002043088010BD7FB505460C4601210820EB
:1022200001F0B1FAADF80450ADF800400020ADF86F
:102230000600ADF8020069462E4801F073FC012249
:1022400011462C4801F0E5FF01212A4801F0C6FFA4
:1022500032208DF80C0000208DF80D0002208DF842
:102260000E0001208DF80F0003A800F00AFE7FBDCC
:1022700010B504460021204802F044FA1E482C30D4
:10228000008800201C492C31088008460088204323
:10229000088010BD7FB505460C460121042001F0E1
:1022A00072FAADF80450ADF800400020ADF8060019
:1022B000ADF802006946104801F034FC01221146D5
:1022C0000D4801F0A6FF01210B4801F087FF1E20F9
:1022D0008DF80C0000208DF80D0002208DF80E0006
:1022E00001208DF80F0003A800F0CBFD7FBD00009A
:1022F00000140040000C00400008004010B586B0FB
:1023000004464448008840F48070424908800846EA
:10231000008840F0200008804FF4A063342202219E
:10232000012003F047FA0121C80401F02CFA012131
:10233000102001F01BFA37480C3802F02DFA4FF448
:102340008060ADF8140003208DF8160018208DF879
:10235000170005A9304800F04DFF4FF40060ADF8BC
:10236000140004208DF8170005A92B4800F042FF47
:1023700001940020ADF80800ADF80A00ADF80C009B
:10238000ADF810000C20ADF80E0001A921480C3862
:1023900002F045FA012240F225511E480C3802F0A5
:1023A000D6FA01211B480C3802F0C5FA41F61F414C
:1023B0006320FFF7F1FE0121184801F00FFF06B07E
:1023C00010BD10B5044600BF12480C38008800F05C
:1023D00040000028F8D021460E480C3802F018FBC7
:1023E00010BD10B5044603E02078FFF7EAFF641C37
:1023F00020780028F8D110BD70B504460D4603E0E2
:102400002078FFF7DEFF641C2800A5F10101CDB2A2
:10241000F6D170BD0C4C004000100140001400408B
:102420000146CA1701EB92729210A1EB820292B997
:10243000642091FBF0F200FB121050B94FF4C87009
:1024400091FBF0F200FB121008B901207047002048
:10245000FCE70120FAE70020F8E72DE9F05F0646E7
:102460000F4690469946DDE90AAB002501214FF061
:10247000C05001F088F9012002F09DFB01F036FA0E
:1024800040F2B270864203DB40F63300864201DD43
:10249000BDE8F09F40F2B2740AE02046FFF7C0FFAB
:1024A00010B19448054401E093480544601C84B28F
:1024B000B442F2DB781EC7B2002410E08F48005D02
:1024C00040F2A321484305EBC0153046FFF7A8FFB3
:1024D00018B1012C01D18A480544601C84B2BC4269
:1024E000ECDBA8F1010040F2A321484305EBC01545
:1024F000C9EB4911C1EB092105EB0111CAEB0A1225
:1025000001EB820101EB0B0001F0BDF901F0EEF9E6
:1025100000BFBDE710B501214FF0C05001F033F905
:10252000012002F048FB00F015FD012001F08BF8BE
:1025300000BF412000F0EFFF0028FAD04FF4807078
:1025400001F09DF8012001F0A0F801F0D8F901F0A8
:10255000CDF90121084601F06DF901F0C7F947F600
:10256000FF7001F09DF901F0C1F910BD08B503201D
:102570008DF8000002208DF8010000208DF8020087
:1025800001208DF80300684600F07BFC08BD1CB5F7
:102590000446FFF7EBFF042000F011FD4AF2A551BD
:1025A000884211D0FFF7B6FF3B200090172301228D
:1025B0000821019040F2E270FFF74FFF4AF2A55167
:1025C000042000F0F0FC0EE07B2000F0A4FF10B926
:1025D0007A2000F0A0FF01F092F90121084601F0F5
:1025E00029F901F083F901F0FFF8464804601CBDA9
:1025F00070B500260024002501F03CF9064640484D
:10260000B6FBF0F440480088A0423CD03E490C8024
:1026100040F2B27510E02846FFF702FF40B1B4F572
:10262000B77F02D3A4F5B77404E0681C85B206E056
:10263000A4F26D14681C85B2B4F5B67FEBD800BF68
:1026400032488580002516E030498888FFF7E8FE8B
:1026500030B1012D04D11D2C01D31D3C09E00CE04B
:102660002648405DA04203D82448405D241A00E07B
:1026700003E0681C85B21C2CE6D200BF681C23490D
:102680008871601CC8711E48B6FBF0F100FB116434
:102690004FF46160B4FBF0F01C4908704FF46160C6
:1026A000B4FBF0F100FB11403C21B0FBF1F0174905
:1026B00048704FF46160B4FBF0F100FB11403C2125
:1026C000B0FBF1F201FB120010498870002070BDD0
:1026D00010B5012001F038F950B1012001F044F9A2
:1026E0000848006820B10A48006806490968884718
:1026F00010BD00000085E2018033E101707C00081C
:1027000080510100280100202C010020E819002040
:10271000300100201CB504460121042001F026F8F8
:102720000121480401F02FF8714802F035F8042027
:10273000ADF8000003208DF8020018208DF803008A
:1027400069466C4800F056FD0820ADF800004820AE
:102750008DF803006946674800F04CFD6648046048
:10276000002065498880C880088188810C204881C4
:102770005F4802F054F801215D4802F0DCF80122C4
:1027800040F225515A4802F0E2F826208DF8040064
:1027900002208DF8050003208DF8060001208DF839
:1027A000070001A800F06DFB41F61F416320FFF711
:1027B00032FD0020514908800021514801F00EFDF2
:1027C0001CBD0FB438B505A800904E48009A049976
:1027D00003F094FC002000904A4803F07AFE85B292
:1027E00000240DE000BF4021414802F07FF900289D
:1027F000F9D04448015D3E4802F00AF9601C84B2F9
:10280000AC42EFDB38BC5DF814FB70B505460C46F6
:10281000082D2DD2DFE805F004090E13181D22271C
:102820004FF496603849086022E04FF4166036494C
:1028300008601DE04FF496503349086018E04FF4EB
:1028400016503149086013E04FF496402E49086055
:102850000EE04FF416402C49086009E04FF4614047
:102860002949086004E04FF4E1302749086000BFBF
:1028700000BF00211E4802F05EF8234800681E4990
:1028800008600020C88014B9888008810FE0012CFE
:1028900005D12003184988808010088107E0022CA8
:1028A00005D1E002144988804FF4C06008811249C4
:1028B0000F4801F0B4FF01210D4802F03CF870BD53
:1028C00010B5044600210A4802F035F81CB10C206E
:1028D0000949488102E0082007494881064904481F
:1028E00001F09DFF0121024802F025F810BD000013
:1028F00000440040000801404C200020340100202A
:10290000000C0040F41D00203801002000BF70477B
:1029100000BF2C4A128802F04002002AF9D0C2B24D
:10292000284B1B1D1A80704700BF704710B586B03A
:102930000446012144F2040000F018FF4FF4007037
:10294000ADF8140003208DF8160018208DF817003C
:1029500005A91D4800F04EFC4FF48060ADF814004E
:1029600004208DF8170005A9174800F043FC252026
:102970008DF8000003208DF801008DF80200012081
:102980008DF80300684600F07CFA01940020ADF851
:102990000800ADF80A00ADF80C00ADF810000C20EE
:1029A000ADF80E0001A9074801F039FF012240F2FD
:1029B0002551044801F0CBFF0121024801F0BBFF83
:1029C00006B010BD0038014000080140704702E029
:1029D00087A003F0A5FBFBE700BFFEE700BFFEE713
:1029E00000BFFEE77047704710B540F2255185489B
:1029F00002F092F810B3834802F00EF8C4B2824895
:102A0000008800F40040C8B97F48008800F4804086
:102A100060B10A2C03D000207B49088020E07A486E
:102A2000008840F400407849088019E00D2C06D158
:102A30007548008840F480407349088010E072486F
:102A40000088C0F30D0071490C546F480088401C89
:102A50006D49088008460088C72801DD00200880ED
:102A600010BD10B540F22551694802F055F810B379
:102A7000674801F0D1FFC4B26648008800F4004006
:102A8000C8B964480088B0F5806F15DA62480078EC
:102A900050B90021614801F035FE5E48008818B940
:102AA00001215E4801F09AFB5A490888411C594AA5
:102AB00011805B490C5405E05648008840F4004002
:102AC0005449088010BD10B540F22551554802F018
:102AD00023F818B340F22551524802F01DF8E8B12E
:102AE000504801F099FF5049504A127888544F4895
:102AF0000078401C4D490870084600781E2801DB0C
:102B0000002008704848407848490978884205D133
:102B100000204649087001204549087010BD10B5D5
:102B200040F22551434801F0F7FFB8B10120424976
:102B300008700020414908703E4801F06DFF40498F
:102B4000404A128888543F480088401C3D4908800C
:102B500008460088FF2801DD0020088010BD10B560
:102B60000121394801F003FE68B10121364801F026
:102B70000FFE3648008840F40040344908800021A8
:102B8000314801F02BFB10BD10B50121234801F0A5
:102B9000EEFD68B10121214801F0FAFD1D480088D1
:102BA00040F400401B49088000211C4801F016FB3E
:102BB00010BD10B50121264801F0D9FDB8B10121A1
:102BC000234801F0E5FD1C48007880B11B480078DF
:102BD000401C1A49087008460078032807DD0020C9
:102BE000154908701549087001201A49087010BD70
:102BF000486172644661756C745F48616E646C65AF
:102C0000720D0A0000380140400100205C200020C5
:102C1000004400403401002084010020000C0040EA
:102C2000F4190020004800401E2200202C02002041
:102C30002D020020004C0040230100202401002030
:102C4000E818002020010020000800401E0100209C
:102C500000140040220100200CB5002001900090DB
:102C60006C48006840F480306A49086000BF6948D9
:102C7000006800F4003000900198401C019000981A
:102C800018B90198B0F5A06FF1D16248006800F45E
:102C9000003010B10120009001E000200090009869
:102CA000012843D15C48006840F010005A49086090
:102CB0000846006820F0030008600846006840F0FD
:102CC000020008605348406852494860084640681E
:102CD00048600846406840F48060486008464068A4
:102CE00020F47C1048600846406840F4E8104860D2
:102CF0000846006840F08070086000BF45480068E2
:102D000000F000700028F9D04248406820F003002D
:102D1000404948600846406840F00200486000BFF3
:102D20003C48406800F00C000828F9D10CBD10B5F3
:102D3000FFF792FF10BD10B53648006840F0010063
:102D400034490860084640683449084031494860C1
:102D500008460068324908402E4908600846006865
:102D600020F4802008600846406820F4FE00486097
:102D70004FF41F008860FFF7DAFF4FF00060294929
:102D8000086010BD10B5002100200022214B5B68B7
:102D900003F00C0121B1042906D0082928D107E04D
:102DA000214B224C236027E01F4B204C236023E063
:102DB000184B5B6803F47010164B5B6803F48032A9
:102DC000022303EB904022B9194B4343174C236075
:102DD0000DE0104B5B6803F4003323B1144B434305
:102DE000124C236003E0104B4343104C236003E07C
:102DF0000D4B0E4C236000BF00BF064B5B68C3F356
:102E000003130C4CE15C094B1B68CB40074C23605F
:102E100010BD000000100240002002400000FFF83A
:102E2000FFFFF6FE08ED00E000127A0044010020EA
:102E300000093D0048010020094880470948004733
:102E4000FEE7FEE7FEE7FEE7FEE7FEE7FEE7FEE75A
:102E5000FEE7FEE704480549054A064B70470000B7
:102E6000372D000831010008A0220020A0280020F2
:102E7000A0240020A024002031490143314A1160E0
:102E8000704770B5002100230F22C47804B32D4C85
:102E9000246804F4E064C4F5E064210AC1F1040389
:102EA000CA40447804FA03F18478144021430901AC
:102EB000254C0678A155047804F01F050124AC4088
:102EC00005786D11AD0005F1E025C5F8004109E078
:102ED000047804F01F050124AC401C4D06787611DF
:102EE00045F8264070BD1A4A0A400243154B1B1F85
:102EF0001A60704739B1134A121D12680243114B10
:102F00001B1D1A6006E00F4A121D126882430D4B0A
:102F10001B1D1A607047042808D14FF0E021096991
:102F200041F004014FF0E022116107E04FF0E02191
:102F3000096921F004014FF0E0221161704700009F
:102F40000000FA050CED00E000E400E080E100E0A4
:102F500080FFFF1F10B5012000F03CFC002000F0B6
:102F600039FC10BD2A49086070472949091F0860CB
:102F70007047274984310860704701460020254A80
:102F800010884FF67F4210400843224A1080704755
:102F9000014600201F4A10884FF6807210400843F7
:102FA0001C4A1080704708B500220092194A2C3A3A
:102FB0000092009A02440092009A116008BD08B580
:102FC00001460020009013482C38009000980844D7
:102FD00000900098008808BD0D489C300068C0B281
:102FE00070470C480830008840F00100094908315A
:102FF000088070470648A0300068C0B27047054896
:103000000830008840F0020002490831088070470B
:1030100004860D422C6C0040002044490860091DC4
:103020000860091D0860091D086041483F491431C6
:103030000860704700213D498279002A3AD00A464B
:10304000126803689A430B461A600A1D12680368E7
:103050009A430B1D1A60027911440A6803681A43E7
:103060000A60324A0832126803689A432F4B0833C9
:103070001A601A1D126803689A432C4B0C331A60AD
:103080004279102A0ED11A1F126803681A43274B7F
:1030900008331A601A1D126803681A43234B0C3355
:1030A0001A600DE02149427911440A6803681A4305
:1030B0000A6005E0027911440A6803689A430A60CD
:1030C00070470021016001710C2141710021817163
:1030D00070471649103109680143144A10321160D3
:1030E000704701460020114A143212680A400AB1A2
:1030F000012000E0002070470C491431086070473F
:10310000014600200022094B1B6803EA0102074B1D
:1031100014331B680B4013B10AB1012000E00020FA
:1031200070470249143108607047000000040140F4
:10313000FFFF0F0010B50446CC48844208D101219E
:10314000042000F02DFB0021042000F029FB46E0C4
:10315000C748844208D10121082000F021FB00214A
:10316000082000F01DFB3AE0C248844208D101214A
:10317000102000F015FB0021102000F011FB2EE0C4
:10318000BD48844208D10121202000F009FB002124
:10319000202000F005FB22E0B848844208D101213C
:1031A000402000F0FDFA0021402000F0F9FA16E07E
:1031B000B348844208D10121802000F0F1FA0021B7
:1031C000802000F0EDFA0AE0AE48844207D10121E8
:1031D000801500F0E5FA0021A01500F0E1FA10BD1D
:1031E00010B50121084600F0DBFA0021012000F0B3
:1031F000D7FA10BD2DE9F041024600250026002037
:1032000000230024002791F803C00CF00F0591F86B
:1032100003C00CF0100CBCF1000F03D091F802C0F9
:103220004CEA050591F800C0BCF1000F31D01468DC
:1032300000202BE04FF0010C0CFA00F3B1F800C0B5
:103240000CEA03069E4220D183004FF00F0C0CFACB
:1032500003F7BC4305FA03FC4CEA040491F803C0ED
:10326000BCF1280F06D14FF0010C0CFA00FCC2F89B
:1032700014C00AE091F803C0BCF1480F05D14FF02B
:10328000010C0CFA00FCC2F810C0401C0828D1D375
:103290001460B1F800C0BCF1FF0F34DD54680020A9
:1032A0002EE000F1080C4FF0010808FA0CF3B1F819
:1032B00000C00CEA03069E4221D183004FF00F0CA0
:1032C0000CFA03F7BC4305FA03FC4CEA040491F83A
:1032D00003C0BCF1280F05D100F1080C08FA0CF866
:1032E000C2F8148091F803C0BCF1480F07D100F177
:1032F000080C4FF0010808FA0CF8C2F81080401CC6
:103300000828CED35460BDE8F0814FF6FF710180EC
:10331000022181700421C170704702460020936829
:103320000B400BB1012000E0002070470146886887
:1033300080B2704702460020D3680B400BB10120D9
:1033400000E0002070470146C86880B27047016104
:103350007047416170470AB1016100E04161704707
:10336000C16070474FF480320A438261816182619B
:1033700082698269704702460020434B18684FF605
:103380008073184040EA021008433F4B18607047B2
:103390003E49C8617047F0B50A4600230024002169
:1033A000002500F00046B6F1004F02D1364EF1691B
:1033B00001E0354E7168C0F3034583B200F4401656
:1033C000B6F5401F08D121F070612F4E766826F0C7
:1033D00070662D4F7E6012E000F48016B6F5801FF7
:1033E00006D1032606FA05F4A14341F0706106E018
:1033F000460D360103FA06F6B14341F0706122B181
:10340000460D360103FA06F6314300F00046B6F1E8
:10341000004F02D11C4EF16101E01B4E7160F0BD06
:1034200030B500228B071C0F0F2303FA04F2164B52
:1034300008338C1053F824309343134C08348D1008
:1034400044F8253023468C1053F824308C07240F81
:1034500000FA04F423430C4C08348D1044F8253052
:1034600030BD0A49DC3108607047000000080140A7
:10347000000C014000100140001401400018014000
:10348000001C0140002001400000014000002042DB
:10349000DF48006840F00100DD49086008464068E8
:1034A000DC490840DA49486008460068DA490840C3
:1034B000D74908600846006820F480200860084664
:1034C000406820F4FE0048604FF41F008860704799
:1034D000CF49096821F48031CD4A1160114609684D
:1034E00021F480211160B0F5803F03D0B0F5802F2A
:1034F0000ED106E0C649096841F48031C44A116022
:1035000007E0C349096841F4A021C14A116000E005
:1035100000BF00BF704710B5014600220023002005
:103520004A11012A02D1BA4C236806E0022A02D1CC
:10353000B74C236A01E0B64C636A01F01F02012414
:1035400094401C400CB1012000E0002010BD38B5B3
:10355000002000900024002500BF3120FFF7DBFF92
:1035600005460098401C00900098B0F5A06F01D06F
:10357000002DF2D03120FFF7CEFF08B1012400E08A
:103580000024204638BD01460020A14A106820F0E2
:10359000F80040EAC10010607047A0490860704719
:1035A000024600209A4B586820F47C1042EA01033E
:1035B0001843974B58607047984908667047014612
:1035C0000020934A506820F0030008435060704781
:1035D0008F48406800F00C007047014600208C4A7C
:1035E000506820F0F000084350607047014600200A
:1035F000874A506820F4E0600843506070470146F5
:103600000020834A506820F4605040EAC1005060B6
:10361000704729B17E4A527A02437D4B5A7204E0C8
:103620007B4A527A82437A4B5A7270477B49D8312F
:103630000860704701460020754A506820F44040F9
:103640000843506070470021714A20321170704A5F
:1036500082F82010012802D004280AD104E00121B8
:103660006B4A2032117005E00521694A2032117041
:1036700000E000BF00BF70476949086070476449B7
:10368000096A0143624A116270476549443908601A
:10369000704730B500210022002400235C4D6D6886
:1036A00005F00C0121B1042905D0082923D105E03A
:1036B0005C4D056022E05B4D05601FE0544D6D6878
:1036C00005F47012524D6D6805F48034022505EB47
:1036D00092421CB9544D554305600BE04C4D6D684A
:1036E00005F400351DB1504D5543056002E04D4DC8
:1036F0005543056002E04B4D056000BF00BF444DDF
:103700006D6805F0F0010909484D6B5C0568DD4006
:1037100045603F4D6D6805F4E061090A434D6B5CFF
:103720004568DD4085603A4D6D6805F46051C90A11
:103730003E4D6B5C4568DD40C560354D6D6805F4F8
:103740004041890B3A4D6B5CC568B5FBF3F50561EB
:1037500030BD29B12E4A526902432D4B5A6104E013
:103760002B4A526982432A4B5A61704729B1284A31
:1037700092690243264B9A6104E0254A926982438A
:10378000234B9A61704729B1214AD2690243204BE9
:10379000DA6104E01E4AD26982431D4BDA61704748
:1037A00029B11B4AD2680243194BDA6004E0184A77
:1037B000D2688243164BDA60704729B1144A126905
:1037C0000243134B1A6104E0114A12698243104B01
:1037D0001A61704712494039086070470F49C86440
:1037E00070470B49C87170470948406A40F08070C3
:1037F00007494862704701460020054A92680A401E
:103800000AB1012000E0002070470149887270472A
:10381000001002400000FFF8FFFFF6FE00004242E9
:103820008004424200127A0000093D005801002045
:103830006801002029B1504A128802434E4B1A8079
:1038400004E04D4A128882434B4B1A8070474A4825
:10385000001D008840F010004749091D088070478E
:103860004548001D00884FF6EF7108404249091D88
:1038700008807047002140481C300188001F0088E4
:1038800041EA0040704700B50246FFF7E0FF100C28
:10389000394918310880091D0A80FFF7E1FF00BD92
:1038A00000B50246FFF7D3FFC2F3034032490831A7
:1038B0000880091D0A80FFF7D3FF00BD00B502464E
:1038C000FFF7C5FF100C2C4920310880091D0A8024
:1038D000FFF7C6FF00BD00202749103109880907FE
:1038E000080B2549143109880843704700BF224856
:1038F000001D008800F020000028F8D070471E4806
:10390000001D00884FF6F77108401B49091D08800B
:1039100000BF1948001D008800F008000028F8D0FA
:10392000704701460020144A121D12880A400AB14D
:10393000012000E0002070470F49091D09888143DC
:103940000D4A121D11807047014600200A4A121DBF
:1039500012880A40D0B2084A12880A4012B108B14F
:10396000012000E0002070470349091D09888143B8
:10397000014A121D118070470028004010B504460E
:10398000FE48844208D10121C014FFF709FF00213D
:10399000E014FFF705FFC4E0B4F1804F08D1012126
:1039A0000846FFF70AFF00210120FFF706FFB8E0F5
:1039B000F348844208D101210220FFF7FEFE0021D6
:1039C0000220FFF7FAFEACE0EE48844208D1012164
:1039D0000420FFF7F2FE00210420FFF7EEFEA0E036
:1039E000E948844208D101210820FFF7E6FE0021C2
:1039F0000820FFF7E2FE94E0E448844208D1012168
:103A00001020FFF7DAFE00211020FFF7D6FE88E035
:103A1000DF48844208D101212020FFF7CEFE00219B
:103A20002020FFF7CAFE7CE0DA48844208D1012159
:103A30004014FFF7B5FE00216014FFF7B1FE70E0FF
:103A4000D548844209D10121C804FFF7A9FE00210D
:103A50004FF40020FFF7A4FE63E0D048844209D170
:103A600001210805FFF79CFE00214FF48010FFF7AD
:103A700097FE56E0CA48844209D101214805FFF764
:103A80008FFE00214FF40010FFF78AFE49E0C54881
:103A9000844208D101214020FFF78FFE0021402001
:103AA000FFF78BFE3DE0C048844208D10121802011
:103AB000FFF783FE00218020FFF77FFE31E0BB4847
:103AC000844208D101218015FFF777FE0021A0155F
:103AD000FFF773FE25E0B648844209D101210804AE
:103AE000FFF75EFE00214FF48030FFF759FE18E02B
:103AF000B048844209D101214804FFF751FE00215A
:103B00004FF40030FFF74CFE0BE0AB48844208D185
:103B100001218804FFF744FE00214FF48020FFF7C5
:103B20003FFE10BD00220288944B98420ED0994B64
:103B300098420BD0B0F1804F08D0914B984205D0FD
:103B4000904B984202D0904B984204D14FF68F731D
:103B50001A404B881A438D4B984207D08C4B9842A1
:103B600004D04FF6FF431A40CB881A4302808B885B
:103B700083850B880385814B98420BD0854B9842F7
:103B800008D08B4B984205D08A4B984202D08A4B82
:103B9000984201D10B7A038601238382704770B566
:103BA000002400220023058C4FF6FE763540058464
:103BB000028C8388048B4FF68F752C40B51E2C40E9
:103BC0000D882C43751E2A400D892A434D882A43AF
:103BD0006A4DA8420BD06F4DA84208D0744DA84240
:103BE00005D0744DA84202D0734DA84213D14FF6B0
:103BF000F7752A404D892A434FF6FB752A408D8878
:103C00002A434FF6FF652B404FF6FF552B408D8919
:103C10002B43CD892B4383800483CD888586028402
:103C200070BD70B5002400220023058C4FF6EF769E
:103C300035400584028C8388048B48F6FF752C4040
:103C40004FF6FF452C400D884FF6FF7606EA052516
:103C50002C434FF6DF752A400D8906EA05152A43E5
:103C60004D8806EA05152A43444DA84202D0494D25
:103C7000A8421DD14FF67F752A404D894FF6FF7639
:103C800006EA05152A434FF6BF752A408D8806EAD5
:103C900005152A434FF6FF352B404FF2FF752B4099
:103CA0008D8906EA85052B43CD8906EA85052B43D8
:103CB00083800483CD880587028470BD70B500249D
:103CC00000220023058C4FF6FF6635400584028CE8
:103CD0008388848B4FF68F752C404FF6FC752C40F3
:103CE0000D882C434FF6FF552A400D894FF6FF767D
:103CF00006EA05252A434D8806EA05252A431F4D75
:103D0000A84202D0234DA8421DD14FF2FF752A4090
:103D10004D894FF6FF7606EA05252A434FF6FF3513
:103D20002A408D8806EA05252A434EF6FF752B406A
:103D30004DF6FF752B408D8906EA05152B43CD897D
:103D400006EA05152B4383808483CD88858702840A
:103D500070BD70B5002200230024058C4EF6FF765E
:103D600035400584038C8488828B48F6FF752A4091
:103D70004FF6FF452A400D8820E00000002C01404E
:103D80000004004000080040000C0040001000400B
:103D90000014004000340140004C0140005001403C
:103DA0000054014000180040001C0040002000406A
:103DB0000040014000440140004801404FF6FF76BA
:103DC00006EA05252A434DF6FF752B400D8906EAC4
:103DD00005352B434D8806EA05352B43FA4DA8429D
:103DE00002D0FA4DA84208D14BF6FF752C408D89C0
:103DF0004FF6FF7606EA85152C4384808283CD88B2
:103E0000A0F84050038470BD828B4FF2FF331A40FC
:103E10008283828B4FF6FF7303EA01231A43828366
:103E20007047F0B50C461546002200210026078C8D
:103E30004EF6FF7C07EA0C070784828B018C4FF655
:103E4000FF7707EA043640F6FF473A404FF6FF7720
:103E500007EA05273A434FF6FF7707EA03373A4365
:103E6000D94FB8420ED0D94FB8420BD0B0F1804FE5
:103E700008D0D74FB84205D0D64FB84202D0D64F5F
:103E8000B84206D14DF6FF77394046F480573943A2
:103E900005E047F6FF57394044F4805739438283A1
:103EA0000184F0BD828B4FF6F3731A408283828BBC
:103EB0000A4382837047F0B50C4615460022002164
:103EC0000026078C4FF6FF6C07EA0C070784828BED
:103ED000018C4FF6FF7707EA04264FF60C773A403D
:103EE0004FF6FF7707EA03172F433A43B64FB8421E
:103EF0000ED0B64FB8420BD0B0F1804F08D0B44FBF
:103F0000B84205D0B34FB84202D0B34FB84206D141
:103F10004FF6FF57394046F48077394305E04FF2BA
:103F2000FF57394044F48077394382830184F0BDE0
:103F3000028B4FF2FF331A400283028B4FF6FF735E
:103F400003EA01231A4302837047F0B50C46154675
:103F5000002200210026078C4FF6EF7C07EA0C07B1
:103F60000784028B018C4FF6FF7707EA041640F6B0
:103F7000FF473A404FF6FF7707EA03373A434FF6D9
:103F8000FF7707EA05273A438F4FB8420ED08F4F8D
:103F9000B8420BD0B0F1804F08D08D4FB84205D059
:103FA0008C4FB84202D08C4FB84206D14FF6DF7723
:103FB000394046F01007394305E04FF65F77394046
:103FC00044F01007394302830184F0BD028B4FF6A1
:103FD000F3731A400283028B0A4302837047F0B5E1
:103FE0000C46154600220021068C4FF6FE773E4017
:103FF0000684028B018C4FF60C7632407E1C06EA5A
:1040000003162E433243704EB0420ED06F4EB04274
:104010000BD0B0F1804F08D06D4EB04205D06D4E40
:10402000B04202D06C4EB04206D14FF6FD76314020
:1040300044F00106314305E04FF6F576314044F097
:104040000106314302830184F0BD70B505460C467C
:104050005D4885420ED05D4885420BD0B5F1804F5A
:1040600008D05B48854205D05A48854202D05A485C
:10407000854200D100E000BF208850B92389A28882
:1040800061882846FFF7ABFFE1882846FFF79EFFCF
:1040900025E0208804280AD12389A288618828463F
:1040A000FFF753FFE1882846FFF742FF17E020881B
:1040B00008280AD12389A28861882846FFF7FBFED9
:1040C000E1882846FFF7EEFE09E02389A28861888F
:1040D0002846FFF7A6FEE1882846FFF795FE70BD4B
:1040E0002DE9F04105460C4600260127608808B9F5
:1040F000022600E00026A088012801D1022700E066
:1041000001272088A0B92389A28861882846FFF763
:1041100066FFE1882846FFF759FF23893A46314672
:104120002846FFF712FFE1882846FFF701FF13E05A
:104130002389A28861882846FFF707FFE18828467F
:10414000FFF7F6FE23893A4631462846FFF747FF38
:10415000E1882846FFF73AFFBDE8F0810A884B88DE
:104160001A438B881A43CB881A430B891A434B890D
:104170001A438B891A43A0F8442070474FF6FF7109
:10418000818000210180C18041800172704700213F
:10419000018041808180C180018141818181C18113
:1041A0007047002101804180012181800021C18070
:1041B000018170470021018041808180C18001819F
:1041C0004181818170470000002C01400034014092
:1041D0000004004000080040000C004021B10288AB
:1041E00042F00102028004E002884FF6FE731A409A
:1041F0000280704731B1B0F8442042F40042A0F888
:10420000442005E0B0F84420C2F30E02A0F8442098
:1042100070471AB183890B43838102E083898B4302
:10422000838170478182704741EA0203A0F84830D9
:1042300070471AB183890B43838102E083898B43E2
:104240008381704701894FF6F872114001817047F0
:104250000A46002101894FF68F73194011430181ED
:10426000704730B504460D4629462046FFF7F0FF5B
:10427000208940F00700208130BD2DE9F04104463F
:104280000D4616461F46602D06D13B46012231469B
:104290002046FFF75AFE05E03B4601223146204604
:1042A000FFF79DFE29462046FFF7D2FF208940F008
:1042B00007002081BDE8F08130B50C46002101895E
:1042C000C9B24FF6FF7505EA032515432543294377
:1042D000018130BD2DE9F04105460E46174698464E
:1042E000002443463A4631462846FFF7E5FF2C892D
:1042F0004FF6F870044044F007044FF68F70044006
:1043000044F070042C81BDE8F081F0B504460D4600
:1043100016461F463B46324629462046FFF7CCFF4D
:10432000208940F480402081F0BD01858282704761
:104330000A46002101884FF68F731940114301800E
:104340007047F0B50C4615461E460021002200239A
:104350000189028B038C4FF6F877394021434FF6E1
:10436000FC473A4040F201173A434FF6DD773B40B5
:104370004FF6FF7707EA06172F433B43018102837D
:104380000384F0BD0A460021018B4FF68F7319405C
:104390001143018370470A460021018B48F6FF73E1
:1043A00019404FF6FF7303EA022319430183704754
:1043B0000A460021818B4FF68F7319401143818388
:1043C00070470A460021818B48F6FF7319404FF66B
:1043D000FF7303EA022319438183704721B10288E6
:1043E00042F08002028004E002884FF67F731A4098
:1043F0000280704721B1828842F00402828004E08A
:1044000082884FF6FB731A408280704721B1828800
:1044100042F00802828004E082884FF6F7731A4067
:104420008280704721B1828842F00102828004E0DC
:1044300082884FF6FE731A40828070470A46002138
:10444000018B4FF6F77319401143018370470A46F9
:104450000021018B4FF2FF7319404FF6FF7303EAFF
:1044600002231943018370470A460021818B4FF6CE
:10447000F77319401143818370470A460021818BED
:104480004FF2FF7319404FF6FF7303EA02231943FB
:10449000818370470A460021018B4FF6FB73194058
:1044A0001143018370470A460021018B4FF6FF3309
:1044B00019404FF6FF7303EA022319430183704743
:1044C0000A460021818B4FF6FB731940114381830B
:1044D00070470A460021818B4FF6FF3319404FF693
:1044E000FF7303EA02231943818370470A460021C0
:1044F000018B4FF67F7319401143018370470A46C1
:104500000021018BC1F30E014FF6FF7303EA022372
:104510001943018370470A460021818B4FF67F7350
:1045200019401143818370470A460021818BC1F3F2
:104530000E014FF6FF7303EA02231943818370478C
:104540000A460021018C4FF6FD7319401143018486
:1045500070470A460021018C4FF6F773194011434A
:10456000018470470A460021018C4FF6DF73194021
:104570004FF6FF7303EA02131943018470470A469A
:104580000021018C4FF67F7319404FF6FF7303EA49
:1045900002131943018470470A460021018C4FF62B
:1045A000FF5319404FF6FF7303EA022319430184B6
:1045B00070470A460021018C4FF2FF7319404FF6F5
:1045C000FF7303EA02231943018470470A4600215E
:1045D000018C4DF6FF7319404FF6FF7303EA023367
:1045E00019430184704730B5002301248C40A3B2E5
:1045F000048C9C430484048C02FA01F5ADB22C4374
:10460000048430BD30B5002304248C40A3B2048C54
:104610009C430484048C02FA01F5ADB22C4304845B
:1046200030BD70B50346002000241846183001251F
:104630008D40ACB21D8CA5431D8409B1082909D158
:1046400000EB6100056825F07005056005681543FD
:1046500005600EE00D1FC5F34E052844056825F4DE
:10466000E045056005684FF6FF7606EA0226354309
:10467000056070BD21B1028842F00202028004E0B0
:1046800002884FF6FD731A400280704721B10288FC
:1046900042F00402028004E002884FF6FB731A40E5
:1046A0000280704721B1828842F08002828004E05B
:1046B00082884FF67F731A408280704702884FF6D7
:1046C000F7731A40028002880A430280704782888A
:1046D0004FF68F731A40828082880A438280704727
:1046E00002894FF6F8731A40028102890A43028157
:1046F000704702894FF67F731A40028102890A438C
:104700000281704781847047818570478186704738
:104710000187704781877047A0F840107047028872
:104720004FF6FF431A40028002880A430280704716
:104730000146888E70470146088F70470146888F72
:1047400070470146B1F8400070470146888C7047B9
:104750000146088D704702460020138A0B400BB1BA
:10476000012000E000207047CA430282704730B544
:104770000246002000230024158A05EA01039589DA
:1047800005EA010413B10CB1012000E0002030BDA6
:10479000CA4302827047000010B50446FB488442B9
:1047A00009D101218803FEF7FBFF00214FF480406F
:1047B000FEF7F6FF32E0F648844209D101214804B1
:1047C000FEF7FBFF00214FF40030FEF7F6FF25E077
:1047D000F048844209D101218804FEF7EEFF002150
:1047E0004FF48020FEF7E9FF18E0EB48844209D13E
:1047F0000121C804FEF7E1FF00214FF40020FEF77D
:10480000DCFF0BE0E548844208D101210805FEF7F2
:10481000D4FF00214FF48010FEF7CFFF10BD2DE92B
:10482000F04786B005460E460024A24600BFA146CA
:104830000027B08900B100BF2F462C8A4CF6FF70CC
:104840000440F08804432C82AC894EF6F3100440F7
:10485000B08831890843718908430443AC81AC8A2C
:104860004FF6FF400440B0890443AC8201A8FEF734
:1048700010FFC648874202D1DDF810A001E0DDF844
:104880000CA0A88900F4004040B10AEBCA0000EB7C
:104890000A1031684900B0FBF1F807E00AEBCA00E2
:1048A00000EB0A1031688900B0FBF1F86420B8FB16
:1048B000F0F004012009642101FB1089A88900F4AB
:1048C000004040B1322000EBC900B0FBF1F000F035
:1048D0000700044308E0322000EB09106421B0FB1C
:1048E000F1F000F00F0004432C8106B0BDE8F08722
:1048F0004FF41651016000218180C18001810C219B
:10490000418100218181704710B502460020108A44
:104910004FF2FF0318400B884C8823438C882343B5
:10492000CC8823431843108210BD002101804180B0
:104930008180C180704721B1828942F40052828116
:1049400004E082894DF6FF731A4082817047F0B50A
:104950000346002400260025002040F66A17B942CD
:1049600000D100BF1846C1F3421401F01F06012711
:1049700007FA06F5012C01D10C3004E0022C01D11C
:10498000103000E014301AB107682F43076002E0CE
:104990000768AF430760F0BD1AB1838A0B43838277
:1049A00002E0838A8B4383827047028A4FF6F0735A
:1049B0001A400282028A0A430282704782894FF2B9
:1049C000FF731A40828182890A438281704721B134
:1049D000828942F00202828104E082894FF6FD73EF
:1049E0001A4082817047028A4FF6DF731A400282B2
:1049F000028A0A430282704721B1028A42F480424D
:104A0000028204E0028A4BF6FF731A40028270476A
:104A1000C1F308028280704701468888C0F308000D
:104A20007047818941F0010181817047028BD2B2C8
:104A30000283028B42EA012202837047028B02F456
:104A40007F420283028B0A430283704721B1828A2C
:104A500042F02002828204E0828A4FF6DF731A401D
:104A60008282704721B1828A42F01002828204E081
:104A7000828A4FF6EF731A408282704721B1828A90
:104A800042F00802828204E0828A4FF6F7731A40ED
:104A90008282704721B1828942F40042828103E020
:104AA0008289C2F30E028281704721B1828A42F468
:104AB0000062828204E0828A4FF2FF731A4082828F
:104AC0007047828A4FF6FB731A408282828A0A43B9
:104AD0008282704721B1828A42F00202828204E01F
:104AE000828A4FF6FD731A40828270470246002088
:104AF000B1F5007F00D100BF13880B400BB101203E
:104B000000E00020704701F40072B2F5007F00D190
:104B100000BFCA430280704770B5024600240023DC
:104B20000025002040F66A16B14200D100BFC1F353
:104B3000421501F01F03012606FA03F3012D02D1ED
:104B40009689334006E0022D02D1168A334001E0F7
:104B5000968A33400C12012606FA04F41688344073
:104B600013B10CB1012000E0002070BD10B500228F
:104B7000002340F66A14A14200D100BF0A120124AA
:104B80009440A3B2DC43048010BD00000038014013
:104B90000044004000480040004C004000500040ED
:104BA00010B501210807FEF708FE00214FF08050E4
:104BB000FEF703FE10BD2A490862704728490861C4
:104BC000704701460020274A106820F0E0000843A3
:104BD000106070472249A0310860704710B5024646
:104BE0000020204B186820F00300104318601E4B73
:104BF0001B6843F004031C4C2360012901D130BF22
:104C000000E020BF184B1B6823F00403164C236000
:104C100010BD1448006840F00400124908600846BE
:104C2000006840F0020008600F48006840F004008F
:104C30000D49086000BF00BF30BF7047014600202B
:104C4000084A52680A400AB1012000E0002070477B
:104C50000449096841EA8001024A11607047000076
:104C600000000E420070004010ED00E010B5044658
:104C70002CB90020FE498871FE49C8700FE0012C54
:104C800003D10820FA49487104E0022C02D10C201B
:104C9000F74948710120F6498871F649C870F6480D
:104CA0000470F348FEF7C6F9F248FEF7EAF810BDC3
:104CB00010B51020FEF724FA70B3EF4800780128F1
:104CC0000AD1EE480078012802D10020EC49088082
:104CD0000220E949087018E0E7480078022814D15A
:104CE000E6480078012806D1E548008840F40040F5
:104CF000E349088006E0E1480078022802D101205B
:104D0000DE4908700120DC490870DB480078FFF7B5
:104D1000ADFF1020FEF705FA10BD38B500240125BF
:104D200001210420FEF722FD01210846FEF71EFDA9
:104D30000121D448FEF72FFBE803ADF80000102056
:104D40008DF8030003208DF802006946CE48FEF777
:104D500051FA1020ADF8000028208DF80300032040
:104D60008DF802006946C848FEF744FA0421002085
:104D7000FEF756FB1020BE4908600020087108208D
:104D80004871002088710846FEF754F90A20B94995
:104D9000087002204870032088700020C870084600
:104DA000FEF76FF80020B9490860B949C1F8100151
:104DB00005E0B8A001F0B4F9BB4800F0BEFEB3486E
:104DC000AC3800680028F4D14FF4E130FDF7A2FCC4
:104DD0000120AE49086049F6404000F0AEFE0324D1
:104DE0000AE04622B1A1B2A000F035FB20B90025AF
:104DF000B1A001F095F904E02000A4F10101CCB2CA
:104E0000EFD100BF04B90125284638BD30B585B0C3
:104E1000002500210720FDF7F8FC0120FDF750FDDB
:104E200000BF9A48AC3800680028FAD101209749A1
:104E3000086049F6404000F080FE00208F4908706D
:104E4000A0480088040A9F4805782B4622469EA168
:104E5000684601F071F9322294A1684600F0FBFA2D
:104E60009848037982789DA1684601F065F932225D
:104E70008EA1684600F0EFFA9248C2789BA168467E
:104E800001F05AF9322289A1684600F0E4FA8D480F
:104E900082799AA1684601F04FF9322283A16846CF
:104EA00000F0D9FA8748C27998A1684601F044F920
:104EB00032227EA1684600F0CEFA8248427996A15D
:104EC000684601F039F9322278A1684600F0C3FA49
:104ED0007C48437A027A94A1684601F02DF9322287
:104EE00072A1684600F0B7FA00206949C1F8BC0118
:104EF00049F6404000F021FE00BF6448AC3800682D
:104F00000028FAD15E49088001205C4908706D4A8A
:104F1000517A107AFDF779FC0120FFF7A7FE05B062
:104F200030BDF0B587B00646002402205349087012
:104F30006448C07968B932467FA1804801F0FCF826
:104F40007E497FA0FDF73DFC7C497FA001F0E8F899
:104F500050E05C48C07901284CD17E48008885B279
:104F60007D4807782A0A2046611C8CB27B490A5486
:104F70002046611C8CB279490D540846075500241F
:104F800006E07748015DE01C744A1154601C84B24D
:104F9000052CF6D300240DE000BF40217148FFF737
:104FA000A5FD0028F9D06D48015D6E48FFF730FD82
:104FB000601C84B2082CEFD36848C07967498979AE
:104FC000664A5279654B1B79CDE90232CDE904106E
:104FD0006248C07861498978CDE900105F4843781C
:104FE000027861A1664801F0A7F85D480079401C8D
:104FF0005B49087107B0F0BD70B506460324322541
:105000002EE03046FFF78DFF27E06D1E42F2107054
:1050100000F093FD1A48008800F40040E8B1002039
:1050200017490988C1F30E01564A505456A110463B
:1050300001F032FA50B112480088C0F30E01514815
:1050400001F0B7FA00205249086070BD0C48008892
:10505000C0F30E014B4801F0ACFA002DD5DC641E04
:10506000002CCEDC4BA001F05BF84FF0FF3097E056
:1050700078010020800100208501002084010020AB
:10508000340100200002300000080140BC01214230
:1050900000002142C4A3BFE9D5FDC3A62CC7EBC9BC
:1050A000D4B5C821210A000020A107004F4B000001
:1050B0004154453000000000BCECB2E2B3C9B9A6CF
:1050C000000000006C01002041542B414444523D3B
:1050D000253032782C2530327800000041542B578F
:1050E0004C524154453D25642C25640041542B54B9
:1050F000504F5745523D25640000000041542B435A
:10510000574D4F44453D25640000000041542B5449
:105110004D4F44453D25640041542B574C54494D57
:10512000453D25640000000041542B554152543D3B
:1051300025642C2564000000257300004221002016
:1051400025730D0A0000000053656E64A3BA257331
:105150000D0A00002002002024020020242100204B
:1051600086010020004400402578202578202578FD
:10517000202578202578202578202578202578007E
:105180000A220020F41900205265634F4B000000F2
:105190004800002053656E64204661696C656400B8
:1051A0006B49086000BF50E73EB50024694800889D
:1051B00000F4004000287AD066480088C0F30E044E
:1051C0006548C07918B9012000F018F916E0624866
:1051D000C079012812D1614800796049C9785F4AD5
:1051E0009278CDE9002102905C48437802785CA176
:1051F0005F4800F0A1FF002000F000F900255DA14C
:10520000564801F049F938B15AA15448FCF786FADA
:105210005949086001250BE058A1504801F03CF9BC
:1052200030B156A14D48FCF779FA5549086002257E
:1052300054A14A4801F030F938B152A14748FCF76F
:105240006DFA5149086001250BE050A1434801F077
:1052500023F930B14DA14148FCF760FA4C49086090
:1052600002254CA13D4801F017F938B149A13B484E
:10527000FCF754FA4849086001250BE047A137487C
:1052800001F00AF930B145A13448FCF747FA444926
:105290000860022543A1314801F0FEF840B141A168
:1052A0002E48FCF73BFA4049086001250CE010E06D
:1052B0003EA12A4801F0F0F830B13CA12748FCF7A4
:1052C0002DFA3B49086002252146244801F071F976
:1052D00000BF3EBD10B5FFF767FF10BD10B53548E4
:1052E00000F02BFC08E034A000F01AFF374800F073
:1052F00024FC37A000F014FFFFF70FFD0028F2D1C7
:1053000038A000F00DFF3B4800F017FC01203A499F
:10531000086049F6404000F010FC0020FDF7D0FA8C
:105320000020FFF7A3FC45F210400B490880102035
:1053300088700320C87005200871002048718871AA
:10534000C8710720087200204872FFF75FFD10BD8A
:1053500048000020340100206C010020F4190020D6
:1053600025782025782025782025782025780000AC
:105370001422002069310000EC0100206932000095
:10538000F001002068310000DC01002068320000DC
:10539000E001002074310000E401002074320000BC
:1053A000E801002073310000F40100207332000096
:1053B000F8010020808D5B00CEB4BCECB2E2B5BD3C
:1053C000C4A3BFE92121210D0A000000E0930400DD
:1053D00020202020202020202020202020202020CD
:1053E0000D0A0000BCECB2E2B5BDC4A3BFE92121A7
:1053F000210D0A0020A10700BC01214210B504467E
:105400007A48008800F4004070B10020774909888C
:10541000C1F30E01764A5054114676A000F080FE8A
:1054200014B100207149088010BD70B504460025F4
:105430006E48008800F4004058B100206B4909888C
:10544000C1F30E016A4A50542146104601F024F877
:105450000546284670BD2DE9F04104460E46154626
:105460000027002061490880FF2C0AD800BF62484D
:10547000008800F040000028F9D05F49091D0C8029
:1054800003E021465DA0FDF79CF9CEB1C5B110E067
:1054900042F2107000F051FB5448008800F40040C4
:1054A00038B13046FFF7C1FF18B100204F490880DE
:1054B00003E0681E80B20500EAD100BF05B90127EC
:1054C0003846BDE8F0810146302905DB392903DC87
:1054D000A1F13000C0B27047412905DB462903DC49
:1054E000A1F13700C0B2F6E7612905DB662903DCCC
:1054F000A1F15700C0B2EEE70020ECE730B503465B
:105500000C461546002200BF05E0A05CFFF7DBFF5C
:105510009854501CC2B2AA42F7DB30BDF0B5034626
:105520000E460024002500BF05E0305DFFF7CBFFED
:105530001855601CC4B29442F7DB052A19D11878BB
:1055400042F210714843597801EB4107C7EBC11192
:1055500000EBC100997801EBC10707EB011100EBEB
:105560008100D97801EB810100EB410019794518E0
:105570002DE0042A12D118784FF47A7148435978F3
:1055800001EBC10707EB011100EB8100997801EBFA
:10559000810100EB4100D978451818E0032A0AD1AF
:1055A000187864214843597801EB810100EB4100F0
:1055B000997845180BE0022A06D15878197801EB42
:1055C000810100EB410502E0012A00D11D78284647
:1055D000F0BD0146002200200A4600BF431CD8B29D
:1055E0000A23B2FBF3F2002AF8D1704734010020FD
:1055F000F4190020257300000044004025730D0AB3
:105600000000000008B5FF208DF8000003208DF891
:10561000010000208DF8020001208DF8030068468B
:10562000FDF72FFC08BD10B50020224908600420BA
:10563000FDF771FC20484FF0E021486100208861AF
:105640000720086110BD10B5FFF7DCFFFFF7EBFF87
:1056500010BD4FF0E020006920F002004FF0E02183
:10566000086170474FF0E020006940F002004FF001
:10567000E0210861704700204FF0E0218861704709
:105680004FF0E0208069704700224FF0E0239A61DC
:10569000084A1268811800BF064A12689142FBDC72
:1056A000704704480068704702480068401C014980
:1056B00008607047280200207FFC0A002DE9F843AB
:1056C00007460C4615461E46DDF820800121384667
:1056D000FEF74CF8ADF800508DF802608DF80380AD
:1056E00069462046FDF786FDBDE8F883FE4A11882D
:1056F0000A131303C1F3032203EB0223C1F30312C2
:1057000003EB021201F00F031A4491B24D22027012
:1057100043224270552282704322C270612202717C
:10572000702242713A2282714FF47A7291FBF2F246
:1057300032B14FF47A7291FBF2F23032C27101E071
:105740002022C2714FF47A7291FBF2F302FB131222
:10575000642392FBF3F230320272642291FBF2F383
:1057600002FB13120A2392FBF3F2303242720A2236
:1057700091FBF2F302FB1312303282724B22C2729F
:1057800062220273704770B50446D84805682A46FD
:10579000D7A1204600F0D0FC70BDD84A0A40024391
:1057A000D24B08331A60704710B504462046FDF707
:1057B00063FB10BDF8B504460D4617461E4630463D
:1057C000FFF7F2FF8DF800708DF801408DF8025060
:1057D00001208DF803006846FDF753FBF8BD00B5C6
:1057E0000020C7490861C860142048610020886112
:1057F000C8610846006840F001000860084640683B
:10580000C0490840BE49486008460068BE49084093
:10581000BB4908600846006820F4802008600846FC
:10582000406820F4FE0048600020886000214FF0AE
:105830000060FFF7B2FF00BD10B5AC481030006843
:1058400040F00400A94910310860AD48C06940F03B
:105850008050AB49C861AD48406840F48070AB49A6
:1058600048600846006840F0040008600846006888
:1058700040F002000860FAF71FFD10BDA4489B49E4
:105880000C31086070479E49896941F001019C4ACA
:105890009161A049496821F0E0619E4A516011463A
:1058A000496841EA00615160704730B504460025FF
:1058B000FFF795FF9248006840F4803090490860F7
:1058C00000BF8F480068400C0028FAD04FF4806079
:1058D0008B494860A01EC4B20846406840EA844034
:1058E00048600846406840F4803048608A48006854
:1058F00040F03200884908608148006840F08070BC
:105900007F49086000BF7E480068400E0028FAD03A
:105910007B48406840F002007949486005E07848DB
:105920004068C0F3870505F00305022DF7D130BDAF
:1059300001460A2091FBF0F200FB12100A2291FBB3
:10594000F2F240EA0210C0B27047014601F00F00C7
:105950000A1102EB820200EB4200C0B2704700283D
:1059600005DB092803DC00F13001C8B208E00A2891
:1059700005DB0F2803DC00F13701C8B200E0FF208F
:105980007047302805DB392803DCA0F13001C8B2AC
:1059900010E0412805DB462803DCA0F13701C8B23E
:1059A00008E0612805DB662803DCA0F15701C8B2D6
:1059B00000E0FF20704710B502F0010404B1521E50
:1059C00019E00C78392C02DD0C78373C01E00C78BA
:1059D000303CE3B2491C1C07230E0C78392C02DD45
:1059E0000C78373C01E00C78303C1C43E3B2491C96
:1059F00000F8013B921E002AE3D110BD30B50B46E2
:105A000017E01C782111092902DD01F1370401E0BA
:105A100001F1300400F8014B1C7804F00F01092952
:105A200002DD01F1370401E001F1300400F8014B1F
:105A30005B1C1400A2F10102E3D1047030BD70B50B
:105A400012E00B780A2493FBF4F504FB15330C7871
:105A50000A2594FBF5F494FBF5F605FB164443EA9E
:105A6000041300F8013B491C1300A2F10104A2B287
:105A7000E7D170BD01464FF47A7091FBF0F000035E
:105A80004FF47A7291FBF2F302FB1312642392FB40
:105A9000F3F240EA02201A4691FBF2F302FB1312E2
:105AA0000A2392FBF3F240EA02101A4691FBF2F34A
:105AB00002FB1312104380B27047014608134FF4E3
:105AC0007A725043C1F3032202EBC20303EB0212CA
:105AD00000EB8200C1F3031202EB820200EB4200F2
